{"abi":[{"type":"function","name":"afterPresale","inputs":[],"outputs":[],"stateMutability":"nonpayable"},{"type":"function","name":"bumpFloor","inputs":[{"name":"ethAmount","type":"uint256","internalType":"uint256"}],"outputs":[],"stateMutability":"nonpayable"},{"type":"function","name":"burnTokens","inputs":[{"name":"amount","type":"uint256","internalType":"uint256"}],"outputs":[],"stateMutability":"nonpayable"},{"type":"function","name":"exchangeHelper","inputs":[],"outputs":[{"name":"","type":"address","internalType":"address"}],"stateMutability":"view"},{"type":"function","name":"getAccumulatedFees","inputs":[],"outputs":[{"name":"","type":"uint256","internalType":"uint256"},{"name":"","type":"uint256","internalType":"uint256"}],"stateMutability":"view"},{"type":"function","name":"getFunctionSelectors","inputs":[],"outputs":[{"name":"","type":"bytes4[]","internalType":"bytes4[]"}],"stateMutability":"pure"},{"type":"function","name":"getPositions","inputs":[],"outputs":[{"name":"positions","type":"tuple[3]","internalType":"struct LiquidityPosition[3]","components":[{"name":"lowerTick","type":"int24","internalType":"int24"},{"name":"upperTick","type":"int24","internalType":"int24"},{"name":"liquidity","type":"uint128","internalType":"uint128"},{"name":"price","type":"uint256","internalType":"uint256"},{"name":"tickSpacing","type":"int24","internalType":"int24"}]}],"stateMutability":"view"},{"type":"function","name":"getProtocolParameters","inputs":[],"outputs":[{"name":"","type":"tuple","internalType":"struct ProtocolParameters","components":[{"name":"floorPercentage","type":"uint8","internalType":"uint8"},{"name":"anchorPercentage","type":"uint8","internalType":"uint8"},{"name":"idoPriceMultiplier","type":"uint8","internalType":"uint8"},{"name":"floorBips","type":"uint16[2]","internalType":"uint16[2]"},{"name":"shiftRatio","type":"uint256","internalType":"uint256"},{"name":"slideRatio","type":"uint256","internalType":"uint256"},{"name":"discoveryBips","type":"int24","internalType":"int24"},{"name":"shiftAnchorUpperBips","type":"int24","internalType":"int24"},{"name":"slideAnchorUpperBips","type":"int24","internalType":"int24"},{"name":"lowBalanceThresholdFactor","type":"uint256","internalType":"uint256"},{"name":"highBalanceThresholdFactor","type":"uint256","internalType":"uint256"},{"name":"inflationFee","type":"uint256","internalType":"uint256"},{"name":"loanFee","type":"uint256","internalType":"uint256"},{"name":"deployFee","type":"uint256","internalType":"uint256"},{"name":"presalePremium","type":"uint256","internalType":"uint256"},{"name":"selfRepayLtvTreshold","type":"uint256","internalType":"uint256"},{"name":"halfStep","type":"uint256","internalType":"uint256"}]}],"stateMutability":"view"},{"type":"function","name":"getReferralEntity","inputs":[{"name":"who","type":"address","internalType":"address"}],"outputs":[{"name":"","type":"tuple","internalType":"struct ReferralEntity","components":[{"name":"code","type":"bytes8","internalType":"bytes8"},{"name":"totalReferred","type":"uint256","internalType":"uint256"}]}],"stateMutability":"view"},{"type":"function","name":"getTimeSinceLastMint","inputs":[],"outputs":[{"name":"","type":"uint256","internalType":"uint256"}],"stateMutability":"view"},{"type":"function","name":"getTotalCreatorEarnings","inputs":[],"outputs":[{"name":"","type":"uint256","internalType":"uint256"}],"stateMutability":"nonpayable"},{"type":"function","name":"getTotalTeamEarnings","inputs":[],"outputs":[{"name":"","type":"uint256","internalType":"uint256"}],"stateMutability":"nonpayable"},{"type":"function","name":"mintTokens","inputs":[{"name":"to","type":"address","internalType":"address"},{"name":"amount","type":"uint256","internalType":"uint256"}],"outputs":[{"name":"","type":"bool","internalType":"bool"}],"stateMutability":"nonpayable"},{"type":"function","name":"pool","inputs":[],"outputs":[{"name":"","type":"address","internalType":"contract IUniswapV3Pool"}],"stateMutability":"view"},{"type":"function","name":"selfRepayLoans","inputs":[{"name":"amountToPull","type":"uint256","internalType":"uint256"},{"name":"start","type":"uint256","internalType":"uint256"},{"name":"limit","type":"uint256","internalType":"uint256"}],"outputs":[],"stateMutability":"nonpayable"},{"type":"function","name":"setManager","inputs":[{"name":"manager","type":"address","internalType":"address"}],"outputs":[],"stateMutability":"nonpayable"},{"type":"function","name":"setModelHelper","inputs":[{"name":"modelHelper","type":"address","internalType":"address"}],"outputs":[],"stateMutability":"nonpayable"},{"type":"function","name":"setProtocolParameters","inputs":[{"name":"protocolParameters","type":"tuple","internalType":"struct ProtocolParameters","components":[{"name":"floorPercentage","type":"uint8","internalType":"uint8"},{"name":"anchorPercentage","type":"uint8","internalType":"uint8"},{"name":"idoPriceMultiplier","type":"uint8","internalType":"uint8"},{"name":"floorBips","type":"uint16[2]","internalType":"uint16[2]"},{"name":"shiftRatio","type":"uint256","internalType":"uint256"},{"name":"slideRatio","type":"uint256","internalType":"uint256"},{"name":"discoveryBips","type":"int24","internalType":"int24"},{"name":"shiftAnchorUpperBips","type":"int24","internalType":"int24"},{"name":"slideAnchorUpperBips","type":"int24","internalType":"int24"},{"name":"lowBalanceThresholdFactor","type":"uint256","internalType":"uint256"},{"name":"highBalanceThresholdFactor","type":"uint256","internalType":"uint256"},{"name":"inflationFee","type":"uint256","internalType":"uint256"},{"name":"loanFee","type":"uint256","internalType":"uint256"},{"name":"deployFee","type":"uint256","internalType":"uint256"},{"name":"presalePremium","type":"uint256","internalType":"uint256"},{"name":"selfRepayLtvTreshold","type":"uint256","internalType":"uint256"},{"name":"halfStep","type":"uint256","internalType":"uint256"}]}],"outputs":[],"stateMutability":"nonpayable"},{"type":"function","name":"setProtocolParametersCreator","inputs":[{"name":"protocolParameters","type":"tuple","internalType":"struct CreatorFacingParameters","components":[{"name":"discoveryBips","type":"int24","internalType":"int24"},{"name":"shiftAnchorUpperBips","type":"int24","internalType":"int24"},{"name":"slideAnchorUpperBips","type":"int24","internalType":"int24"},{"name":"lowBalanceThresholdFactor","type":"uint256","internalType":"uint256"},{"name":"highBalanceThresholdFactor","type":"uint256","internalType":"uint256"},{"name":"inflationFee","type":"uint256","internalType":"uint256"},{"name":"loanFee","type":"uint256","internalType":"uint256"},{"name":"selfRepayLtvTreshold","type":"uint256","internalType":"uint256"},{"name":"halfStep","type":"uint256","internalType":"uint256"}]}],"outputs":[],"stateMutability":"nonpayable"},{"type":"function","name":"setReferralEntity","inputs":[{"name":"code","type":"bytes8","internalType":"bytes8"},{"name":"amount","type":"uint256","internalType":"uint256"}],"outputs":[],"stateMutability":"nonpayable"},{"type":"function","name":"teamMultiSig","inputs":[],"outputs":[{"name":"","type":"address","internalType":"address"}],"stateMutability":"view"},{"type":"function","name":"updatePositions","inputs":[{"name":"_positions","type":"tuple[3]","internalType":"struct LiquidityPosition[3]","components":[{"name":"lowerTick","type":"int24","internalType":"int24"},{"name":"upperTick","type":"int24","internalType":"int24"},{"name":"liquidity","type":"uint128","internalType":"uint128"},{"name":"price","type":"uint256","internalType":"uint256"},{"name":"tickSpacing","type":"int24","internalType":"int24"}]}],"outputs":[],"stateMutability":"nonpayable"},{"type":"function","name":"vToken","inputs":[],"outputs":[{"name":"","type":"address","internalType":"address"}],"stateMutability":"view"},{"type":"event","name":"LoanRepaidOnBehalf","inputs":[{"name":"who","type":"address","indexed":true,"internalType":"address"},{"name":"amount","type":"uint256","indexed":false,"internalType":"uint256"},{"name":"collateralReleased","type":"uint256","indexed":false,"internalType":"uint256"}],"anonymous":false},{"type":"error","name":"NotAuthorized","inputs":[]},{"type":"error","name":"NotInitialized","inputs":[]},{"type":"error","name":"OnlyInternalCalls","inputs":[]}],"bytecode":{"object":"0x608060405234801561001057600080fd5b506131cb806100206000396000f3fe608060405234801561001057600080fd5b506004361061018d5760003560e01c806395d7d0ad116100e3578063dee02ffa1161008c578063f0dda65c11610066578063f0dda65c1461031c578063f326ddc81461033f578063fd896f9d1461035257600080fd5b8063dee02ffa146102ee578063e2379809146102f6578063e339d2b41461030957600080fd5b8063c58aad87116100bd578063c58aad87146102b3578063c8b16a55146102c8578063d0ebdbe7146102db57600080fd5b806395d7d0ad146102855780639bb1a99c14610298578063bf2e3dd2146102a057600080fd5b80635df45a3711610145578063854567f11161011f578063854567f11461026d578063899e8689146102755780638cc71fc41461027d57600080fd5b80635df45a371461022a5780636d1b229d14610245578063802758601461025857600080fd5b8063259b8fd811610176578063259b8fd8146101fb5780632ba25014146102105780632df2982e1461021857600080fd5b806301cd16311461019257806316f0115b146101cf575b600080fd5b6101a56101a036600461266d565b610367565b6040805182516001600160c01b031916815260209283015192810192909252015b60405180910390f35b602c54600160301b90046001600160a01b03165b6040516001600160a01b0390911681526020016101c6565b61020e6102093660046126a7565b610482565b005b6101e3610562565b602f545b6040519081526020016101c6565b602d54602e54604080519283526020830191909152016101c6565b61020e6102533660046126d3565b610722565b6102606108e6565b6040516101c691906126ec565b6101e36109c8565b61020e610a3c565b60305461021c565b61020e61029336600461283c565b610b9b565b6101e3610d26565b61020e6102ae36600461266d565b610db0565b6102bb610e7e565b6040516101c69190612932565b61020e6102d6366004612ad0565b610fab565b61020e6102e936600461266d565b611161565b61021c611245565b61020e610304366004612be2565b611255565b61020e610317366004612c0e565b6113df565b61032f61032a366004612c9e565b611488565b60405190151581526020016101c6565b61020e61034d3660046126d3565b61154e565b61035a61192b565b6040516101c69190612cbc565b60408051808201909152600080825260208201526040517f92c403440000000000000000000000000000000000000000000000000000000081526001600160a01b038316600482015260009073__$02d520d13cf184fb066b4c9912635b5d1d$__906392c4034490602401602060405180830381865af41580156103ef573d6000803e3d6000fd5b505050506040513d601f19601f820116820180604052508101906104139190612d0a565b90506001600160c01b0319811661043f5750506040805180820190915260008082526020820152919050565b6001600160c01b03199081166000908152603160209081526040918290208251808401909352805460c01b90931682526001909201549181019190915292915050565b61048a610562565b6001600160a01b0316336001600160a01b0316141580156104c457506104ae610d26565b6001600160a01b0316336001600160a01b031614155b156104e25760405163ea8e4eb560e01b815260040160405180910390fd5b6001600160c01b03198216600081815260316020908152604091829020600101548251808401909352928252810161051a8484612d3d565b90526001600160c01b03199390931660009081526031602090815260409091208451815467ffffffffffffffff191660c09190911c1781559301516001909301929092555050565b60025460408051808201909152600e81527f45786368616e676548656c70657200000000000000000000000000000000000060208201526000916001600160a01b0316908290829063197c6b2d9030906105bb906121bd565b6040516001600160e01b031960e085901b1681526001600160a01b0390921660048301526024820152604401602060405180830381865afa158015610604573d6000803e3d6000fd5b505050506040513d601f19601f820116820180604052508101906106289190612d50565b90506001600160a01b03811661071c57816001600160a01b031663dacb2d016106856040518060400160405280600e81526020017f45786368616e676548656c7065720000000000000000000000000000000000008152506121bd565b6040518263ffffffff1660e01b81526004016106d89181526040602082018190526011908201527f6e6f2045786368616e676548656c706572000000000000000000000000000000606082015260800190565b602060405180830381865afa1580156106f5573d6000803e3d6000fd5b505050506040513d601f19601f820116820180604052508101906107199190612d50565b90505b92915050565b6000546001600160a01b0316331480159061073d5750333014155b1561075b5760405163139f696160e31b815260040160405180910390fd5b6000602c0160069054906101000a90046001600160a01b03166001600160a01b0316630dfe16816040518163ffffffff1660e01b8152600401602060405180830381865afa1580156107b1573d6000803e3d6000fd5b505050506040513d601f19601f820116820180604052508101906107d59190612d50565b6000546040517f095ea7b30000000000000000000000000000000000000000000000000000000081526001600160a01b0391821660048201526024810184905291169063095ea7b3906044016020604051808303816000875af1158015610840573d6000803e3d6000fd5b505050506040513d601f19601f820116820180604052508101906108649190612d6d565b506000546040517f1dd319cb000000000000000000000000000000000000000000000000000000008152306004820152602481018390526001600160a01b0390911690631dd319cb906044015b600060405180830381600087803b1580156108cb57600080fd5b505af11580156108df573d6000803e3d6000fd5b5050505050565b6108ee6124ae565b506040805161010081018252601f54600281810b60608085019182526301000000808504840b6080808801919091526001600160801b03600160301b96879004811660a0808a01919091526020805460c08b0152602154880b60e08b015295895289518082018b5260225480890b8252858104890b828901528990048316818c015260235481870152602454880b81850152868a015289519081018a5260255480880b8252938404870b9581019590955295909104909416828701526026549082015260275490910b918101919091529181019190915290565b600080546040805163854567f160e01b815290516001600160a01b039092169163854567f1916004808201926020929091908290030181865afa158015610a13573d6000803e3d6000fd5b505050506040513d601f19601f82011682018060405250810190610a379190612d50565b905090565b601a546001600160a01b03163314610a675760405163ea8e4eb560e01b815260040160405180910390fd5b60025460408051808201909152600881527f4465706c6f79657200000000000000000000000000000000000000000000000060208201526000916001600160a01b03169063dacb2d0190610aba906121bd565b6040518263ffffffff1660e01b8152600401610b0d918152604060208201819052600b908201527f6e6f204465706c6f796572000000000000000000000000000000000000000000606082015260800190565b602060405180830381865afa158015610b2a573d6000803e3d6000fd5b505050506040513d601f19601f82011682018060405250810190610b4e9190612d50565b6000546040517f7d19a2cb0000000000000000000000000000000000000000000000000000000081526001600160a01b038084166004830152929350911690637d19a2cb906024016108b1565b6000546001600160a01b03163314801590610bb65750333014155b15610bd45760405163139f696160e31b815260040160405180910390fd5b60175460ff16610bf7576040516321c4e35760e21b815260040160405180910390fd5b80518051601f805460208085015160408087015162ffffff96871665ffffffffffff199586161763010000009388168402177fffffffffffffffffffff00000000000000000000000000000000ffffffffffff908116600160301b6001600160801b039384168102919091179097556060808a015186556080998a01516021805462ffffff19908116928c16929092179055868c0151805160228054838b0151848a0151938f16918d1691909117908e168a021786169187168c02919091179055808301516023558b0151602480548316918c16919091179055848c01518051602580549983015197830151918d1699909a1698909817958b16909602949094179091169490911690950292909217909255918101516026559092015160278054909316911617905550565b50565b60025460408051808201909152600681527f76546f6b656e000000000000000000000000000000000000000000000000000060208201526000916001600160a01b0316908290829063197c6b2d903090610d7f906121bd565b6040516001600160e01b031960e085901b1681526001600160a01b03909216600483015260248201526044016106d8565b6000546040805163854567f160e01b815290516001600160a01b039092169163854567f1916004808201926020929091908290030181865afa158015610dfa573d6000803e3d6000fd5b505050506040513d601f19601f82011682018060405250810190610e1e9190612d50565b6001600160a01b0316336001600160a01b031614610e4f5760405163ea8e4eb560e01b815260040160405180910390fd5b6018805473ffffffffffffffffffffffffffffffffffffffff19166001600160a01b0392909216919091179055565b610e866124fb565b6040805161022081018252600a805460ff8082168452610100820481166020850152620100009091041682840152825180840193849052919290916060840191600b90600290826000855b82829054906101000a900461ffff1661ffff1681526020019060020190602082600101049283019260010382029150808411610ed157505050928452505050600282810154602083015260038301546040830152600483015480820b606084015263010000008104820b6080840152600160301b9004900b60a0820152600582015460c0820152600682015460e0820152600782015461010082015260088201546101208201526009820154610140820152600a820154610160820152600b820154610180820152600c909101546101a090910152919050565b6000546040805163854567f160e01b815290516001600160a01b039092169163854567f1916004808201926020929091908290030181865afa158015610ff5573d6000803e3d6000fd5b505050506040513d601f19601f820116820180604052508101906110199190612d50565b6001600160a01b0316336001600160a01b03161461104a5760405163ea8e4eb560e01b815260040160405180910390fd5b8051600a80546020840151604085015160ff908116620100000262ff0000199282166101000261ffff1990941691909516179190911716919091178155606082015182919061109d90600b90600261258f565b506080820151600282015560a0820151600382015560c082015160048201805460e085015161010086015162ffffff908116600160301b0268ffffff0000000000001992821663010000000265ffffffffffff199094169190951617919091171691909117905561012082015160058201556101408201516006820155610160820151600782015561018082015160088201556101a082015160098201556101c0820151600a8201556101e0820151600b82015561020090910151600c9091015550565b600080546040805163854567f160e01b815290516001600160a01b039092169163854567f1916004808201926020929091908290030181865afa1580156111ac573d6000803e3d6000fd5b505050506040513d601f19601f820116820180604052508101906111d09190612d50565b6001549091506001600160a01b031633148015906111f75750336001600160a01b03821614155b156112155760405163ea8e4eb560e01b815260040160405180910390fd5b506001805473ffffffffffffffffffffffffffffffffffffffff19166001600160a01b0392909216919091179055565b602954600090610a379042612d8f565b600080546040805163854567f160e01b815290516001600160a01b039092169163854567f1916004808201926020929091908290030181865afa1580156112a0573d6000803e3d6000fd5b505050506040513d601f19601f820116820180604052508101906112c49190612d50565b6001549091506001600160a01b031633148015906112eb5750336001600160a01b03821614155b156113095760405163ea8e4eb560e01b815260040160405180910390fd5b6040517fd96494650000000000000000000000000000000000000000000000000000000081526004810185905260248101849052604481018390526000908190309063d96494659060640160408051808303816000875af1158015611372573d6000803e3d6000fd5b505050506040513d601f19601f820116820180604052508101906113969190612da2565b604080518281526020810184905292945090925033917f2bbfc23fd6a105f538bf6e1e6ff8f72f3e83b172c766d7b64219d5314ae50327910160405180910390a2505050505050565b6001546001600160a01b0316331461140a5760405163ea8e4eb560e01b815260040160405180910390fd5b8051600e80546020840151604085015162ffffff908116600160301b0268ffffff0000000000001992821663010000000265ffffffffffff19909416919095161791909117169190911790556060810151600f55608081015160105560a081015160115560c081015160125560e08101516015556101000151601655565b600080546001600160a01b031633148015906114a45750333014155b156114c25760405163139f696160e31b815260040160405180910390fd5b426029556000546040517ff0dda65c0000000000000000000000000000000000000000000000000000000081526001600160a01b038581166004830152602482018590529091169063f0dda65c90604401600060405180830381600087803b15801561152d57600080fd5b505af1158015611541573d6000803e3d6000fd5b5060019695505050505050565b6000546040805163854567f160e01b815290516001600160a01b039092169163854567f1916004808201926020929091908290030181865afa158015611598573d6000803e3d6000fd5b505050506040513d601f19601f820116820180604052508101906115bc9190612d50565b6001600160a01b0316336001600160a01b0316146115ed5760405163ea8e4eb560e01b815260040160405180910390fd5b60175460ff16611610576040516321c4e35760e21b815260040160405180910390fd5b6040805161010081018252601f54600281810b60608085019182526301000000808504840b6080808801919091526001600160801b03600160301b96879004811660a0808a01919091526020805460c08b0152602154880b60e08b015295895289518082018b5260225480890b8252858104890b828901528990048316818c015260235481870152602454880b81850152868a015289519081018a5260255480880b8252938404870b9581019590955291869004909116838801526026549183019190915260275490920b9181019190915282840152601854602c5493517f2f10d97600000000000000000000000000000000000000000000000000000000815292936000936001600160a01b0392831693632f10d9769361173e9391909104169030908690600401612dc6565b608060405180830381865afa15801561175b573d6000803e3d6000fd5b505050506040513d601f19601f8201168201806040525081019061177f9190612e0a565b602c548651519195506117b49450600160301b90046001600160a01b031692503091508560005b60200201516020015161221c565b602c546117dd90600160301b90046001600160a01b0316308460016020020151518560016117a6565b602c5461180690600160301b90046001600160a01b0316308460026020020151518560026117a6565b601854602c546040517fa4dda1a2000000000000000000000000000000000000000000000000000000008152600160301b9091046001600160a01b039081166004830152306024830152600092169063a4dda1a290604401602060405180830381865afa15801561187b573d6000803e3d6000fd5b505050506040513d601f19601f8201168201806040525081019061189f9190612e68565b905060006118af85848487612319565b6018546040517f930cc12a0000000000000000000000000000000000000000000000000000000081523060048201529192506001600160a01b03169063930cc12a9060240160006040518083038186803b15801561190c57600080fd5b505afa158015611920573d6000803e3d6000fd5b505050505050505050565b6040805160128082526102608201909252606091600091906020820161024080368337505060408051808201909152600e81527f7465616d4d756c746953696728290000000000000000000000000000000000006020909101525080519091507f854567f1ebcf52af01539bbb2eb91efa4f35506d34e268a7a77e05fac717b9d69082906000906119be576119be612e52565b6001600160e01b031990921660209283029190910182015260408051808201909152601781527f67657450726f746f636f6c506172616d6574657273282900000000000000000091015280517fc58aad872b3b4ca1be02017b517aa3d4dc2cde8329ed50f2f7b5e8d426b87df89082906001908110611a3f57611a3f612e52565b6001600160e01b031990921660209283029190910182015260408051808201909152601681527f67657454696d6553696e63654c6173744d696e7428290000000000000000000091015280517fdee02ffaa72188dc53f5a6b5d074114cf589f27a6f21fc80fb35e5a154d604029082906002908110611ac057611ac0612e52565b6001600160e01b031990921660209283029190910182015260408051808201909152601481527f676574416363756d756c6174656446656573282900000000000000000000000091015280517f5df45a3726e2430fc7db93443f7d212a24cee57c63dfca1e6d9d339521e8fb6c9082906003908110611b4157611b41612e52565b6001600160e01b031990921660209283029190910182015260408051808201909152600681527f706f6f6c2829000000000000000000000000000000000000000000000000000091015280517f16f0115b5901d3f6295e520505af05475e18f6f1e134f347475c881a6302260d9082906004908110611bc257611bc2612e52565b6001600160e01b031990921660209283029190910182015260408051808201909152600e81527f676574506f736974696f6e73282900000000000000000000000000000000000091015280517f80275860e94ae2352a6f96e7331d60fec5acb8be3449303acc2955074b0ae8919082906005908110611c4357611c43612e52565b6001600160e01b031990921660209283029190910182015260408051808201909152600e81527f616674657250726573616c65282900000000000000000000000000000000000091015280517f899e8689d09c1013329814dcc3cd2004aa09d9c22649cb76a50b413c8cae4e1f9082906006908110611cc457611cc4612e52565b60200260200101906001600160e01b03191690816001600160e01b031916815250506040518060c001604052806096815260200161309f609691398051906020012081600781518110611d1957611d19612e52565b6001600160e01b031990921660209283029190910182015260408051808201909152601381527f7365744d616e616765722861646472657373290000000000000000000000000091015280517fd0ebdbe7294e51559dff65347642239c2dcc3c1d04b820c6861367535fbf89929082906008908110611d9a57611d9a612e52565b6001600160e01b031990921660209283029190910182015260408051808201909152601781527f7365744d6f64656c48656c70657228616464726573732900000000000000000091015280517fbf2e3dd255f1f52978ed60b745decb4605079c3c6617d6a8e938f1f35e0133a49082906009908110611e1b57611e1b612e52565b60200260200101906001600160e01b03191690816001600160e01b03191681525050604051806060016040528060378152602001613068603791398051906020012081600a81518110611e7057611e70612e52565b6001600160e01b031990921660209283029190910182015260408051808201909152601b81527f6d696e74546f6b656e7328616464726573732c75696e7432353629000000000091015280517ff0dda65cf836e94d4ef937906c9c60bfee0b848c2d3202142a7cc87420ad437c908290600b908110611ef157611ef1612e52565b6001600160e01b031990921660209283029190910182015260408051808201909152601381527f6275726e546f6b656e732875696e74323536290000000000000000000000000091015280517f6d1b229dafadcd720d5a60a73409508ab97a09a020cffe742460e5a58f790b61908290600c908110611f7257611f72612e52565b60200260200101906001600160e01b03191690816001600160e01b03191681525050604051806060016040528060218152602001613047602191398051906020012081600d81518110611fc757611fc7612e52565b6001600160e01b031990921660209283029190910182015260408051808201909152601a81527f676574526566657272616c456e7469747928616464726573732900000000000091015280517f01cd1631ab7a801894b59f4ef875af07b548e19aab5cc8946f6ad36c343dd3bc908290600e90811061204857612048612e52565b60200260200101906001600160e01b03191690816001600160e01b031916815250506040518060a0016040528060618152602001613135606191398051906020012081600f8151811061209d5761209d612e52565b6001600160e01b031990921660209283029190910182015260408051808201909152601981527f676574546f74616c43726561746f724561726e696e677328290000000000000091015280517f8cc71fc47aa6a9193efb1681b5b5fd256edf10558306c92450f74efc6fbad2b6908290601090811061211e5761211e612e52565b6001600160e01b031990921660209283029190910182015260408051808201909152601681527f676574546f74616c5465616d4561726e696e677328290000000000000000000091015280517f2df2982e508f32820d2f5539930650a5fcd400ae01179692d02402144219fe85908290601190811061219f5761219f612e52565b6001600160e01b031990921660209283029190910190910152919050565b8051600090829082036121d35750600092915050565b6020815111156121e257600080fd5b602083015181519092505b60208110156122155761220181601f612d8f565b61220c906008612e81565b506001016121ed565b5050919050565b6040516bffffffffffffffffffffffff193060601b16602082015260e883811b603483015282901b6037820152600090603a0160408051601f198184030181529082905280516020909101207f514ea4bf0000000000000000000000000000000000000000000000000000000082526004820181905291506000906001600160a01b0387169063514ea4bf9060240160a060405180830381865afa1580156122c8573d6000803e3d6000fd5b505050506040513d601f19601f820116820180604052508101906122ec9190612e98565b5050505090506000816001600160801b03161115612311576123118686868685612339565b505050505050565b60008061232f6123298787612d3d565b8561248b565b9695505050505050565b6040517fa34123a7000000000000000000000000000000000000000000000000000000008152600284810b600483015283900b60248201526001600160801b03821660448201526001600160a01b0386169063a34123a79060640160408051808303816000875af11580156123b2573d6000803e3d6000fd5b505050506040513d601f19601f820116820180604052508101906123d69190612da2565b50506040517f4f1eb3d80000000000000000000000000000000000000000000000000000000081526001600160a01b038581166004830152600285810b602484015284900b60448301526001600160801b03606483018190526084830152861690634f1eb3d89060a40160408051808303816000875af115801561245e573d6000803e3d6000fd5b505050506040513d601f19601f820116820180604052508101906124829190612efa565b50505050505050565b60008161249a6012600a613018565b6124a49085612e81565b6107199190613024565b60405180606001604052806003905b6040805160a0810182526000808252602080830182905292820181905260608201819052608082015282526000199092019101816124bd5790505090565b60408051610220810182526000808252602082018190529181019190915260608101612525612625565b81526020016000815260200160008152602001600060020b8152602001600060020b8152602001600060020b815260200160008152602001600081526020016000815260200160008152602001600081526020016000815260200160008152602001600081525090565b6001830191839082156126155791602002820160005b838211156125e557835183826101000a81548161ffff021916908361ffff16021790555092602001926002016020816001010492830192600103026125a5565b80156126135782816101000a81549061ffff02191690556002016020816001010492830192600103026125e5565b505b50612621929150612643565b5090565b60405180604001604052806002906020820280368337509192915050565b5b808211156126215760008155600101612644565b6001600160a01b0381168114610d2357600080fd5b60006020828403121561267f57600080fd5b813561268a81612658565b9392505050565b6001600160c01b031981168114610d2357600080fd5b600080604083850312156126ba57600080fd5b82356126c581612691565b946020939093013593505050565b6000602082840312156126e557600080fd5b5035919050565b6101e08101818360005b60038110156127555781518051600290810b8552602080830151820b818701526040808401516001600160801b0316908701526060808401519087015260809283015190910b9185019190915260a090930192909101906001016126f6565b50505092915050565b634e487b7160e01b600052604160045260246000fd5b60405160a0810167ffffffffffffffff811182821017156127975761279761275e565b60405290565b604051610220810167ffffffffffffffff811182821017156127975761279761275e565b604051610120810167ffffffffffffffff811182821017156127975761279761275e565b6040516060810167ffffffffffffffff811182821017156127975761279761275e565b8060020b8114610d2357600080fd5b803561282281612808565b919050565b6001600160801b0381168114610d2357600080fd5b60006101e080838503121561285057600080fd5b83601f84011261285f57600080fd5b6128676127e5565b90830190808583111561287957600080fd5b845b838110156128fb5760a081880312156128945760008081fd5b61289c612774565b81356128a781612808565b81526020828101356128b881612808565b828201526040838101356128cb81612827565b90830152606083810135908301526080808401356128e881612808565b908301529084529092019160a00161287b565b5095945050505050565b8060005b600281101561292c57815161ffff16845260209384019390910190600101612909565b50505050565b815160ff16815261024081016020830151612952602084018260ff169052565b506040830151612967604084018260ff169052565b50606083015161297a6060840182612905565b50608083015160a083015260a083015160c083015260c08301516129a360e084018260020b9052565b5060e08301516101006129ba8185018360020b9052565b84015190506101206129d08482018360020b9052565b8401516101408481019190915284015161016080850191909152840151610180808501919091528401516101a0808501919091528401516101c0808501919091528401516101e080850191909152840151610200808501919091529093015161022090920191909152919050565b803560ff8116811461282257600080fd5b600082601f830112612a6057600080fd5b6040516040810181811067ffffffffffffffff82111715612a8357612a8361275e565b8060405250806040840185811115612a9a57600080fd5b845b81811015612ac557803561ffff81168114612ab75760008081fd5b835260209283019201612a9c565b509195945050505050565b60006102408284031215612ae357600080fd5b612aeb61279d565b612af483612a3e565b8152612b0260208401612a3e565b6020820152612b1360408401612a3e565b6040820152612b258460608501612a4f565b606082015260a0830135608082015260c083013560a0820152612b4a60e08401612817565b60c0820152610100612b5d818501612817565b60e0830152610120612b70818601612817565b828401526101409150818501358184015250610160808501358284015261018091508185013581840152506101a080850135828401526101c091508185013581840152506101e08085013582840152610200915081850135818401525061022084013581830152508091505092915050565b600080600060608486031215612bf757600080fd5b505081359360208301359350604090920135919050565b60006101208284031215612c2157600080fd5b612c296127c1565b612c3283612817565b8152612c4060208401612817565b6020820152612c5160408401612817565b6040820152606083013560608201526080830135608082015260a083013560a082015260c083013560c082015260e083013560e08201526101008084013581830152508091505092915050565b60008060408385031215612cb157600080fd5b82356126c581612658565b6020808252825182820181905260009190848201906040850190845b81811015612cfe5783516001600160e01b03191683529284019291840191600101612cd8565b50909695505050505050565b600060208284031215612d1c57600080fd5b815161268a81612691565b634e487b7160e01b600052601160045260246000fd5b8082018082111561071c5761071c612d27565b600060208284031215612d6257600080fd5b815161268a81612658565b600060208284031215612d7f57600080fd5b8151801515811461268a57600080fd5b8181038181111561071c5761071c612d27565b60008060408385031215612db557600080fd5b505080516020909101519092909150565b6001600160a01b038481168252831660208201526060810160038310612dfc57634e487b7160e01b600052602160045260246000fd5b826040830152949350505050565b60008060008060808587031215612e2057600080fd5b8451612e2b81612808565b6020860151909450612e3c81612808565b6040860151606090960151949790965092505050565b634e487b7160e01b600052603260045260246000fd5b600060208284031215612e7a57600080fd5b5051919050565b808202811582820484141761071c5761071c612d27565b600080600080600060a08688031215612eb057600080fd5b8551612ebb81612827565b8095505060208601519350604086015192506060860151612edb81612827565b6080870151909250612eec81612827565b809150509295509295909350565b60008060408385031215612f0d57600080fd5b8251612f1881612827565b6020840151909250612f2981612827565b809150509250929050565b600181815b80851115612f6f578160001904821115612f5557612f55612d27565b80851615612f6257918102915b93841c9390800290612f39565b509250929050565b600082612f865750600161071c565b81612f935750600061071c565b8160018114612fa95760028114612fb357612fcf565b600191505061071c565b60ff841115612fc457612fc4612d27565b50506001821b61071c565b5060208310610133831016604e8410600b8410161715612ff2575081810a61071c565b612ffc8383612f34565b806000190482111561301057613010612d27565b029392505050565b60006107198383612f77565b60008261304157634e487b7160e01b600052601260045260246000fd5b50049056fe736574526566657272616c456e74697479286279746573382c75696e7432353629757064617465506f736974696f6e732828696e7432342c696e7432342c75696e743132382c75696e743235362c696e743234295b335d2973657450726f746f636f6c506172616d6574657273282875696e74382c75696e74382c75696e74382c75696e7431365b325d2c75696e743235362c75696e743235362c696e7432342c696e7432342c696e7432342c75696e743235362c75696e743235362c75696e743235362c75696e743235362c75696e743235362c75696e743235362c75696e743235362c75696e74323536292973657450726f746f636f6c506172616d657465727343726561746f722828696e7432342c696e7432342c696e7432342c75696e743235362c75696e743235362c75696e743235362c75696e743235362c75696e743235362c75696e743235362929a2646970667358221220e56a512034f62b78568ac68f5a0233a93c54a3ad48f541f54d3b01347175348d64736f6c63430008170033","linkReferences":{"src/libraries/Utils.sol":{"Utils":[{"start":981,"length":20}]}}},"methodIdentifiers":{"afterPresale()":"899e8689","bumpFloor(uint256)":"f326ddc8","burnTokens(uint256)":"6d1b229d","exchangeHelper()":"2ba25014","getAccumulatedFees()":"5df45a37","getFunctionSelectors()":"fd896f9d","getPositions()":"80275860","getProtocolParameters()":"c58aad87","getReferralEntity(address)":"01cd1631","getTimeSinceLastMint()":"dee02ffa","getTotalCreatorEarnings()":"8cc71fc4","getTotalTeamEarnings()":"2df2982e","mintTokens(address,uint256)":"f0dda65c","pool()":"16f0115b","selfRepayLoans(uint256,uint256,uint256)":"e2379809","setManager(address)":"d0ebdbe7","setModelHelper(address)":"bf2e3dd2","setProtocolParameters((uint8,uint8,uint8,uint16[2],uint256,uint256,int24,int24,int24,uint256,uint256,uint256,uint256,uint256,uint256,uint256,uint256))":"c8b16a55","setProtocolParametersCreator((int24,int24,int24,uint256,uint256,uint256,uint256,uint256,uint256))":"e339d2b4","setReferralEntity(bytes8,uint256)":"259b8fd8","teamMultiSig()":"854567f1","updatePositions((int24,int24,uint128,uint256,int24)[3])":"95d7d0ad","vToken()":"9bb1a99c"},"id":139}