{"abi":[{"type":"function","name":"adaptiveSupply","inputs":[],"outputs":[{"name":"","type":"address","internalType":"address"}],"stateMutability":"view"},{"type":"function","name":"afterPresale","inputs":[],"outputs":[],"stateMutability":"nonpayable"},{"type":"function","name":"factory","inputs":[],"outputs":[{"name":"","type":"address","internalType":"address"}],"stateMutability":"view"},{"type":"function","name":"getCollateralAmount","inputs":[],"outputs":[{"name":"","type":"uint256","internalType":"uint256"}],"stateMutability":"view"},{"type":"function","name":"getExcessReserveToken1","inputs":[],"outputs":[{"name":"","type":"uint256","internalType":"uint256"}],"stateMutability":"view"},{"type":"function","name":"getFunctionSelectors","inputs":[],"outputs":[{"name":"","type":"bytes4[]","internalType":"bytes4[]"}],"stateMutability":"pure"},{"type":"function","name":"getPositions","inputs":[],"outputs":[{"name":"positions","type":"tuple[3]","internalType":"struct LiquidityPosition[3]","components":[{"name":"lowerTick","type":"int24","internalType":"int24"},{"name":"upperTick","type":"int24","internalType":"int24"},{"name":"liquidity","type":"uint128","internalType":"uint128"},{"name":"price","type":"uint256","internalType":"uint256"},{"name":"tickSpacing","type":"int24","internalType":"int24"}]}],"stateMutability":"view"},{"type":"function","name":"getProtocolAddresses","inputs":[],"outputs":[{"name":"","type":"tuple","internalType":"struct ProtocolAddresses","components":[{"name":"pool","type":"address","internalType":"address"},{"name":"vault","type":"address","internalType":"address"},{"name":"deployer","type":"address","internalType":"address"},{"name":"modelHelper","type":"address","internalType":"address"},{"name":"presaleContract","type":"address","internalType":"address"},{"name":"adaptiveSupplyController","type":"address","internalType":"address"}]}],"stateMutability":"view"},{"type":"function","name":"getProtocolParameters","inputs":[],"outputs":[{"name":"","type":"tuple","internalType":"struct ProtocolParameters","components":[{"name":"floorPercentage","type":"uint8","internalType":"uint8"},{"name":"anchorPercentage","type":"uint8","internalType":"uint8"},{"name":"idoPriceMultiplier","type":"uint8","internalType":"uint8"},{"name":"floorBips","type":"uint16[2]","internalType":"uint16[2]"},{"name":"shiftRatio","type":"uint256","internalType":"uint256"},{"name":"slideRatio","type":"uint256","internalType":"uint256"},{"name":"discoveryBips","type":"int24","internalType":"int24"},{"name":"shiftAnchorUpperBips","type":"int24","internalType":"int24"},{"name":"slideAnchorUpperBips","type":"int24","internalType":"int24"},{"name":"lowBalanceThresholdFactor","type":"uint256","internalType":"uint256"},{"name":"highBalanceThresholdFactor","type":"uint256","internalType":"uint256"},{"name":"inflationFee","type":"uint256","internalType":"uint256"},{"name":"loanFee","type":"uint256","internalType":"uint256"},{"name":"deployFee","type":"uint256","internalType":"uint256"},{"name":"presalePremium","type":"uint256","internalType":"uint256"},{"name":"selfRepayLtvTreshold","type":"uint256","internalType":"uint256"},{"name":"halfStep","type":"uint256","internalType":"uint256"}]}],"stateMutability":"view"},{"type":"function","name":"getStakingContract","inputs":[],"outputs":[{"name":"","type":"address","internalType":"address"}],"stateMutability":"view"},{"type":"function","name":"getUnderlyingBalances","inputs":[{"name":"liquidityType","type":"uint8","internalType":"enum LiquidityType"}],"outputs":[{"name":"","type":"int24","internalType":"int24"},{"name":"","type":"int24","internalType":"int24"},{"name":"","type":"uint256","internalType":"uint256"},{"name":"","type":"uint256","internalType":"uint256"}],"stateMutability":"view"},{"type":"function","name":"getVaultInfo","inputs":[],"outputs":[{"name":"vaultInfo","type":"tuple","internalType":"struct VaultInfo","components":[{"name":"liquidityRatio","type":"uint256","internalType":"uint256"},{"name":"circulatingSupply","type":"uint256","internalType":"uint256"},{"name":"spotPriceX96","type":"uint256","internalType":"uint256"},{"name":"anchorCapacity","type":"uint256","internalType":"uint256"},{"name":"floorCapacity","type":"uint256","internalType":"uint256"},{"name":"token0","type":"address","internalType":"address"},{"name":"token1","type":"address","internalType":"address"},{"name":"newFloor","type":"uint256","internalType":"uint256"},{"name":"totalInterest","type":"uint256","internalType":"uint256"},{"name":"initialized","type":"bool","internalType":"bool"},{"name":"stakingContract","type":"address","internalType":"address"},{"name":"sToken","type":"address","internalType":"address"}]}],"stateMutability":"view"},{"type":"function","name":"initialize","inputs":[{"name":"_factory","type":"address","internalType":"address"},{"name":"_owner","type":"address","internalType":"address"},{"name":"_deployer","type":"address","internalType":"address"},{"name":"_pool","type":"address","internalType":"address"},{"name":"_stakingContract","type":"address","internalType":"address"},{"name":"_presaleContract","type":"address","internalType":"address"},{"name":"_params","type":"tuple","internalType":"struct ProtocolParameters","components":[{"name":"floorPercentage","type":"uint8","internalType":"uint8"},{"name":"anchorPercentage","type":"uint8","internalType":"uint8"},{"name":"idoPriceMultiplier","type":"uint8","internalType":"uint8"},{"name":"floorBips","type":"uint16[2]","internalType":"uint16[2]"},{"name":"shiftRatio","type":"uint256","internalType":"uint256"},{"name":"slideRatio","type":"uint256","internalType":"uint256"},{"name":"discoveryBips","type":"int24","internalType":"int24"},{"name":"shiftAnchorUpperBips","type":"int24","internalType":"int24"},{"name":"slideAnchorUpperBips","type":"int24","internalType":"int24"},{"name":"lowBalanceThresholdFactor","type":"uint256","internalType":"uint256"},{"name":"highBalanceThresholdFactor","type":"uint256","internalType":"uint256"},{"name":"inflationFee","type":"uint256","internalType":"uint256"},{"name":"loanFee","type":"uint256","internalType":"uint256"},{"name":"deployFee","type":"uint256","internalType":"uint256"},{"name":"presalePremium","type":"uint256","internalType":"uint256"},{"name":"selfRepayLtvTreshold","type":"uint256","internalType":"uint256"},{"name":"halfStep","type":"uint256","internalType":"uint256"}]}],"outputs":[],"stateMutability":"nonpayable"},{"type":"function","name":"initializeLiquidity","inputs":[{"name":"positions","type":"tuple[3]","internalType":"struct LiquidityPosition[3]","components":[{"name":"lowerTick","type":"int24","internalType":"int24"},{"name":"upperTick","type":"int24","internalType":"int24"},{"name":"liquidity","type":"uint128","internalType":"uint128"},{"name":"price","type":"uint256","internalType":"uint256"},{"name":"tickSpacing","type":"int24","internalType":"int24"}]}],"outputs":[],"stateMutability":"nonpayable"},{"type":"function","name":"modelHelper","inputs":[],"outputs":[{"name":"","type":"address","internalType":"address"}],"stateMutability":"view"},{"type":"function","name":"pancakeV3MintCallback","inputs":[{"name":"amount0Owed","type":"uint256","internalType":"uint256"},{"name":"amount1Owed","type":"uint256","internalType":"uint256"},{"name":"data","type":"bytes","internalType":"bytes"}],"outputs":[],"stateMutability":"nonpayable"},{"type":"function","name":"postInit","inputs":[{"name":"_stakingContract","type":"address","internalType":"address"},{"name":"_tokenRepo","type":"address","internalType":"address"},{"name":"_sToken","type":"address","internalType":"address"},{"name":"_vToken","type":"address","internalType":"address"}],"outputs":[],"stateMutability":"nonpayable"},{"type":"function","name":"uniswapV3MintCallback","inputs":[{"name":"amount0Owed","type":"uint256","internalType":"uint256"},{"name":"amount1Owed","type":"uint256","internalType":"uint256"},{"name":"data","type":"bytes","internalType":"bytes"}],"outputs":[],"stateMutability":"nonpayable"},{"type":"event","name":"FloorUpdated","inputs":[{"name":"floorPrice","type":"uint256","indexed":false,"internalType":"uint256"},{"name":"floorCapacity","type":"uint256","indexed":false,"internalType":"uint256"}],"anonymous":false},{"type":"error","name":"AlreadyInitialized","inputs":[]},{"type":"error","name":"CallbackCaller","inputs":[]},{"type":"error","name":"InvalidPosition","inputs":[]},{"type":"error","name":"OnlyDeployer","inputs":[]},{"type":"error","name":"OnlyFactory","inputs":[]},{"type":"error","name":"OnlyInternalCalls","inputs":[]},{"type":"error","name":"ResolverNotSet","inputs":[]}],"bytecode":{"object":"0x608060405234801561001057600080fd5b50612f7d806100206000396000f3fe608060405234801561001057600080fd5b50600436106101365760003560e01c8063a1774da0116100b2578063d348799711610081578063f4a1a46d11610066578063f4a1a46d1461028d578063fd896f9d146102c8578063ffb938db146102dd57600080fd5b8063d3487997146101e4578063ef5ddb311461028557600080fd5b8063a1774da0146101f7578063a3e44b3314610260578063c45a015514610268578063c58aad871461027057600080fd5b80637fd762af11610109578063899e8689116100ee578063899e8689146101b75780638e68dce4146101bf57806399eee9d0146101e457600080fd5b80637fd762af1461018f57806380275860146101a257600080fd5b80632db5bbb11461013b578063315deeaa146101505780634afb415c146101675780637f98aa711461017a575b600080fd5b61014e610149366004612242565b6102e5565b005b6005545b6040519081526020015b60405180910390f35b61014e610175366004612457565b6103e2565b6101826109d1565b60405161015e91906125ee565b61014e61019d3660046126a7565b610b45565b6101aa610d54565b60405161015e919061277d565b61014e610e3b565b6019546001600160a01b03165b6040516001600160a01b03909116815260200161015e565b61014e6101f23660046127ef565b610f70565b6101ff6111ac565b60405161015e9190600060c0820190506001600160a01b038084511683528060208501511660208401528060408501511660408401528060608501511660608401528060808501511660808401528060a08501511660a08401525092915050565b6101cc611253565b6101cc6113f3565b610278611549565b60405161015e9190612896565b6101cc611676565b6102a061029b3660046129a2565b6117f0565b60408051600295860b81529390940b602084015292820152606081019190915260800161015e565b6102d06118a5565b60405161015e91906129ca565b610154611f34565b6102ed6113f3565b6001600160a01b0316336001600160a01b03161461031e57604051630636a15760e11b815260040160405180910390fd5b60175460ff16156103415760405162dc149f60e41b815260040160405180910390fd5b601980546001600160a01b039586166001600160a01b031991821617909155601d8054948616948216949094179093556020805492851692841692909217909155601e805491909316911617905560178054600280547fffffffffffffffffffff00ffffffffffffffffffffffffffffffffffffffffff16750100000000000000000000000000000000000000000017905561010161ffff19909116179055565b6103ea6113f3565b6001600160a01b0316336001600160a01b03161461041b57604051630636a15760e11b815260040160405180910390fd5b7f69730368e6694620030103ebb8c2fe0f33ca206057d7fbee6e88a9161a059d29547f69730368e6694620030103ebb8c2fe0f33ca206057d7fbee6e88a9161a059d24906001600160a01b031661049e576040517fd091175000000000000000000000000000000000000000000000000000000000815260040160405180910390fd5b6005810154600280546001600160a01b039283166001600160a01b031991821617909155602e80547fffffffffffff0000000000000000000000000000000000000000ffffffffffff16600160301b89851681029190911791829055600080549093168c85161790925560408051630dfe168160e01b815290519290910490921691630dfe16819160048083019260209291908290030181865afa15801561054a573d6000803e3d6000fd5b505050506040513d601f19601f8201168201806040525081019061056e9190612a23565b602c80546001600160a01b0319166001600160a01b03928316179055602e54604080517fd21220a70000000000000000000000000000000000000000000000000000000081529051600160301b9092049092169163d21220a79160048083019260209291908290030181865afa1580156105ec573d6000803e3d6000fd5b505050506040513d601f19601f820116820180604052508101906106109190612a23565b602d80546001600160a01b0319166001600160a01b03928316179055602e54604080517fd0c93a7c0000000000000000000000000000000000000000000000000000000081529051600160301b9092049092169163d0c93a7c9160048083019260209291908290030181865afa15801561068e573d6000803e3d6000fd5b505050506040513d601f19601f820116820180604052508101906106b29190612a40565b602e805462ffffff9290921663010000000265ffffff00000019909216919091179055601780546000602b8190556101808501516006805460ff90921660ff199092169190911790556007819055601a80546001600160a01b038881166001600160a01b031990921691909117909155600591909155881662010000027fffffffffffffffffffff0000000000000000000000000000000000000000000090911617905561075e611253565b601880546001600160a01b03929092166001600160a01b03199092169190911790558151600a80546020850151604086015160ff908116620100000262ff0000199282166101000261ffff199094169190951617919091171691909117815560608301518391906107d390600b906002612080565b506080820151600282015560a0820151600382015560c08201516004808301805460e086015161010087015162ffffff95861665ffffffffffff19909316929092176301000000918616919091021768ffffff0000000000001916600160301b94909116840217905561012084015160058401556101408401516006840155610160840151600784015561018084015160088401556101a084015160098401556101c0840151600a8401556101e0840151600b84015561020090930151600c90920191909155600180546001600160a01b0319166001600160a01b038b81169190911790915530600090815260346020908152604091829020805460ff19169055602e548251630dfe168160e01b8152925194900490921693630dfe16819382820193929091908290030181865afa158015610913573d6000803e3d6000fd5b505050506040513d601f19601f820116820180604052508101906109379190612a23565b6040517f095ea7b30000000000000000000000000000000000000000000000000000000081526001600160a01b0388811660048301526000196024830152919091169063095ea7b3906044016020604051808303816000875af11580156109a2573d6000803e3d6000fd5b505050506040513d601f19601f820116820180604052508101906109c69190612a6d565b505050505050505050565b610a5b604051806101800160405280600081526020016000815260200160008152602001600081526020016000815260200160006001600160a01b0316815260200160006001600160a01b03168152602001600081526020016000815260200160001515815260200160006001600160a01b0316815260200160006001600160a01b031681525090565b610a63611253565b602e546040517f8a3fecc90000000000000000000000000000000000000000000000000000000081526001600160a01b03600160301b90920482166004820152306024820152602c5482166044820152602d5482166064820152911690638a3fecc99060840161018060405180830381865afa158015610ae7573d6000803e3d6000fd5b505050506040513d601f19601f82011682018060405250810190610b0b9190612a88565b60075461010082015260175460ff1615156101208201526019546001600160a01b0390811661014083015260205416610160820152919050565b6017546201000090046001600160a01b03163314610b8f576040517f618bbdd500000000000000000000000000000000000000000000000000000000815260040160405180910390fd5b60175460ff1615610bb25760405162dc149f60e41b815260040160405180910390fd5b8051604001516001600160801b03161580610bdc57506020810151604001516001600160801b0316155b80610bf5575060408082015101516001600160801b0316155b15610c2c576040517fce7e065e00000000000000000000000000000000000000000000000000000000815260040160405180910390fd5b805180516021805460208085015160408087015162ffffff96871665ffffffffffff199586161763010000009388168402177fffffffffffffffffffff00000000000000000000000000000000ffffffffffff908116600160301b6001600160801b039384168102919091179097556060808a01516022556080998a01516023805462ffffff19908116928c16929092179055868c0151805160248054838b0151848a0151938f16918d1691909117908e168a021786169187168c02919091179055808301516025558b0151602680548316918c169190911790559a8401518051602780549883015196830151918c169890991697909717948a1690950293909317169316909402919091179091559081015160285590910151602980549093169116179055565b610d5c612116565b506040805161010081018252602154600281810b60608085019182526301000000808504840b6080808801919091526001600160801b03600160301b96879004811660a0808a019190915260225460c08a0152602354870b60e08a015294885288518086018a5260245480880b8252848104880b602083810191909152908990048316828c015260255482870152602654880b82850152808a019190915289519586018a5260275480880b8752938404870b9086015295909104909416828701526028549082015260295490910b918101919091529181019190915290565b601a546001600160a01b03163314610e7f576040517f9cfb4b0800000000000000000000000000000000000000000000000000000000815260040160405180910390fd5b6000546040517f3597b4b60000000000000000000000000000000000000000000000000000000081523060048201526001600160a01b0390911690637d19a2cb908290633597b4b690602401600060405180830381865afa158015610ee8573d6000803e3d6000fd5b505050506040513d6000823e601f3d908101601f19168201604052610f109190810190612bea565b61012001516040516001600160e01b031960e084901b1681526001600160a01b039091166004820152602401600060405180830381600087803b158015610f5657600080fd5b505af1158015610f6a573d6000803e3d6000fd5b50505050565b602e54600160301b90046001600160a01b03163314610fbb576040517f916efb2200000000000000000000000000000000000000000000000000000000815260040160405180910390fd5b602c546040516370a0823160e01b81523060048201526000916001600160a01b0316906370a0823190602401602060405180830381865afa158015611004573d6000803e3d6000fd5b505050506040513d601f19601f820116820180604052508101906110289190612d0c565b602d546040516370a0823160e01b81523060048201529192506000916001600160a01b03909116906370a0823190602401602060405180830381865afa158015611076573d6000803e3d6000fd5b505050506040513d601f19601f8201168201806040525081019061109a9190612d0c565b905085821061112057851561112057602c5460405163a9059cbb60e01b8152336004820152602481018890526001600160a01b039091169063a9059cbb906044016020604051808303816000875af11580156110fa573d6000803e3d6000fd5b505050506040513d601f19601f8201168201806040525081019061111e9190612a6d565b505b8481106111a45784156111a457602d5460405163a9059cbb60e01b8152336004820152602481018790526001600160a01b039091169063a9059cbb906044016020604051808303816000875af115801561117e573d6000803e3d6000fd5b505050506040513d601f19601f820116820180604052508101906111a29190612a6d565b505b505050505050565b6040805160c081018252600080825260208201819052918101829052606081018290526080810182905260a08101919091526040805160c081018252602e546001600160a01b03600160301b90910481168252306020830152601754620100009004169181019190915260608101611222611253565b6001600160a01b039081168252601a54166020820152604001611243611676565b6001600160a01b03169052919050565b60008061125e611fe0565b90506000816001600160a01b031663197c6b2d3061129e6040518060400160405280600b81526020016a26b7b232b62432b63832b960a91b815250612021565b6040516001600160e01b031960e085901b1681526001600160a01b0390921660048301526024820152604401602060405180830381865afa1580156112e7573d6000803e3d6000fd5b505050506040513d601f19601f8201168201806040525081019061130b9190612a23565b90506001600160a01b0381166113ed57816001600160a01b031663dacb2d016113566040518060400160405280600b81526020016a26b7b232b62432b63832b960a91b815250612021565b6040518263ffffffff1660e01b81526004016113a9918152604060208201819052600e908201527f6e6f204d6f64656c48656c706572000000000000000000000000000000000000606082015260800190565b602060405180830381865afa1580156113c6573d6000803e3d6000fd5b505050506040513d601f19601f820116820180604052508101906113ea9190612a23565b90505b92915050565b6000806113fe611fe0565b90506000816001600160a01b031663197c6b2d3061143e6040518060400160405280600b81526020016a4e6f6d61466163746f727960a81b815250612021565b6040516001600160e01b031960e085901b1681526001600160a01b0390921660048301526024820152604401602060405180830381865afa158015611487573d6000803e3d6000fd5b505050506040513d601f19601f820116820180604052508101906114ab9190612a23565b90506001600160a01b0381166113ed57816001600160a01b031663dacb2d016114f66040518060400160405280600b81526020016a4e6f6d61466163746f727960a81b815250612021565b6040518263ffffffff1660e01b81526004016113a9918152604060208201819052600a908201527f6e6f20466163746f727900000000000000000000000000000000000000000000606082015260800190565b611551612163565b6040805161022081018252600a805460ff8082168452610100820481166020850152620100009091041682840152825180840193849052919290916060840191600b90600290826000855b82829054906101000a900461ffff1661ffff168152602001906002019060208260010104928301926001038202915080841161159c57505050928452505050600282810154602083015260038301546040830152600483015480820b606084015263010000008104820b6080840152600160301b9004900b60a0820152600582015460c0820152600682015460e0820152600782015461010082015260088201546101208201526009820154610140820152600a820154610160820152600b820154610180820152600c909101546101a090910152919050565b600080611681611fe0565b90506000816001600160a01b031663197c6b2d306116d36040518060400160405280600e81526020017f4164617074697665537570706c79000000000000000000000000000000000000815250612021565b6040516001600160e01b031960e085901b1681526001600160a01b0390921660048301526024820152604401602060405180830381865afa15801561171c573d6000803e3d6000fd5b505050506040513d601f19601f820116820180604052508101906117409190612a23565b90506001600160a01b0381166113ed57816001600160a01b031663dacb2d0161179d6040518060400160405280600e81526020017f4164617074697665537570706c79000000000000000000000000000000000000815250612021565b6040518263ffffffff1660e01b81526004016113a99181526040602082018190526011908201527f6e6f204164617074697665537570706c79000000000000000000000000000000606082015260800190565b6000806000806117fe611253565b602e546040517f2f10d9760000000000000000000000000000000000000000000000000000000081526001600160a01b0392831692632f10d9769261185592600160301b9091049091169030908a90600401612d25565b608060405180830381865afa158015611872573d6000803e3d6000fd5b505050506040513d601f19601f820116820180604052508101906118969190612d69565b93509350935093509193509193565b60408051600f808252610200820190925260609160009190602082016101e080368337505060408051808201909152600e81527f6765745661756c74496e666f28290000000000000000000000000000000000006020909101525080519091507f7f98aa714a3525a7c26e3db0020339a51582b26f1979450e3cd048c68a8cda4b90829060009061193857611938612b44565b60200260200101906001600160e01b03191690816001600160e01b0319168152505060405180610100016040528060c38152602001612df260c39139805190602001208160018151811061198e5761198e612b44565b60200260200101906001600160e01b03191690816001600160e01b031916815250506040518060600160405280603b8152602001612eb5603b913980519060200120816002815181106119e3576119e3612b44565b60200260200101906001600160e01b03191690816001600160e01b031916815250506040518060600160405280602c8152602001612f1c602c91398051906020012081600381518110611a3857611a38612b44565b6001600160e01b031990921660209283029190910182015260408051808201909152601c81527f676574556e6465726c79696e6742616c616e6365732875696e7438290000000091015280517ff4a1a46d9751fea7e3c0d062d30718ab082c893574174cf12af66e299ce647f59082906004908110611ab957611ab9612b44565b6001600160e01b031990921660209283029190910182015260408051808201909152601881527f67657445786365737352657365727665546f6b656e312829000000000000000091015280517fffb938db9e30e82b807a6ab855c99d6aa577bd70313c73ac1cad97f6c8af88dd9082906005908110611b3a57611b3a612b44565b6001600160e01b031990921660209283029190910182015260408051808201909152601681527f67657450726f746f636f6c41646472657373657328290000000000000000000091015280517fa1774da0607326e7b68dddef0ef263fd071b35b63439913ee80d4e75e89b07839082906006908110611bbb57611bbb612b44565b60200260200101906001600160e01b03191690816001600160e01b031916815250506040518060600160405280602c8152602001612ef0602c91398051906020012081600781518110611c1057611c10612b44565b6001600160e01b031990921660209283029190910182015260408051808201909152600e81527f676574506f736974696f6e73282900000000000000000000000000000000000091015280517f80275860e94ae2352a6f96e7331d60fec5acb8be3449303acc2955074b0ae8919082906008908110611c9157611c91612b44565b6001600160e01b031990921660209283029190910182015260408051808201909152601581527f676574436f6c6c61746572616c416d6f756e742829000000000000000000000091015280517f315deeaaa77bb93e9c57a7a502d8026cdd3dadf8faa53374cabfc419585f37fd9082906009908110611d1257611d12612b44565b6001600160e01b031990921660209283029190910182015260408051808201909152601781527f67657450726f746f636f6c506172616d6574657273282900000000000000000091015280517fc58aad872b3b4ca1be02017b517aa3d4dc2cde8329ed50f2f7b5e8d426b87df8908290600a908110611d9357611d93612b44565b6001600160e01b031990921660209283029190910182015260408051808201909152600e81527f616674657250726573616c65282900000000000000000000000000000000000091015280517f899e8689d09c1013329814dcc3cd2004aa09d9c22649cb76a50b413c8cae4e1f908290600b908110611e1457611e14612b44565b6001600160e01b031990921660209283029190910182015260408051808201909152601481527f6765745374616b696e67436f6e7472616374282900000000000000000000000091015280517f8e68dce454c8255580b641ab55c443b078a51d43552eeddea36b3384fd8bf386908290600c908110611e9557611e95612b44565b6001600160e01b031990921660209283029190910182015260408051808201909152601981527f706f7374496e697428616464726573732c61646472657373290000000000000091015280517fc30a29b4be3c12d82019bed5bdd0277858695a084eafa8df93f4f696695a1f11908290600d908110611f1657611f16612b44565b6001600160e01b031990921660209283029190910190910152919050565b600080611f3f611253565b602e546040517f188b68460000000000000000000000000000000000000000000000000000000081526001600160a01b03600160301b90920482166004820152306024820152831515604482015291169063188b684690606401602060405180830381865afa158015611fb6573d6000803e3d6000fd5b505050506040513d601f19601f82011682018060405250810190611fda9190612d0c565b91505090565b6002546001600160a01b03168061201e57507f69730368e6694620030103ebb8c2fe0f33ca206057d7fbee6e88a9161a059d29546001600160a01b03165b90565b8051600090829082036120375750600092915050565b60208151111561204657600080fd5b602083015181519092505b60208110156120795761206581601f612dc7565b612070906008612dda565b50600101612051565b5050919050565b6001830191839082156121065791602002820160005b838211156120d657835183826101000a81548161ffff021916908361ffff1602179055509260200192600201602081600101049283019260010302612096565b80156121045782816101000a81549061ffff02191690556002016020816001010492830192600103026120d6565b505b506121129291506121f7565b5090565b60405180606001604052806003905b6040805160a0810182526000808252602080830182905292820181905260608201819052608082015282526000199092019101816121255790505090565b6040805161022081018252600080825260208201819052918101919091526060810161218d61220c565b81526020016000815260200160008152602001600060020b8152602001600060020b8152602001600060020b815260200160008152602001600081526020016000815260200160008152602001600081526020016000815260200160008152602001600081525090565b5b8082111561211257600081556001016121f8565b60405180604001604052806002906020820280368337509192915050565b6001600160a01b038116811461223f57600080fd5b50565b6000806000806080858703121561225857600080fd5b84356122638161222a565b935060208501356122738161222a565b925060408501356122838161222a565b915060608501356122938161222a565b939692955090935050565b634e487b7160e01b600052604160045260246000fd5b604051610220810167ffffffffffffffff811182821017156122d8576122d861229e565b60405290565b60405160a0810167ffffffffffffffff811182821017156122d8576122d861229e565b604051610180810167ffffffffffffffff811182821017156122d8576122d861229e565b604051610140810167ffffffffffffffff811182821017156122d8576122d861229e565b6040516060810167ffffffffffffffff811182821017156122d8576122d861229e565b604051601f8201601f1916810167ffffffffffffffff811182821017156123955761239561229e565b604052919050565b60ff8116811461223f57600080fd5b80356123b78161239d565b919050565b600082601f8301126123cd57600080fd5b6040516040810181811067ffffffffffffffff821117156123f0576123f061229e565b806040525080604084018581111561240757600080fd5b845b8181101561243257803561ffff811681146124245760008081fd5b835260209283019201612409565b509195945050505050565b8060020b811461223f57600080fd5b80356123b78161243d565b600080600080600080600087890361030081121561247457600080fd5b883561247f8161222a565b9750602089013561248f8161222a565b9650604089013561249f8161222a565b955060608901356124af8161222a565b945060808901356124bf8161222a565b935060a08901356124cf8161222a565b925061024060bf19820112156124e457600080fd5b506124ed6122b4565b6124f960c08a016123ac565b815261250760e08a016123ac565b60208201526125196101008a016123ac565b604082015261252c8a6101208b016123bc565b6060820152610160808a01356080830152610180808b013560a08401526101a0612557818d0161244c565b60c08501526101c061256a818e0161244c565b60e08601526101e061257d818f0161244c565b610100870152610200808f01356101208801526102208f01356101408801526102408f0135868801526102608f0135858801526102808f0135848801526102a08f0135838801526102c08f0135828801526102e08f0135818801525050505050508091505092959891949750929550565b600061018082019050825182526020830151602083015260408301516040830152606083015160608301526080830151608083015260a083015161263d60a08401826001600160a01b03169052565b5060c083015161265860c08401826001600160a01b03169052565b5060e08381015190830152610100808401519083015261012080840151151590830152610140808401516001600160a01b03908116918401919091526101609384015116929091019190915290565b60006101e08083850312156126bb57600080fd5b83601f8401126126ca57600080fd5b6126d2612349565b9083019080858311156126e457600080fd5b845b838110156127735760a081880312156126ff5760008081fd5b6127076122de565b81356127128161243d565b81526020828101356127238161243d565b828201526040838101356001600160801b03811681146127435760008081fd5b90830152606083810135908301526080808401356127608161243d565b908301529084529092019160a0016126e6565b5095945050505050565b6101e08101818360005b60038110156127e65781518051600290810b8552602080830151820b818701526040808401516001600160801b0316908701526060808401519087015260809283015190910b9185019190915260a09093019290910190600101612787565b50505092915050565b6000806000806060858703121561280557600080fd5b8435935060208501359250604085013567ffffffffffffffff8082111561282b57600080fd5b818701915087601f83011261283f57600080fd5b81358181111561284e57600080fd5b88602082850101111561286057600080fd5b95989497505060200194505050565b8060005b6002811015610f6a57815161ffff16845260209384019390910190600101612873565b815160ff168152610240810160208301516128b6602084018260ff169052565b5060408301516128cb604084018260ff169052565b5060608301516128de606084018261286f565b50608083015160a083015260a083015160c083015260c083015161290760e084018260020b9052565b5060e083015161010061291e8185018360020b9052565b84015190506101206129348482018360020b9052565b8401516101408481019190915284015161016080850191909152840151610180808501919091528401516101a0808501919091528401516101c0808501919091528401516101e080850191909152840151610200808501919091529093015161022090920191909152919050565b6000602082840312156129b457600080fd5b8135600381106129c357600080fd5b9392505050565b6020808252825182820181905260009190848201906040850190845b81811015612a0c5783516001600160e01b031916835292840192918401916001016129e6565b50909695505050505050565b80516123b78161222a565b600060208284031215612a3557600080fd5b81516129c38161222a565b600060208284031215612a5257600080fd5b81516129c38161243d565b805180151581146123b757600080fd5b600060208284031215612a7f57600080fd5b6129c382612a5d565b60006101808284031215612a9b57600080fd5b612aa3612301565b8251815260208301516020820152604083015160408201526060830151606082015260808301516080820152612adb60a08401612a18565b60a0820152612aec60c08401612a18565b60c082015260e083015160e0820152610100808401518183015250610120612b15818501612a5d565b90820152610140612b27848201612a18565b90820152610160612b39848201612a18565b908201529392505050565b634e487b7160e01b600052603260045260246000fd5b600082601f830112612b6b57600080fd5b815167ffffffffffffffff811115612b8557612b8561229e565b6020612b99601f8301601f1916820161236c565b8281528582848701011115612bad57600080fd5b60005b83811015612bcb578581018301518282018401528201612bb0565b506000928101909101919091529392505050565b80516123b78161239d565b600060208284031215612bfc57600080fd5b815167ffffffffffffffff80821115612c1457600080fd5b908301906101408286031215612c2957600080fd5b612c31612325565b825182811115612c4057600080fd5b612c4c87828601612b5a565b825250602083015182811115612c6157600080fd5b612c6d87828601612b5a565b602083015250612c7f60408401612bdf565b6040820152612c9060608401612a18565b6060820152612ca160808401612a18565b6080820152612cb260a08401612a18565b60a0820152612cc360c08401612a18565b60c0820152612cd460e08401612a18565b60e08201526101009150612ce9828401612a18565b828201526101209150612cfd828401612a18565b91810191909152949350505050565b600060208284031215612d1e57600080fd5b5051919050565b6001600160a01b038481168252831660208201526060810160038310612d5b57634e487b7160e01b600052602160045260246000fd5b826040830152949350505050565b60008060008060808587031215612d7f57600080fd5b8451612d8a8161243d565b6020860151909450612d9b8161243d565b6040860151606090960151949790965092505050565b634e487b7160e01b600052601160045260246000fd5b818103818111156113ed576113ed612db1565b80820281158282048414176113ed576113ed612db156fe696e697469616c697a6528616464726573732c616464726573732c616464726573732c616464726573732c616464726573732c616464726573732c616464726573732c2875696e74382c75696e74382c75696e74382c75696e7431365b325d2c75696e743235362c75696e743235362c696e7432342c696e7432342c696e7432342c75696e743235362c75696e743235362c75696e743235362c75696e743235362c75696e743235362c75696e743235362c75696e743235362c75696e743235362929696e697469616c697a654c69717569646974792828696e7432342c696e7432342c75696e743132382c75696e743235362c696e743234295b335d2970616e63616b6556334d696e7443616c6c6261636b2875696e743235362c75696e743235362c627974657329756e697377617056334d696e7443616c6c6261636b2875696e743235362c75696e743235362c627974657329a2646970667358221220e32125af51bd352280eaae4a531a0613c87433c6ca37dc3648d5f2865815a38064736f6c63430008170033","linkReferences":{}},"methodIdentifiers":{"adaptiveSupply()":"ef5ddb31","afterPresale()":"899e8689","factory()":"c45a0155","getCollateralAmount()":"315deeaa","getExcessReserveToken1()":"ffb938db","getFunctionSelectors()":"fd896f9d","getPositions()":"80275860","getProtocolAddresses()":"a1774da0","getProtocolParameters()":"c58aad87","getStakingContract()":"8e68dce4","getUnderlyingBalances(uint8)":"f4a1a46d","getVaultInfo()":"7f98aa71","initialize(address,address,address,address,address,address,(uint8,uint8,uint8,uint16[2],uint256,uint256,int24,int24,int24,uint256,uint256,uint256,uint256,uint256,uint256,uint256,uint256))":"4afb415c","initializeLiquidity((int24,int24,uint128,uint256,int24)[3])":"7fd762af","modelHelper()":"a3e44b33","pancakeV3MintCallback(uint256,uint256,bytes)":"99eee9d0","postInit(address,address,address,address)":"2db5bbb1","uniswapV3MintCallback(uint256,uint256,bytes)":"d3487997"},"id":144}