{"abi":[{"type":"constructor","inputs":[{"name":"nomaFactoryAddress","type":"address","internalType":"address"},{"name":"wrappedMonAddress","type":"address","internalType":"address"}],"stateMutability":"nonpayable"},{"type":"receive","stateMutability":"payable"},{"type":"function","name":"WMON","inputs":[],"outputs":[{"name":"","type":"address","internalType":"address"}],"stateMutability":"view"},{"type":"function","name":"buyTokens","inputs":[{"name":"vaultAddress","type":"address","internalType":"address"},{"name":"pool","type":"address","internalType":"address"},{"name":"price","type":"uint256","internalType":"uint256"},{"name":"minAmount","type":"uint256","internalType":"uint256"},{"name":"receiver","type":"address","internalType":"address"},{"name":"isLimitOrder","type":"bool","internalType":"bool"},{"name":"slippageTolerance","type":"uint256","internalType":"uint256"},{"name":"referralCode","type":"bytes8","internalType":"bytes8"}],"outputs":[],"stateMutability":"payable"},{"type":"function","name":"buyTokensWETH","inputs":[{"name":"vaultAddress","type":"address","internalType":"address"},{"name":"pool","type":"address","internalType":"address"},{"name":"price","type":"uint256","internalType":"uint256"},{"name":"amount","type":"uint256","internalType":"uint256"},{"name":"minAmount","type":"uint256","internalType":"uint256"},{"name":"receiver","type":"address","internalType":"address"},{"name":"isLimitOrder","type":"bool","internalType":"bool"},{"name":"slippageTolerance","type":"uint256","internalType":"uint256"},{"name":"referralCode","type":"bytes8","internalType":"bytes8"}],"outputs":[],"stateMutability":"nonpayable"},{"type":"function","name":"nomaFactory","inputs":[],"outputs":[{"name":"","type":"address","internalType":"address"}],"stateMutability":"view"},{"type":"function","name":"pancakeV3SwapCallback","inputs":[{"name":"amount0Delta","type":"int256","internalType":"int256"},{"name":"amount1Delta","type":"int256","internalType":"int256"},{"name":"data","type":"bytes","internalType":"bytes"}],"outputs":[],"stateMutability":"nonpayable"},{"type":"function","name":"sellTokens","inputs":[{"name":"vaultAddress","type":"address","internalType":"address"},{"name":"pool","type":"address","internalType":"address"},{"name":"price","type":"uint256","internalType":"uint256"},{"name":"amount","type":"uint256","internalType":"uint256"},{"name":"minAmount","type":"uint256","internalType":"uint256"},{"name":"receiver","type":"address","internalType":"address"},{"name":"isLimitOrder","type":"bool","internalType":"bool"},{"name":"slippageTolerance","type":"uint256","internalType":"uint256"},{"name":"referralCode","type":"bytes8","internalType":"bytes8"}],"outputs":[],"stateMutability":"nonpayable"},{"type":"function","name":"sellTokensETH","inputs":[{"name":"vaultAddress","type":"address","internalType":"address"},{"name":"pool","type":"address","internalType":"address"},{"name":"price","type":"uint256","internalType":"uint256"},{"name":"amount","type":"uint256","internalType":"uint256"},{"name":"minAmount","type":"uint256","internalType":"uint256"},{"name":"receiver","type":"address","internalType":"address"},{"name":"isLimitOrder","type":"bool","internalType":"bool"},{"name":"slippageTolerance","type":"uint256","internalType":"uint256"},{"name":"referralCode","type":"bytes8","internalType":"bytes8"}],"outputs":[],"stateMutability":"nonpayable"},{"type":"function","name":"tokenInfo","inputs":[],"outputs":[{"name":"token0","type":"address","internalType":"address"},{"name":"token1","type":"address","internalType":"address"}],"stateMutability":"view"},{"type":"function","name":"uniswapV3SwapCallback","inputs":[{"name":"amount0Delta","type":"int256","internalType":"int256"},{"name":"amount1Delta","type":"int256","internalType":"int256"},{"name":"data","type":"bytes","internalType":"bytes"}],"outputs":[],"stateMutability":"nonpayable"},{"type":"event","name":"BoughtTokensETH","inputs":[{"name":"who","type":"address","indexed":false,"internalType":"address"},{"name":"amount","type":"uint256","indexed":false,"internalType":"uint256"}],"anonymous":false},{"type":"event","name":"BoughtTokensWETH","inputs":[{"name":"who","type":"address","indexed":false,"internalType":"address"},{"name":"amount","type":"uint256","indexed":false,"internalType":"uint256"}],"anonymous":false},{"type":"event","name":"SoldTokensETH","inputs":[{"name":"who","type":"address","indexed":false,"internalType":"address"},{"name":"amount","type":"uint256","indexed":false,"internalType":"uint256"}],"anonymous":false},{"type":"event","name":"SoldTokensWETH","inputs":[{"name":"who","type":"address","indexed":false,"internalType":"address"},{"name":"amount","type":"uint256","indexed":false,"internalType":"uint256"}],"anonymous":false},{"type":"error","name":"InvalidAmount","inputs":[]},{"type":"error","name":"InvalidDecimals","inputs":[]},{"type":"error","name":"InvalidSwap","inputs":[]},{"type":"error","name":"InvalidSwap","inputs":[]},{"type":"error","name":"NoETHSent","inputs":[]},{"type":"error","name":"NoToken0Received","inputs":[]},{"type":"error","name":"NoTokensExchanged","inputs":[]},{"type":"error","name":"PriceImpactTooHigh","inputs":[]},{"type":"error","name":"SlippageExceeded","inputs":[]}],"bytecode":{"object":"0x6080604052600280546001600160a01b03199081169091556003805490911690553480156200002d57600080fd5b5060405162002c7d38038062002c7d83398101604081905262000050916200009f565b600380546001600160a01b039384166001600160a01b03199182161790915560028054929093169116179055620000d7565b80516001600160a01b03811681146200009a57600080fd5b919050565b60008060408385031215620000b357600080fd5b620000be8362000082565b9150620000ce6020840162000082565b90509250929050565b612b9680620000e76000396000f3fe60806040526004361061009a5760003560e01c806399a5c9f411610069578063f1435d291161004e578063f1435d29146101ac578063fa461e33146100c8578063fcd7372d146101cc57600080fd5b806399a5c9f414610154578063e73a2a7a1461017457600080fd5b806318781c42146100a657806323a69e75146100c857806344d9652d146100e85780636addb6631461010857600080fd5b366100a157005b600080fd5b3480156100b257600080fd5b506100c66100c13660046123f5565b6101df565b005b3480156100d457600080fd5b506100c66100e3366004612489565b610600565b3480156100f457600080fd5b506100c66101033660046123f5565b6107d2565b34801561011457600080fd5b5060005460015461012f916001600160a01b03908116911682565b604080516001600160a01b039384168152929091166020830152015b60405180910390f35b34801561016057600080fd5b506100c661016f3660046123f5565b610da9565b34801561018057600080fd5b50600354610194906001600160a01b031681565b6040516001600160a01b03909116815260200161014b565b3480156101b857600080fd5b50600254610194906001600160a01b031681565b6100c66101da366004612509565b611278565b600354600160a01b900460ff161561023e5760405162461bcd60e51b815260206004820152601e60248201527f45786368616e676548656c7065723a205265656e7472616e742063616c6c000060448201526064015b60405180910390fd5b6003805460ff60a01b1916600160a01b1790558561026f5760405163162908e360e11b815260040160405180910390fd5b6000886001600160a01b031663d0c93a7c6040518163ffffffff1660e01b8152600401602060405180830381865afa1580156102af573d6000803e3d6000fd5b505050506040513d601f19601f820116820180604052508101906102d391906125a5565b905060405180604001604052808a6001600160a01b0316630dfe16816040518163ffffffff1660e01b8152600401602060405180830381865afa15801561031e573d6000803e3d6000fd5b505050506040513d601f19601f8201168201806040525081019061034291906125c0565b6001600160a01b031681526020018a6001600160a01b031663d21220a76040518163ffffffff1660e01b8152600401602060405180830381865afa15801561038e573d6000803e3d6000fd5b505050506040513d601f19601f820116820180604052508101906103b291906125c0565b6001600160a01b039081169091528151600080549183166001600160a01b031992831617905560209092015160018054919092169216821790556040516323b872dd60e01b8152336004820152306024820152604481018990526323b872dd906064016020604051808303816000875af1158015610434573d6000803e3d6000fd5b505050506040513d601f19601f8201168201806040525081019061045891906125dd565b506001546040805163313ce56760e01b815290516000926001600160a01b03169163313ce5679160048083019260209291908290030181865afa1580156104a3573d6000803e3d6000fd5b505050506040513d601f19601f820116820180604052508101906104c791906125fa565b60408051610160810182526001600160a01b03808f1682528d8116602083015260008054821693830193909352600154811660608301528916608082015260a0810182905260c081018b905287151560e082015291925090610100810161052f8c8686611850565b6001600160a01b031681526020018681526020018981525090506000806105558361186d565b915091506000821261057a57604051631115766760e01b815260040160405180910390fd5b6001600160c01b0319861615610595576105958d8783611c78565b7f97c6088a966cd0ebbedc701f66399b8b51aa01a317df60217d5867cd397c66f58960ff84901d808501185b604080516001600160a01b03909316835260208301919091520160405180910390a150506003805460ff60a01b19169055505050505050505050505050565b60035460405163abd4e2d160e01b81523360048201526000916001600160a01b03169063abd4e2d190602401602060405180830381865afa158015610649573d6000803e3d6000fd5b505050506040513d601f19601f8201168201806040525081019061066d91906125c0565b90506001600160a01b03811661069657604051631115766760e01b815260040160405180910390fd5b600085131561071a5760005460405163a9059cbb60e01b8152336004820152602481018790526001600160a01b039091169063a9059cbb906044016020604051808303816000875af11580156106f0573d6000803e3d6000fd5b505050506040513d601f19601f8201168201806040525081019061071491906125dd565b5061079a565b600084131561079a5760015460405163a9059cbb60e01b8152336004820152602481018690526001600160a01b039091169063a9059cbb906044016020604051808303816000875af1158015610774573d6000803e3d6000fd5b505050506040513d601f19601f8201168201806040525081019061079891906125dd565b505b5050604080518082019091526000808252602090910181905280546001600160a01b0319908116909155600180549091169055505050565b600354600160a01b900460ff161561082c5760405162461bcd60e51b815260206004820152601e60248201527f45786368616e676548656c7065723a205265656e7472616e742063616c6c00006044820152606401610235565b6003805460ff60a01b1916600160a01b1790558561085d5760405163162908e360e11b815260040160405180910390fd5b6000886001600160a01b031663d0c93a7c6040518163ffffffff1660e01b8152600401602060405180830381865afa15801561089d573d6000803e3d6000fd5b505050506040513d601f19601f820116820180604052508101906108c191906125a5565b905060405180604001604052808a6001600160a01b0316630dfe16816040518163ffffffff1660e01b8152600401602060405180830381865afa15801561090c573d6000803e3d6000fd5b505050506040513d601f19601f8201168201806040525081019061093091906125c0565b6001600160a01b031681526020018a6001600160a01b031663d21220a76040518163ffffffff1660e01b8152600401602060405180830381865afa15801561097c573d6000803e3d6000fd5b505050506040513d601f19601f820116820180604052508101906109a091906125c0565b6001600160a01b039081169091528151600080549183166001600160a01b03199283168117909155602090930151600180549190931691161790556040516323b872dd60e01b81523360048201523060248201526044810189905281906323b872dd906064016020604051808303816000875af1158015610a25573d6000803e3d6000fd5b505050506040513d601f19601f82011682018060405250810190610a4991906125dd565b5060006040518061016001604052808d6001600160a01b031681526020018c6001600160a01b031681526020016000800160009054906101000a90046001600160a01b03166001600160a01b03168152602001600060010160009054906101000a90046001600160a01b03166001600160a01b03168152602001886001600160a01b031681526020016001151581526020018a81526020018715158152602001610b6c8c866000800160009054906101000a90046001600160a01b03166001600160a01b031663313ce5676040518163ffffffff1660e01b8152600401602060405180830381865afa158015610b43573d6000803e3d6000fd5b505050506040513d601f19601f82011682018060405250810190610b6791906125fa565b611850565b6001600160a01b03168152602001868152602001898152509050600080610b928361186d565b9150915060008112610bb757604051631115766760e01b815260040160405180910390fd5b6000610bc3838d612633565b6040516370a0823160e01b81523060048201526001600160a01b038716906370a0823190602401602060405180830381865afa158015610c07573d6000803e3d6000fd5b505050506040513d601f19601f82011682018060405250810190610c2b9190612646565b11610c9d576040516370a0823160e01b81523060048201526001600160a01b038616906370a0823190602401602060405180830381865afa158015610c74573d6000803e3d6000fd5b505050506040513d601f19601f82011682018060405250810190610c989190612646565b610ca7565b610ca7838d612633565b90508015610d225760405163a9059cbb60e01b8152336004820152602481018290526001600160a01b0386169063a9059cbb906044016020604051808303816000875af1158015610cfc573d6000803e3d6000fd5b505050506040513d601f19601f82011682018060405250810190610d2091906125dd565b505b6001600160c01b0319871615610d3d57610d3d8e8884611c78565b7f9169c0979d20b8ac8954a8c6315813566dcd0f7156f9586b659f8b2c45a21c718a60ff84901d808501185b604080516001600160a01b03909316835260208301919091520160405180910390a150506003805460ff60a01b1916905550505050505050505050505050565b600354600160a01b900460ff1615610e035760405162461bcd60e51b815260206004820152601e60248201527f45786368616e676548656c7065723a205265656e7472616e742063616c6c00006044820152606401610235565b6003805460ff60a01b1916600160a01b17905585610e895760405162461bcd60e51b815260206004820152602d60248201527f45786368616e676548656c7065723a20416d6f756e74206d757374206265206760448201527f726561746572207468616e2030000000000000000000000000000000000000006064820152608401610235565b6000886001600160a01b031663d0c93a7c6040518163ffffffff1660e01b8152600401602060405180830381865afa158015610ec9573d6000803e3d6000fd5b505050506040513d601f19601f82011682018060405250810190610eed91906125a5565b905060405180604001604052808a6001600160a01b0316630dfe16816040518163ffffffff1660e01b8152600401602060405180830381865afa158015610f38573d6000803e3d6000fd5b505050506040513d601f19601f82011682018060405250810190610f5c91906125c0565b6001600160a01b031681526020018a6001600160a01b031663d21220a76040518163ffffffff1660e01b8152600401602060405180830381865afa158015610fa8573d6000803e3d6000fd5b505050506040513d601f19601f82011682018060405250810190610fcc91906125c0565b6001600160a01b039081169091528151600080549183166001600160a01b03199283168117909155602090930151600180549190931691161790556040516323b872dd60e01b8152336004820152306024820152604481018990526323b872dd906064016020604051808303816000875af115801561104f573d6000803e3d6000fd5b505050506040513d601f19601f8201168201806040525081019061107391906125dd565b5060408051610160810182526001600160a01b03808d1682528b811660208084019190915260008054831684860181905260018054909416606086015230608086015260a085019390935260c084018c905288151560e0850152845163313ce56760e01b815294519094610100850193611112938f93899363313ce5679260048083019391928290030181865afa158015610b43573d6000803e3d6000fd5b6001600160a01b031681526020018581526020018881525090506000806111388361186d565b915091506000811261118c5760405162461bcd60e51b815260206004820152601c60248201527f45786368616e676548656c7065723a20496e76616c69642073776170000000006044820152606401610235565b60006111978261265f565b600254604051632e1a7d4d60e01b8152600481018390529192506001600160a01b031690632e1a7d4d90602401600060405180830381600087803b1580156111de57600080fd5b505af11580156111f2573d6000803e3d6000fd5b50506040516001600160a01b038c16925083156108fc02915083906000818181858888f1935050505015801561122c573d6000803e3d6000fd5b506001600160c01b0319861615611248576112488d8784611c78565b7f9169c0979d20b8ac8954a8c6315813566dcd0f7156f9586b659f8b2c45a21c718960ff84901d808501186105c1565b600354600160a01b900460ff16156112d25760405162461bcd60e51b815260206004820152601e60248201527f45786368616e676548656c7065723a205265656e7472616e742063616c6c00006044820152606401610235565b6003805460ff60a01b1916600160a01b1790553461131c576040517f16f98f8600000000000000000000000000000000000000000000000000000000815260040160405180910390fd5b6000876001600160a01b031663d0c93a7c6040518163ffffffff1660e01b8152600401602060405180830381865afa15801561135c573d6000803e3d6000fd5b505050506040513d601f19601f8201168201806040525081019061138091906125a5565b90506040518060400160405280896001600160a01b0316630dfe16816040518163ffffffff1660e01b8152600401602060405180830381865afa1580156113cb573d6000803e3d6000fd5b505050506040513d601f19601f820116820180604052508101906113ef91906125c0565b6001600160a01b03168152602001896001600160a01b031663d21220a76040518163ffffffff1660e01b8152600401602060405180830381865afa15801561143b573d6000803e3d6000fd5b505050506040513d601f19601f8201168201806040525081019061145f91906125c0565b6001600160a01b039081169091528151600080549183166001600160a01b03199283168117825560209485015160018054919095169316929092179092556040805163313ce56760e01b815290519293919263313ce567926004808401939192918290030181865afa1580156114d9573d6000803e3d6000fd5b505050506040513d601f19601f820116820180604052508101906114fd91906125fa565b6002546040516370a0823160e01b81523060048201529192506000916001600160a01b03909116906370a08231906024016020604051808303816000875af115801561154d573d6000803e3d6000fd5b505050506040513d601f19601f820116820180604052508101906115719190612646565b9050600260009054906101000a90046001600160a01b03166001600160a01b031663d0e30db0346040518263ffffffff1660e01b81526004016000604051808303818588803b1580156115c357600080fd5b505af11580156115d7573d6000803e3d6000fd5b505050505060006040518061016001604052808d6001600160a01b031681526020018c6001600160a01b031681526020016000800160009054906101000a90046001600160a01b03166001600160a01b03168152602001600060010160009054906101000a90046001600160a01b03166001600160a01b03168152602001896001600160a01b0316815260200160001515815260200134815260200188151581526020016116868c8787611850565b6001600160a01b031681526020018781526020018a81525090506000806116ac8361186d565b91509150600082126116ea576040517fb09ae40000000000000000000000000000000000000000000000000000000000815260040160405180910390fd5b6002546040516370a0823160e01b815230600482015260009186916001600160a01b03909116906370a08231906024016020604051808303816000875af1158015611739573d6000803e3d6000fd5b505050506040513d601f19601f8201168201806040525081019061175d9190612646565b6117679190612633565b9050801561180557600254604051632e1a7d4d60e01b8152600481018390526001600160a01b0390911690632e1a7d4d90602401600060405180830381600087803b1580156117b557600080fd5b505af11580156117c9573d6000803e3d6000fd5b50506040516001600160a01b038e16925083156108fc02915083906000818181858888f19350505050158015611803573d6000803e3d6000fd5b505b6001600160c01b0319881615611820576118208e8984611c78565b7f33daa9f9211714f6792e0b7c3c14f2bd7f00356725f591ab25eef1830f4f99408b60ff85901d80860118610d69565b6000611865611860858585611d8f565b611f09565b949350505050565b6000808260c0015160000361189557604051631115766760e01b815260040160405180910390fd5b60808301516001600160a01b03166118c057604051631115766760e01b815260040160405180910390fd5b8260e001511580156118d55750610140830151155b156118f357604051638199f5f360e01b815260040160405180910390fd5b60008360e0015161193b578360a0015161192b57611926600173fffd8963efd1fc6a506488495d951d5263988d2661267b565b611942565b6119266401000276a360016126a2565b8361010001515b6020850151608086015160a08088015160c08901516040517f128acb080000000000000000000000000000000000000000000000000000000081526001600160a01b0394851660048201529115156024830152604482015282851660648201526084810191909152600060a4820152929350169063128acb089060c40160408051808303816000875af19250505080156119f9575060408051601f3d908101601f191682019092526119f6918101906126c2565b60015b611a1657604051631115766760e01b815260040160405180910390fd5b81945080935060008660a0015115611a595760008212611a49576040516304ecdfb360e41b815260040160405180910390fd5b611a528261265f565b9050611a86565b60008312611a7a576040516304ecdfb360e41b815260040160405180910390fd5b611a838361265f565b90505b8660e00151158015611a9c575086610140015181105b15611aba57604051638199f5f360e01b815260040160405180910390fd5b86516001600160a01b031615611c6f57600087602001516001600160a01b031663d0c93a7c6040518163ffffffff1660e01b8152600401602060405180830381865afa158015611b0e573d6000803e3d6000fd5b505050506040513d601f19601f82011682018060405250810190611b3291906125a5565b9050600088600001516001600160a01b031663802758606040518163ffffffff1660e01b81526004016101e060405180830381865afa158015611b79573d6000803e3d6000fd5b505050506040513d601f19601f82011682018060405250810190611b9d9190612748565b9050600082826002602002015160200151611bb89190612821565b905060008a602001516001600160a01b0316633850c7bd6040518163ffffffff1660e01b815260040160e060405180830381865afa158015611bfe573d6000803e3d6000fd5b505050506040513d601f19601f82011682018060405250810190611c229190612858565b50505050509150508160020b8160020b1315611c6a576040517ffb30d03a00000000000000000000000000000000000000000000000000000000815260040160405180910390fd5b505050505b50505050915091565b60035460405163abd4e2d160e01b81526001600160a01b038581166004830152600092169063abd4e2d190602401602060405180830381865afa158015611cc3573d6000803e3d6000fd5b505050506040513d601f19601f82011682018060405250810190611ce791906125c0565b90506001600160a01b03811615611d89576001600160a01b03811663259b8fd88460ff85901d808601186040517fffffffff0000000000000000000000000000000000000000000000000000000060e085901b1681526001600160c01b031990921660048301526024820152604401600060405180830381600087803b158015611d7057600080fd5b505af1158015611d84573d6000803e3d6000fd5b505050505b50505050565b600060068260ff1610158015611da9575060128260ff1611155b611ddf576040517fd25598a000000000000000000000000000000000000000000000000000000000815260040160405180910390fd5b6000611dec8360126128f0565b611df790600a6129ed565b9050611e0381866129fc565b945083611ef668033dd1780914b9684073__$28bae0af19d0e90d77349cc0e88bc3c39a$__63bc4225aa611e3f8a670de0b6b3a76400006129fc565b6040517fffffffff0000000000000000000000000000000000000000000000000000000060e084901b1681526004810191909152670de0b6b3a764000060248201526706f05b59d3b200006044820152606401602060405180830381865af4158015611eaf573d6000803e3d6000fd5b505050506040513d601f19601f82011682018060405250810190611ed39190612646565b611edd9190612a2c565b611ef1600288900b658334ae9d7c0a6129fc565b611f1a565b611f009190612a4c565b95945050505050565b6000611f1482611f71565b92915050565b600061138861271083611f2d86836129fc565b611f379190612a82565b611f419190612ab0565b13611f5557611f508284612a82565b611f6a565b611f5f8284612a82565b611f6a906001612ac4565b9392505050565b60008060008360020b12611f88578260020b611f95565b8260020b611f959061265f565b9050611fa4620d89e719612aec565b60020b811115611ff65760405162461bcd60e51b815260206004820152600160248201527f54000000000000000000000000000000000000000000000000000000000000006044820152606401610235565b60008160011660000361201a5770010000000000000000000000000000000061202c565b6ffffcb933bd6fad37aa2d162d1a5940015b70ffffffffffffffffffffffffffffffffff169050600282161561206b576080612066826ffff97272373d413259a46990580e213a612b0e565b901c90505b6004821615612095576080612090826ffff2e50f5f656932ef12357cf3c7fdcc612b0e565b901c90505b60088216156120bf5760806120ba826fffe5caca7e10e4e61c3624eaa0941cd0612b0e565b901c90505b60108216156120e95760806120e4826fffcb9843d60f6159c9db58835c926644612b0e565b901c90505b602082161561211357608061210e826fff973b41fa98c081472e6896dfb254c0612b0e565b901c90505b604082161561213d576080612138826fff2ea16466c96a3843ec78b326b52861612b0e565b901c90505b6080821615612167576080612162826ffe5dee046a99a2a811c461f1969c3053612b0e565b901c90505b61010082161561219257608061218d826ffcbe86c7900a88aedcffc83b479aa3a4612b0e565b901c90505b6102008216156121bd5760806121b8826ff987a7253ac413176f2b074cf7815e54612b0e565b901c90505b6104008216156121e85760806121e3826ff3392b0822b70005940c7a398e4b70f3612b0e565b901c90505b61080082161561221357608061220e826fe7159475a2c29b7443b29c7fa6e889d9612b0e565b901c90505b61100082161561223e576080612239826fd097f3bdfd2022b8845ad8f792aa5825612b0e565b901c90505b612000821615612269576080612264826fa9f746462d870fdf8a65dc1f90e061e5612b0e565b901c90505b61400082161561229457608061228f826f70d869a156d2a1b890bb3df62baf32f7612b0e565b901c90505b6180008216156122bf5760806122ba826f31be135f97d08fd981231505542fcfa6612b0e565b901c90505b620100008216156122eb5760806122e6826f09aa508b5b7a84e1c677de54f3e99bc9612b0e565b901c90505b62020000821615612316576080612311826e5d6af8dedb81196699c329225ee604612b0e565b901c90505b6204000082161561234057608061233b826d2216e584f5fa1ea926041bedfe98612b0e565b901c90505b62080000821615612368576080612363826b048a170391f7dc42444e8fa2612b0e565b901c90505b60008460020b13156123835761238081600019612b25565b90505b61239264010000000082612b39565b1561239e5760016123a1565b60005b6118659060ff16602083901c612b4d565b6001600160a01b03811681146123c757600080fd5b50565b80151581146123c757600080fd5b80356001600160c01b0319811681146123f057600080fd5b919050565b60008060008060008060008060006101208a8c03121561241457600080fd5b893561241f816123b2565b985060208a013561242f816123b2565b975060408a0135965060608a0135955060808a0135945060a08a0135612454816123b2565b935060c08a0135612464816123ca565b925060e08a0135915061247a6101008b016123d8565b90509295985092959850929598565b6000806000806060858703121561249f57600080fd5b8435935060208501359250604085013567ffffffffffffffff808211156124c557600080fd5b818701915087601f8301126124d957600080fd5b8135818111156124e857600080fd5b8860208285010111156124fa57600080fd5b95989497505060200194505050565b600080600080600080600080610100898b03121561252657600080fd5b8835612531816123b2565b97506020890135612541816123b2565b96506040890135955060608901359450608089013561255f816123b2565b935060a089013561256f816123ca565b925060c0890135915061258460e08a016123d8565b90509295985092959890939650565b8051600281900b81146123f057600080fd5b6000602082840312156125b757600080fd5b611f6a82612593565b6000602082840312156125d257600080fd5b8151611f6a816123b2565b6000602082840312156125ef57600080fd5b8151611f6a816123ca565b60006020828403121561260c57600080fd5b815160ff81168114611f6a57600080fd5b634e487b7160e01b600052601160045260246000fd5b81810381811115611f1457611f1461261d565b60006020828403121561265857600080fd5b5051919050565b6000600160ff1b82036126745761267461261d565b5060000390565b6001600160a01b0382811682821603908082111561269b5761269b61261d565b5092915050565b6001600160a01b0381811683821601908082111561269b5761269b61261d565b600080604083850312156126d557600080fd5b505080516020909101519092909150565b634e487b7160e01b600052604160045260246000fd5b6040516060810167ffffffffffffffff8111828210171561271f5761271f6126e6565b60405290565b60405160a0810167ffffffffffffffff8111828210171561271f5761271f6126e6565b60006101e080838503121561275c57600080fd5b83601f84011261276b57600080fd5b6127736126fc565b90830190808583111561278557600080fd5b845b838110156128175760a081880312156127a05760008081fd5b6127a8612725565b6127b182612593565b815260206127c0818401612593565b818301526040808401516fffffffffffffffffffffffffffffffff811681146127e95760008081fd5b90830152606083810151908301526080612804818501612593565b908301529084529092019160a001612787565b5095945050505050565b600282810b9082900b03627fffff198112627fffff82131715611f1457611f1461261d565b805161ffff811681146123f057600080fd5b600080600080600080600060e0888a03121561287357600080fd5b875161287e816123b2565b965061288c60208901612593565b955061289a60408901612846565b94506128a860608901612846565b93506128b660808901612846565b925060a088015163ffffffff811681146128cf57600080fd5b60c08901519092506128e0816123ca565b8091505092959891949750929550565b60ff8281168282160390811115611f1457611f1461261d565b600181815b8085111561294457816000190482111561292a5761292a61261d565b8085161561293757918102915b93841c939080029061290e565b509250929050565b60008261295b57506001611f14565b8161296857506000611f14565b816001811461297e5760028114612988576129a4565b6001915050611f14565b60ff8411156129995761299961261d565b50506001821b611f14565b5060208310610133831016604e8410600b84101617156129c7575081810a611f14565b6129d18383612909565b80600019048211156129e5576129e561261d565b029392505050565b6000611f6a60ff84168361294c565b80820260008212600160ff1b84141615612a1857612a1861261d565b8181058314821517611f1457611f1461261d565b818103600083128015838313168383128216171561269b5761269b61261d565b60008260020b8260020b028060020b915080821461269b5761269b61261d565b634e487b7160e01b600052601260045260246000fd5b600082612a9157612a91612a6c565b600160ff1b821460001984141615612aab57612aab61261d565b500590565b600082612abf57612abf612a6c565b500790565b8082018281126000831280158216821582161715612ae457612ae461261d565b505092915050565b60008160020b627fffff198103612b0557612b0561261d565b60000392915050565b8082028115828204841417611f1457611f1461261d565b600082612b3457612b34612a6c565b500490565b600082612b4857612b48612a6c565b500690565b80820180821115611f1457611f1461261d56fea2646970667358221220f8e853d09e3104975507d34a51786435e24a35d43314ab8bd807ce69e9032c8464736f6c63430008170033","linkReferences":{"src/libraries/Logarithm.sol":{"Logarithm":[{"start":7932,"length":20}]}}},"methodIdentifiers":{"WMON()":"f1435d29","buyTokens(address,address,uint256,uint256,address,bool,uint256,bytes8)":"fcd7372d","buyTokensWETH(address,address,uint256,uint256,uint256,address,bool,uint256,bytes8)":"18781c42","nomaFactory()":"e73a2a7a","pancakeV3SwapCallback(int256,int256,bytes)":"23a69e75","sellTokens(address,address,uint256,uint256,uint256,address,bool,uint256,bytes8)":"44d9652d","sellTokensETH(address,address,uint256,uint256,uint256,address,bool,uint256,bytes8)":"99a5c9f4","tokenInfo()":"6addb663","uniswapV3SwapCallback(int256,int256,bytes)":"fa461e33"},"id":94}