{"abi":[{"type":"function","name":"addCollateral","inputs":[{"name":"amount","type":"uint256","internalType":"uint256"}],"outputs":[],"stateMutability":"nonpayable"},{"type":"function","name":"borrow","inputs":[{"name":"borrowAmount","type":"uint256","internalType":"uint256"},{"name":"duration","type":"uint256","internalType":"uint256"}],"outputs":[],"stateMutability":"nonpayable"},{"type":"function","name":"defaultLoans","inputs":[{"name":"start","type":"uint256","internalType":"uint256"},{"name":"limit","type":"uint256","internalType":"uint256"}],"outputs":[],"stateMutability":"nonpayable"},{"type":"function","name":"getFunctionSelectors","inputs":[],"outputs":[{"name":"","type":"bytes4[]","internalType":"bytes4[]"}],"stateMutability":"pure"},{"type":"function","name":"payback","inputs":[{"name":"amount","type":"uint256","internalType":"uint256"}],"outputs":[],"stateMutability":"nonpayable"},{"type":"function","name":"roll","inputs":[{"name":"newDuration","type":"uint256","internalType":"uint256"}],"outputs":[],"stateMutability":"nonpayable"},{"type":"function","name":"shift","inputs":[],"outputs":[],"stateMutability":"nonpayable"},{"type":"function","name":"slide","inputs":[],"outputs":[],"stateMutability":"nonpayable"},{"type":"event","name":"Borrow","inputs":[{"name":"who","type":"address","indexed":true,"internalType":"address"},{"name":"borrowAmount","type":"uint256","indexed":false,"internalType":"uint256"},{"name":"duration","type":"uint256","indexed":false,"internalType":"uint256"}],"anonymous":false},{"type":"event","name":"DefaultLoans","inputs":[{"name":"totalBurned","type":"uint256","indexed":false,"internalType":"uint256"},{"name":"loansDefaulted","type":"uint256","indexed":false,"internalType":"uint256"}],"anonymous":false},{"type":"event","name":"Payback","inputs":[{"name":"who","type":"address","indexed":true,"internalType":"address"},{"name":"amount","type":"uint256","indexed":false,"internalType":"uint256"}],"anonymous":false},{"type":"event","name":"RollLoan","inputs":[{"name":"who","type":"address","indexed":true,"internalType":"address"},{"name":"amount","type":"uint256","indexed":false,"internalType":"uint256"},{"name":"newDuration","type":"uint256","indexed":false,"internalType":"uint256"}],"anonymous":false},{"type":"event","name":"Shift","inputs":[],"anonymous":false},{"type":"event","name":"Slide","inputs":[],"anonymous":false},{"type":"error","name":"AboveThreshold","inputs":[]},{"type":"error","name":"BelowThreshold","inputs":[]},{"type":"error","name":"InvalidDecimals","inputs":[]},{"type":"error","name":"InvalidTick","inputs":[]},{"type":"error","name":"OutOfRange","inputs":[]},{"type":"error","name":"PositionsLength","inputs":[]},{"type":"error","name":"SafeERC20FailedOperation","inputs":[{"name":"token","type":"address","internalType":"address"}]}],"bytecode":{"object":"0x608060405234801561000f575f80fd5b50616d2b806200001e5f395ff3fe608060405234801561000f575f80fd5b5060043610610086575f3560e01c8063a846c2fd11610059578063a846c2fd146100d6578063bb20a343146100f2578063bcc46e831461010e578063fd896f9d1461012a57610086565b80630ecbcdab1461008a57806312fc41ca146100a65780631f7b4f30146100b0578063982f3bfd146100cc575b5f80fd5b6100a4600480360381019061009f9190614f70565b610148565b005b6100ae610206565b005b6100ca60048036038101906100c59190614fae565b61038b565b005b6100d461045d565b005b6100f060048036038101906100eb9190614fae565b610579565b005b61010c60048036038101906101079190614f70565b610634565b005b61012860048036038101906101239190614fae565b610785565b005b6101326107f0565b60405161013f91906150bb565b60405180910390f35b3073ffffffffffffffffffffffffffffffffffffffff1663d76b817a3384846040518463ffffffff1660e01b815260040161018593929190615129565b5f604051808303815f87803b15801561019c575f80fd5b505af11580156101ae573d5f803e3d5ffd5b505050503373ffffffffffffffffffffffffffffffffffffffff167fe1979fe4c35e0cef342fef5668e2c8e7a7e9f5d5d1ca8fee0ac6c427fa4153af83836040516101fa92919061515e565b60405180910390a25050565b5f3073ffffffffffffffffffffffffffffffffffffffff1663802758606040518163ffffffff1660e01b81526004016101e060405180830381865afa158015610251573d5f803e3d5ffd5b505050506040513d601f19601f8201168201806040525081019061027591906153df565b90505f3073ffffffffffffffffffffffffffffffffffffffff1663a1774da06040518163ffffffff1660e01b815260040160c060405180830381865afa1580156102c1573d5f803e3d5ffd5b505050506040513d601f19601f820116820180604052508101906102e591906154d2565b90506102f18183610d10565b50503073ffffffffffffffffffffffffffffffffffffffff16631d8feb4f33836040518363ffffffff1660e01b815260040161032e929190615585565b5f604051808303815f87803b158015610345575f80fd5b505af1158015610357573d5f803e3d5ffd5b505050507f4e7f4c591a7da2f29fa296a59268851382577661a96cf8be96d925ddcd06d5a360405160405180910390a15050565b5f3073ffffffffffffffffffffffffffffffffffffffff1663b331fdcb33846040518363ffffffff1660e01b81526004016103c79291906155ac565b6020604051808303815f875af11580156103e3573d5f803e3d5ffd5b505050506040513d601f19601f8201168201806040525081019061040791906155d3565b90503373ffffffffffffffffffffffffffffffffffffffff167f5c0d6b005b2ac35c356fd0090919e6e773e3a41f5f79d7b2113c99ca727d4633828460405161045192919061515e565b60405180910390a25050565b5f3073ffffffffffffffffffffffffffffffffffffffff1663802758606040518163ffffffff1660e01b81526004016101e060405180830381865afa1580156104a8573d5f803e3d5ffd5b505050506040513d601f19601f820116820180604052508101906104cc91906153df565b90505f3073ffffffffffffffffffffffffffffffffffffffff1663a1774da06040518163ffffffff1660e01b815260040160c060405180830381865afa158015610518573d5f803e3d5ffd5b505050506040513d601f19601f8201168201806040525081019061053c91906154d2565b905061054881836110c6565b507ff32746b4cd878ae944732ad09d04c73d4b7f950f8323aed34107cc478a087ace60405160405180910390a15050565b3073ffffffffffffffffffffffffffffffffffffffff1663d64fc10b33835f6040518463ffffffff1660e01b81526004016105b693929190615618565b5f604051808303815f87803b1580156105cd575f80fd5b505af11580156105df573d5f803e3d5ffd5b505050503373ffffffffffffffffffffffffffffffffffffffff167f8c9cdf934f136ab5b80fe11dfd56363fa7544ecb56d4c440c0d8a14d04bfff4a82604051610629919061564d565b60405180910390a250565b5f805f8414801561064457505f83145b156106c3573073ffffffffffffffffffffffffffffffffffffffff16631ca7e6f86040518163ffffffff1660e01b815260040160408051808303815f875af1158015610692573d5f803e3d5ffd5b505050506040513d601f19601f820116820180604052508101906106b69190615666565b8092508193505050610746565b3073ffffffffffffffffffffffffffffffffffffffff1663986179b585856040518363ffffffff1660e01b81526004016106fe92919061515e565b60408051808303815f875af1158015610719573d5f803e3d5ffd5b505050506040513d601f19601f8201168201806040525081019061073d9190615666565b80925081935050505b7f75cf42283370555606116c91f910734ce5a66fcd98d3f402f9272a4afb4fb9f1828260405161077792919061515e565b60405180910390a150505050565b3073ffffffffffffffffffffffffffffffffffffffff16636d75b9ee33836040518363ffffffff1660e01b81526004016107c09291906155ac565b5f604051808303815f87803b1580156107d7575f80fd5b505af11580156107e9573d5f803e3d5ffd5b5050505050565b60605f600867ffffffffffffffff81111561080e5761080d615199565b5b60405190808252806020026020018201604052801561083c5781602001602082028036833780820191505090505b5090506040518060400160405280600781526020017f736869667428290000000000000000000000000000000000000000000000000081525080519060200120815f8151811061088f5761088e6156a4565b5b60200260200101907bffffffffffffffffffffffffffffffffffffffffffffffffffffffff191690817bffffffffffffffffffffffffffffffffffffffffffffffffffffffff1916815250506040518060400160405280600781526020017f736c696465282900000000000000000000000000000000000000000000000000815250805190602001208160018151811061092c5761092b6156a4565b5b60200260200101907bffffffffffffffffffffffffffffffffffffffffffffffffffffffff191690817bffffffffffffffffffffffffffffffffffffffffffffffffffffffff1916815250506040518060400160405280601781526020017f626f72726f772875696e743235362c75696e743235362900000000000000000081525080519060200120816002815181106109c9576109c86156a4565b5b60200260200101907bffffffffffffffffffffffffffffffffffffffffffffffffffffffff191690817bffffffffffffffffffffffffffffffffffffffffffffffffffffffff1916815250506040518060400160405280601081526020017f7061796261636b2875696e7432353629000000000000000000000000000000008152508051906020012081600381518110610a6657610a656156a4565b5b60200260200101907bffffffffffffffffffffffffffffffffffffffffffffffffffffffff191690817bffffffffffffffffffffffffffffffffffffffffffffffffffffffff1916815250506040518060400160405280600d81526020017f726f6c6c2875696e7432353629000000000000000000000000000000000000008152508051906020012081600481518110610b0357610b026156a4565b5b60200260200101907bffffffffffffffffffffffffffffffffffffffffffffffffffffffff191690817bffffffffffffffffffffffffffffffffffffffffffffffffffffffff1916815250506040518060400160405280601681526020017f616464436f6c6c61746572616c2875696e7432353629000000000000000000008152508051906020012081600581518110610ba057610b9f6156a4565b5b60200260200101907bffffffffffffffffffffffffffffffffffffffffffffffffffffffff191690817bffffffffffffffffffffffffffffffffffffffffffffffffffffffff1916815250506040518060400160405280601d81526020017f64656661756c744c6f616e732875696e743235362c75696e74323536290000008152508051906020012081600681518110610c3d57610c3c6156a4565b5b60200260200101907bffffffffffffffffffffffffffffffffffffffffffffffffffffffff191690817bffffffffffffffffffffffffffffffffffffffffffffffffffffffff191681525050604051806060016040528060278152602001616ccf602791398051906020012081600781518110610cbd57610cbc6156a4565b5b60200260200101907bffffffffffffffffffffffffffffffffffffffffffffffffffffffff191690817bffffffffffffffffffffffffffffffffffffffffffffffffffffffff1916815250508091505090565b5f610d19614ebe565b60038014610d53576040517f801e085400000000000000000000000000000000000000000000000000000000815260040160405180910390fd5b836060015173ffffffffffffffffffffffffffffffffffffffff166323c9deeb855f015186602001516040518363ffffffff1660e01b8152600401610d999291906156d1565b602060405180830381865afa158015610db4573d5f803e3d5ffd5b505050506040513d601f19601f82011682018060405250810190610dd891906155d3565b91505f805f80610de788611470565b93509350935093503073ffffffffffffffffffffffffffffffffffffffff1663c58aad876040518163ffffffff1660e01b815260040161022060405180830381865afa158015610e39573d5f803e3d5ffd5b505050506040513d601f19601f82011682018060405250810190610e5d919061598b565b608001518611611088575f610e7d878486610e7891906159e4565b611629565b8385610e8991906159e4565b610e939190615a17565b90505f851115611082575f896060015173ffffffffffffffffffffffffffffffffffffffff16632f10d9768b5f0151305f6040518463ffffffff1660e01b8152600401610ee293929190615abd565b608060405180830381865afa158015610efd573d5f803e3d5ffd5b505050506040513d601f19601f82011682018060405250810190610f219190615af2565b93505050505f8a6060015173ffffffffffffffffffffffffffffffffffffffff1663280eabf48c5f01518d602001518d600160038110610f6457610f636156a4565b5b602002015160016040518563ffffffff1660e01b8152600401610f8a9493929190615be9565b602060405180830381865afa158015610fa5573d5f803e3d5ffd5b505050506040513d601f19601f82011682018060405250810190610fc991906155d3565b905061100e6040518061010001604052808d8152602001858152602001898152602001838152602001848152602001888152602001878152602001868152508b611659565b97503073ffffffffffffffffffffffffffffffffffffffff166395d7d0ad896040518263ffffffff1660e01b81526004016110499190615d29565b5f604051808303815f87803b158015611060575f80fd5b505af1158015611072573d5f803e3d5ffd5b50505050505050505050506110bf565b506110ba565b6040517fe40aeaf500000000000000000000000000000000000000000000000000000000815260040160405180910390fd5b505050505b9250929050565b6110ce614ebe565b60038014611108576040517f801e085400000000000000000000000000000000000000000000000000000000815260040160405180910390fd5b5f61111284611470565b50509150503073ffffffffffffffffffffffffffffffffffffffff1663c58aad876040518163ffffffff1660e01b815260040161022060405180830381865afa158015611161573d5f803e3d5ffd5b505050506040513d601f19601f82011682018060405250810190611185919061598b565b60a00151846060015173ffffffffffffffffffffffffffffffffffffffff166323c9deeb865f015187602001516040518363ffffffff1660e01b81526004016111cf9291906156d1565b602060405180830381865afa1580156111ea573d5f803e3d5ffd5b505050506040513d601f19601f8201168201806040525081019061120e91906155d3565b10611437575f805f80611224885f0151886117e2565b93509350935093503073ffffffffffffffffffffffffffffffffffffffff16630b78f9c085856040518363ffffffff1660e01b815260040161126792919061515e565b5f604051808303815f87803b15801561127e575f80fd5b505af1158015611290573d5f803e3d5ffd5b505050503073ffffffffffffffffffffffffffffffffffffffff16630b78f9c083836040518363ffffffff1660e01b81526004016112cf92919061515e565b5f604051808303815f87803b1580156112e6575f80fd5b505af11580156112f8573d5f803e3d5ffd5b50505050611342885f01513089600160038110611318576113176156a4565b5b60200201515f01518a600160038110611334576113336156a4565b5b602002015160200151611922565b611388885f0151308960026003811061135e5761135d6156a4565b5b60200201515f01518a60026003811061137a576113796156a4565b5b602002015160200151611922565b6113938888876119ff565b9550865f600381106113a8576113a76156a4565b5b6020020151865f600381106113c0576113bf6156a4565b5b60200201819052503073ffffffffffffffffffffffffffffffffffffffff166395d7d0ad876040518263ffffffff1660e01b81526004016114019190615d29565b5f604051808303815f87803b158015611418575f80fd5b505af115801561142a573d5f803e3d5ffd5b5050505050505050611469565b6040517fae27420000000000000000000000000000000000000000000000000000000000815260040160405180910390fd5b5092915050565b5f805f805f856060015173ffffffffffffffffffffffffffffffffffffffff16632f10d976875f01513060016040518463ffffffff1660e01b81526004016114ba93929190615abd565b608060405180830381865afa1580156114d5573d5f803e3d5ffd5b505050506040513d601f19601f820116820180604052508101906114f99190615af2565b93505050505f80876060015173ffffffffffffffffffffffffffffffffffffffff16632f10d976895f01513060026040518463ffffffff1660e01b815260040161154593929190615abd565b608060405180830381865afa158015611560573d5f803e3d5ffd5b505050506040513d601f19601f820116820180604052508101906115849190615af2565b9350935050505f886060015173ffffffffffffffffffffffffffffffffffffffff1663a4dda1a28a5f01518b602001516040518363ffffffff1660e01b81526004016115d19291906156d1565b602060405180830381865afa1580156115ec573d5f803e3d5ffd5b505050506040513d601f19601f8201168201806040525081019061161091906155d3565b9050808483859750975097509750505050509193509193565b5f601260ff16600a61163b9190615e72565b82846116479190615ebc565b6116519190615f2a565b905092915050565b611661614ebe565b5f835f01516040015190505f8173ffffffffffffffffffffffffffffffffffffffff1663de0ca7e1866020015187608001518860400151886040518563ffffffff1660e01b81526004016116b89493929190615f5a565b602060405180830381865afa1580156116d3573d5f803e3d5ffd5b505050506040513d601f19601f820116820180604052508101906116f791906155d3565b90506117d8855f0151604051806101600160405280885f01515f015173ffffffffffffffffffffffffffffffffffffffff168152602001885f01516040015173ffffffffffffffffffffffffffffffffffffffff16815260200188602001518152602001848152602001885f01516060015173ffffffffffffffffffffffffffffffffffffffff168152602001885f015160a0015173ffffffffffffffffffffffffffffffffffffffff168152602001886080015181526020018860a0015181526020018860c0015181526020018860e00151815260200187815250611f60565b9250505092915050565b5f805f805f8673ffffffffffffffffffffffffffffffffffffffff16633850c7bd6040518163ffffffff1660e01b815260040160e060405180830381865afa158015611830573d5f803e3d5ffd5b505050506040513d601f19601f82011682018060405250810190611854919061602b565b5050505050509050611889865f60038110611872576118716156a4565b5b602002015130896001611884866122a5565b61269c565b94506118b9866001600381106118a2576118a16156a4565b5b6020020151308960016118b4866122a5565b61269c565b92506118e7865f600381106118d1576118d06156a4565b5b602002015130895f6118e2866122a5565b61269c565b935061191686600160038110611900576118ff6156a4565b5b602002015130895f611911866122a5565b61269c565b91505092959194509250565b5f30838360405160200161193893929190616141565b6040516020818303038152906040528051906020012090505f8573ffffffffffffffffffffffffffffffffffffffff1663514ea4bf836040518263ffffffff1660e01b815260040161198a9190616195565b60a060405180830381865afa1580156119a5573d5f803e3d5ffd5b505050506040513d601f19601f820116820180604052508101906119c991906161ae565b5050505090505f816fffffffffffffffffffffffffffffffff1611156119f7576119f68686868685612b52565b5b505050505050565b611a07614ebe565b5f845f015173ffffffffffffffffffffffffffffffffffffffff16633850c7bd6040518163ffffffff1660e01b815260040160e060405180830381865afa158015611a54573d5f803e3d5ffd5b505050506040513d601f19601f82011682018060405250810190611a78919061602b565b5050505050509050611c5a856040518060800160405280875f60038110611aa257611aa16156a4565b5b60200201516020015160020b8152602001611c2f611abf866122a5565b3073ffffffffffffffffffffffffffffffffffffffff1663c58aad876040518163ffffffff1660e01b815260040161022060405180830381865afa158015611b09573d5f803e3d5ffd5b505050506040513d601f19601f82011682018060405250810190611b2d919061598b565b61010001518b5f015173ffffffffffffffffffffffffffffffffffffffff16630dfe16816040518163ffffffff1660e01b8152600401602060405180830381865afa158015611b7e573d5f803e3d5ffd5b505050506040513d601f19601f82011682018060405250810190611ba29190616225565b73ffffffffffffffffffffffffffffffffffffffff1663313ce5676040518163ffffffff1660e01b8152600401602060405180830381865afa158015611bea573d5f803e3d5ffd5b505050506040513d601f19601f82011682018060405250810190611c0e9190616250565b8b5f60038110611c2157611c206156a4565b5b602002015160800151612c69565b60020b815260200186815260200160016002811115611c5157611c50615a4a565b5b8152505f612d8c565b82600160038110611c6e57611c6d6156a4565b5b6020020181905250611f3c6040518060c00160405280875f015173ffffffffffffffffffffffffffffffffffffffff168152602001876020015173ffffffffffffffffffffffffffffffffffffffff168152602001876040015173ffffffffffffffffffffffffffffffffffffffff168152602001876060015173ffffffffffffffffffffffffffffffffffffffff168152602001876080015173ffffffffffffffffffffffffffffffffffffffff1681526020018760a0015173ffffffffffffffffffffffffffffffffffffffff168152506040518060800160405280875f60038110611d5f57611d5e6156a4565b5b60200201516080015186600160038110611d7c57611d7b6156a4565b5b602002015160200151611d8f919061627b565b60020b8152602001611f12611da3866122a5565b3073ffffffffffffffffffffffffffffffffffffffff1663c58aad876040518163ffffffff1660e01b815260040161022060405180830381865afa158015611ded573d5f803e3d5ffd5b505050506040513d601f19601f82011682018060405250810190611e11919061598b565b60c001518b5f015173ffffffffffffffffffffffffffffffffffffffff16630dfe16816040518163ffffffff1660e01b8152600401602060405180830381865afa158015611e61573d5f803e3d5ffd5b505050506040513d601f19601f82011682018060405250810190611e859190616225565b73ffffffffffffffffffffffffffffffffffffffff1663313ce5676040518163ffffffff1660e01b8152600401602060405180830381865afa158015611ecd573d5f803e3d5ffd5b505050506040513d601f19601f82011682018060405250810190611ef19190616250565b8b5f60038110611f0457611f036156a4565b5b602002015160800151612c69565b60020b81526020015f8152602001600280811115611f3357611f32615a4a565b5b8152505f612d8c565b82600260038110611f5057611f4f6156a4565b5b6020020181905250509392505050565b611f68614ebe565b5f8261014001515f60038110611f8157611f806156a4565b5b6020020151604001516fffffffffffffffffffffffffffffffff161115612264575f805f80611fb8865f01518761014001516117e2565b93509350935093503073ffffffffffffffffffffffffffffffffffffffff16630b78f9c085856040518363ffffffff1660e01b8152600401611ffb92919061515e565b5f604051808303815f87803b158015612012575f80fd5b505af1158015612024573d5f803e3d5ffd5b505050503073ffffffffffffffffffffffffffffffffffffffff16630b78f9c083836040518363ffffffff1660e01b815260040161206392919061515e565b5f604051808303815f87803b15801561207a575f80fd5b505af115801561208c573d5f803e3d5ffd5b505050506120de865f0151308861014001515f600381106120b0576120af6156a4565b5b60200201515f01518961014001515f600381106120d0576120cf6156a4565b5b602002015160200151611922565b61212e865f0151308861014001516002600381106120ff576120fe6156a4565b5b60200201515f01518961014001516002600381106121205761211f6156a4565b5b602002015160200151611922565b61217e865f01513088610140015160016003811061214f5761214e6156a4565b5b60200201515f01518961014001516001600381106121705761216f6156a4565b5b602002015160200151611922565b8560c0015186604001518760c0015161219791906159e4565b111561224f5761224e866020015187604001518860c001516121b991906159e4565b885f015173ffffffffffffffffffffffffffffffffffffffff1663d21220a76040518163ffffffff1660e01b8152600401602060405180830381865afa158015612205573d5f803e3d5ffd5b505050506040513d601f19601f820116820180604052508101906122299190616225565b73ffffffffffffffffffffffffffffffffffffffff16613ecf9092919063ffffffff16565b5b6122598787613f4e565b94505050505061229f565b6040517f08c379a000000000000000000000000000000000000000000000000000000000815260040161229690616355565b60405180910390fd5b92915050565b5f6401000276a373ffffffffffffffffffffffffffffffffffffffff168273ffffffffffffffffffffffffffffffffffffffff1610158015612326575073fffd8963efd1fc6a506488495d951d5263988d2673ffffffffffffffffffffffffffffffffffffffff168273ffffffffffffffffffffffffffffffffffffffff16105b612365576040517f08c379a000000000000000000000000000000000000000000000000000000000815260040161235c906163bd565b60405180910390fd5b5f60208373ffffffffffffffffffffffffffffffffffffffff16901b90505f8190505f6fffffffffffffffffffffffffffffffff821160071b808217915082811c92505067ffffffffffffffff821160061b808217915082811c92505063ffffffff821160051b808217915082811c92505061ffff821160041b808217915082811c92505060ff821160031b808217915082811c925050600f821160021b808217915082811c9250506003821160011b808217915082811c925050600182118082179150506080811061244957607f8161243f9190615a17565b83901c915061245c565b80607f6124569190615a17565b83901b91505b5f604060808361246c91906163e4565b901b9050828302607f1c92508260801c80603f1b8217915083811c935050828302607f1c92508260801c80603e1b8217915083811c935050828302607f1c92508260801c80603d1b8217915083811c935050828302607f1c92508260801c80603c1b8217915083811c935050828302607f1c92508260801c80603b1b8217915083811c935050828302607f1c92508260801c80603a1b8217915083811c935050828302607f1c92508260801c8060391b8217915083811c935050828302607f1c92508260801c8060381b8217915083811c935050828302607f1c92508260801c8060371b8217915083811c935050828302607f1c92508260801c8060361b8217915083811c935050828302607f1c92508260801c8060351b8217915083811c935050828302607f1c92508260801c8060341b8217915083811c935050828302607f1c92508260801c8060331b8217915083811c935050828302607f1c92508260801c8060321b82179150505f693627a301d71055774c85826125ee9190616424565b90505f60806f028f6481ab7f045a5af012a19d003aaa8361260f91906163e4565b901d90505f60806fdb2df09e81959a81455e260799a0632f84612632919061649a565b901d90508060020b8260020b1461268c578873ffffffffffffffffffffffffffffffffffffffff166126638261464f565b73ffffffffffffffffffffffffffffffffffffffff1611156126855781612687565b805b61268e565b815b975050505050505050919050565b5f805f805f805f8973ffffffffffffffffffffffffffffffffffffffff1663514ea4bf8c8e5f01518f602001516040516020016126db93929190616141565b604051602081830303815290604052805190602001206040518263ffffffff1660e01b815260040161270d9190616195565b60a060405180830381865afa158015612728573d5f803e3d5ffd5b505050506040513d601f19601f8201168201806040525081019061274c91906161ae565b5050925092509250881561290b578973ffffffffffffffffffffffffffffffffffffffff1663f30583996040518163ffffffff1660e01b8152600401602060405180830381865afa1580156127a3573d5f803e3d5ffd5b505050506040513d601f19601f820116820180604052508101906127c791906155d3565b93508973ffffffffffffffffffffffffffffffffffffffff1663f30dba938d5f01516040518263ffffffff1660e01b815260040161280591906164ea565b61010060405180830381865afa158015612821573d5f803e3d5ffd5b505050506040513d601f19601f82011682018060405250810190612845919061656f565b909192939495965090919293949550909192935090919250909150905050809650508973ffffffffffffffffffffffffffffffffffffffff1663f30dba938d602001516040518263ffffffff1660e01b81526004016128a491906164ea565b61010060405180830381865afa1580156128c0573d5f803e3d5ffd5b505050506040513d601f19601f820116820180604052508101906128e4919061656f565b90919293949596509091929394955090919293509091925090915090505080955050612aba565b8973ffffffffffffffffffffffffffffffffffffffff1663461413196040518163ffffffff1660e01b8152600401602060405180830381865afa158015612954573d5f803e3d5ffd5b505050506040513d601f19601f8201168201806040525081019061297891906155d3565b93508973ffffffffffffffffffffffffffffffffffffffff1663f30dba938d5f01516040518263ffffffff1660e01b81526004016129b691906164ea565b61010060405180830381865afa1580156129d2573d5f803e3d5ffd5b505050506040513d601f19601f820116820180604052508101906129f6919061656f565b90919293949596509091929394955090919293945090919250909150905050809650508973ffffffffffffffffffffffffffffffffffffffff1663f30dba938d602001516040518263ffffffff1660e01b8152600401612a5691906164ea565b61010060405180830381865afa158015612a72573d5f803e3d5ffd5b505050506040513d601f19601f82011682018060405250810190612a96919061656f565b90919293949596509091929394955090919293945090919250909150905050809550505b5f8c5f015160020b8960020b12612ad357869050612ad9565b86850390505b5f8d6020015160020b8a60020b1215612af457869050612afa565b86860390505b5f81838803039050612b3e866fffffffffffffffffffffffffffffffff168d612b235785612b25565b865b8303700100000000000000000000000000000000614b01565b995050505050505050505095945050505050565b8473ffffffffffffffffffffffffffffffffffffffff1663a34123a78484846040518463ffffffff1660e01b8152600401612b8f9392919061662f565b60408051808303815f875af1158015612baa573d5f803e3d5ffd5b505050506040513d601f19601f82011682018060405250810190612bce9190615666565b50508473ffffffffffffffffffffffffffffffffffffffff16634f1eb3d88585856fffffffffffffffffffffffffffffffff806040518663ffffffff1660e01b8152600401612c21959493929190616664565b60408051808303815f875af1158015612c3c573d5f803e3d5ffd5b505050506040513d601f19601f82011682018060405250810190612c6091906166b5565b50505050505050565b5f8073__$00856c2daf1848075e4d6b3791a97a7365$__63b7df07b3612c8e88614bd1565b866040518363ffffffff1660e01b8152600401612cac929190616711565b602060405180830381865af4158015612cc7573d5f803e3d5ffd5b505050506040513d601f19601f82011682018060405250810190612ceb91906155d3565b90505f612cfb828760020b614be2565b90505f612d09828688614c66565b90507ffffffffffffffffffffffffffffffffffffffffffffffffffffffffffff2761860020b8160020b1280612d475750620d89e860020b8160020b135b15612d7e576040517f7db3aba700000000000000000000000000000000000000000000000000000000815260040160405180910390fd5b809350505050949350505050565b612d94614eeb565b825f015160020b836020015160020b13612dda576040517fce8ef7fc00000000000000000000000000000000000000000000000000000000815260040160405180910390fd5b5f845f015173ffffffffffffffffffffffffffffffffffffffff16630dfe16816040518163ffffffff1660e01b8152600401602060405180830381865afa158015612e27573d5f803e3d5ffd5b505050506040513d601f19601f82011682018060405250810190612e4b9190616225565b73ffffffffffffffffffffffffffffffffffffffff166370a08231306040518263ffffffff1660e01b8152600401612e839190616738565b602060405180830381865afa158015612e9e573d5f803e3d5ffd5b505050506040513d601f19601f82011682018060405250810190612ec291906155d3565b90505f855f015173ffffffffffffffffffffffffffffffffffffffff16630dfe16816040518163ffffffff1660e01b8152600401602060405180830381865afa158015612f11573d5f803e3d5ffd5b505050506040513d601f19601f82011682018060405250810190612f359190616225565b73ffffffffffffffffffffffffffffffffffffffff1663dd62ed3e3088604001516040518363ffffffff1660e01b8152600401612f739291906156d1565b602060405180830381865afa158015612f8e573d5f803e3d5ffd5b505050506040513d601f19601f82011682018060405250810190612fb291906155d3565b90505f865f015173ffffffffffffffffffffffffffffffffffffffff1663d21220a76040518163ffffffff1660e01b8152600401602060405180830381865afa158015613001573d5f803e3d5ffd5b505050506040513d601f19601f820116820180604052508101906130259190616225565b73ffffffffffffffffffffffffffffffffffffffff1663dd62ed3e3089604001516040518363ffffffff1660e01b81526004016130639291906156d1565b602060405180830381865afa15801561307e573d5f803e3d5ffd5b505050506040513d601f19601f820116820180604052508101906130a291906155d3565b90507fffffffffffffffffffffffffffffffffffffffffffffffffffffffffffffffff82146131db57865f015173ffffffffffffffffffffffffffffffffffffffff16630dfe16816040518163ffffffff1660e01b8152600401602060405180830381865afa158015613117573d5f803e3d5ffd5b505050506040513d601f19601f8201168201806040525081019061313b9190616225565b73ffffffffffffffffffffffffffffffffffffffff1663095ea7b388604001517fffffffffffffffffffffffffffffffffffffffffffffffffffffffffffffffff6040518363ffffffff1660e01b81526004016131999291906155ac565b6020604051808303815f875af11580156131b5573d5f803e3d5ffd5b505050506040513d601f19601f820116820180604052508101906131d99190616751565b505b7fffffffffffffffffffffffffffffffffffffffffffffffffffffffffffffffff811461331257865f015173ffffffffffffffffffffffffffffffffffffffff1663d21220a76040518163ffffffff1660e01b8152600401602060405180830381865afa15801561324e573d5f803e3d5ffd5b505050506040513d601f19601f820116820180604052508101906132729190616225565b73ffffffffffffffffffffffffffffffffffffffff1663095ea7b388604001517fffffffffffffffffffffffffffffffffffffffffffffffffffffffffffffffff6040518363ffffffff1660e01b81526004016132d09291906155ac565b6020604051808303815f875af11580156132ec573d5f803e3d5ffd5b505050506040513d601f19601f820116820180604052508101906133109190616751565b505b60028081111561332557613324615a4a565b5b8660600151600281111561333c5761333b615a4a565b5b03613dde575f876060015173ffffffffffffffffffffffffffffffffffffffff1663a4dda1a2895f01518a602001516040518363ffffffff1660e01b81526004016133889291906156d1565b602060405180830381865afa1580156133a3573d5f803e3d5ffd5b505050506040513d601f19601f820116820180604052508101906133c791906155d3565b90505f885f015173ffffffffffffffffffffffffffffffffffffffff16630dfe16816040518163ffffffff1660e01b8152600401602060405180830381865afa158015613416573d5f803e3d5ffd5b505050506040513d601f19601f8201168201806040525081019061343a9190616225565b73ffffffffffffffffffffffffffffffffffffffff166318160ddd6040518163ffffffff1660e01b8152600401602060405180830381865afa158015613482573d5f803e3d5ffd5b505050506040513d601f19601f820116820180604052508101906134a691906155d3565b90505f895f015173ffffffffffffffffffffffffffffffffffffffff16633850c7bd6040518163ffffffff1660e01b815260040160e060405180830381865afa1580156134f5573d5f803e3d5ffd5b505050506040513d601f19601f82011682018060405250810190613519919061602b565b50505050505090503073ffffffffffffffffffffffffffffffffffffffff1663c58aad876040518163ffffffff1660e01b815260040161022060405180830381865afa15801561356b573d5f803e3d5ffd5b505050506040513d601f19601f8201168201806040525081019061358f919061598b565b61012001518361359f9190615f2a565b86101561391d57871561391c575f8a60a0015173ffffffffffffffffffffffffffffffffffffffff166383183fd9845f3073ffffffffffffffffffffffffffffffffffffffff1663dee02ffa6040518163ffffffff1660e01b8152600401602060405180830381865afa158015613618573d5f803e3d5ffd5b505050506040513d601f19601f8201168201806040525081019061363c91906155d3565b116136485760016136b6565b3073ffffffffffffffffffffffffffffffffffffffff1663dee02ffa6040518163ffffffff1660e01b8152600401602060405180830381865afa158015613691573d5f803e3d5ffd5b505050506040513d601f19601f820116820180604052508101906136b591906155d3565b5b73__$00856c2daf1848075e4d6b3791a97a7365$__63b7df07b38760126040518363ffffffff1660e01b81526004016136f09291906167be565b602060405180830381865af415801561370b573d5f803e3d5ffd5b505050506040513d601f19601f8201168201806040525081019061372f91906155d3565b8f6060015173ffffffffffffffffffffffffffffffffffffffff16636013be6d306040518263ffffffff1660e01b815260040161376c9190616738565b602060405180830381865afa158015613787573d5f803e3d5ffd5b505050506040513d601f19601f820116820180604052508101906137ab91906155d3565b6040518563ffffffff1660e01b81526004016137ca94939291906167e5565b602060405180830381865afa1580156137e5573d5f803e3d5ffd5b505050506040513d601f19601f8201168201806040525081019061380991906155d3565b90505f81148061381857508281115b1561389e573073ffffffffffffffffffffffffffffffffffffffff1663c58aad876040518163ffffffff1660e01b815260040161022060405180830381865afa158015613867573d5f803e3d5ffd5b505050506040513d601f19601f8201168201806040525081019061388b919061598b565b61012001518461389b9190615f2a565b90505b3073ffffffffffffffffffffffffffffffffffffffff1663f0dda65c30836040518363ffffffff1660e01b81526004016138d99291906155ac565b6020604051808303815f875af11580156138f5573d5f803e3d5ffd5b505050506040513d601f19601f820116820180604052508101906139199190616751565b50505b5b3073ffffffffffffffffffffffffffffffffffffffff1663c58aad876040518163ffffffff1660e01b815260040161022060405180830381865afa158015613967573d5f803e3d5ffd5b505050506040513d601f19601f8201168201806040525081019061398b919061598b565b61014001518361399b9190615f2a565b8610613b075787613b06573073ffffffffffffffffffffffffffffffffffffffff16636d1b229d876040518263ffffffff1660e01b81526004016139df919061564d565b5f604051808303815f87803b1580156139f6575f80fd5b505af1158015613a08573d5f803e3d5ffd5b505050503073ffffffffffffffffffffffffffffffffffffffff1663f0dda65c303073ffffffffffffffffffffffffffffffffffffffff1663c58aad876040518163ffffffff1660e01b815260040161022060405180830381865afa158015613a73573d5f803e3d5ffd5b505050506040513d601f19601f82011682018060405250810190613a97919061598b565b610140015186613aa79190615f2a565b6040518363ffffffff1660e01b8152600401613ac49291906155ac565b6020604051808303815f875af1158015613ae0573d5f803e3d5ffd5b505050506040513d601f19601f82011682018060405250810190613b049190616751565b505b5b895f015173ffffffffffffffffffffffffffffffffffffffff16630dfe16816040518163ffffffff1660e01b8152600401602060405180830381865afa158015613b53573d5f803e3d5ffd5b505050506040513d601f19601f82011682018060405250810190613b779190616225565b73ffffffffffffffffffffffffffffffffffffffff166370a08231306040518263ffffffff1660e01b8152600401613baf9190616738565b602060405180830381865afa158015613bca573d5f803e3d5ffd5b505050506040513d601f19601f82011682018060405250810190613bee91906155d3565b95505f8603613dda573073ffffffffffffffffffffffffffffffffffffffff1663f0dda65c303073ffffffffffffffffffffffffffffffffffffffff1663c58aad876040518163ffffffff1660e01b815260040161022060405180830381865afa158015613c5e573d5f803e3d5ffd5b505050506040513d601f19601f82011682018060405250810190613c82919061598b565b610120015186613c929190615f2a565b6040518363ffffffff1660e01b8152600401613caf9291906155ac565b6020604051808303815f875af1158015613ccb573d5f803e3d5ffd5b505050506040513d601f19601f82011682018060405250810190613cef9190616751565b50895f015173ffffffffffffffffffffffffffffffffffffffff16630dfe16816040518163ffffffff1660e01b8152600401602060405180830381865afa158015613d3c573d5f803e3d5ffd5b505050506040513d601f19601f82011682018060405250810190613d609190616225565b73ffffffffffffffffffffffffffffffffffffffff166370a08231306040518263ffffffff1660e01b8152600401613d989190616738565b602060405180830381865afa158015613db3573d5f803e3d5ffd5b505050506040513d601f19601f82011682018060405250810190613dd791906155d3565b95505b5050505b866040015173ffffffffffffffffffffffffffffffffffffffff1663ae9b8277885f015130895f01518a602001518b6060015160405180604001604052808b815260200160016002811115613e3657613e35615a4a565b5b8f606001516002811115613e4d57613e4c615a4a565b5b14613e59576001613e5f565b8e604001515b8152506040518763ffffffff1660e01b8152600401613e8396959493929190616855565b60a0604051808303815f875af1158015613e9f573d5f803e3d5ffd5b505050506040513d601f19601f82011682018060405250810190613ec391906168b4565b93505050509392505050565b613f49838473ffffffffffffffffffffffffffffffffffffffff1663a9059cbb8585604051602401613f029291906155ac565b604051602081830303815290604052915060e01b6020820180517bffffffffffffffffffffffffffffffffffffffffffffffffffffffff8381831617835250505050614dc2565b505050565b613f56614ebe565b5f825f015173ffffffffffffffffffffffffffffffffffffffff16633850c7bd6040518163ffffffff1660e01b815260040160e060405180830381865afa158015613fa3573d5f803e3d5ffd5b505050506040513d601f19601f82011682018060405250810190613fc7919061602b565b50505050505090505f835f015173ffffffffffffffffffffffffffffffffffffffff16630dfe16816040518163ffffffff1660e01b8152600401602060405180830381865afa15801561401c573d5f803e3d5ffd5b505050506040513d601f19601f820116820180604052508101906140409190616225565b73ffffffffffffffffffffffffffffffffffffffff1663313ce5676040518163ffffffff1660e01b8152600401602060405180830381865afa158015614088573d5f803e3d5ffd5b505050506040513d601f19601f820116820180604052508101906140ac9190616250565b9050836020015173ffffffffffffffffffffffffffffffffffffffff16636cc03e7d855f01513073__$00856c2daf1848075e4d6b3791a97a7365$__63b7df07b36141168a61014001515f60038110614108576141076156a4565b5b602002015160200151614bd1565b876040518363ffffffff1660e01b8152600401614134929190616711565b602060405180830381865af415801561414f573d5f803e3d5ffd5b505050506040513d601f19601f8201168201806040525081019061417391906155d3565b886060015189604001518a60c0015161418c91906159e4565b8a60c001518b61014001515f600381106141a9576141a86156a4565b5b60200201516040518863ffffffff1660e01b81526004016141d097969594939291906168df565b60a0604051808303815f875af11580156141ec573d5f803e3d5ffd5b505050506040513d601f19601f8201168201806040525081019061421091906168b4565b835f60038110614223576142226156a4565b5b60200201819052506144196040518060c00160405280865f015173ffffffffffffffffffffffffffffffffffffffff168152602001876020015173ffffffffffffffffffffffffffffffffffffffff168152602001876040015173ffffffffffffffffffffffffffffffffffffffff168152602001876060015173ffffffffffffffffffffffffffffffffffffffff168152602001876080015173ffffffffffffffffffffffffffffffffffffffff1681526020018760a0015173ffffffffffffffffffffffffffffffffffffffff168152506040518060800160405280865f60038110614314576143136156a4565b5b60200201516020015160020b81526020016143ca614331876122a5565b3073ffffffffffffffffffffffffffffffffffffffff1663c58aad876040518163ffffffff1660e01b815260040161022060405180830381865afa15801561437b573d5f803e3d5ffd5b505050506040513d601f19601f8201168201806040525081019061439f919061598b565b60e00151878b61014001515f600381106143bc576143bb6156a4565b5b602002015160800151612c69565b60020b815260200187604001518861010001518960e001516143ec91906159e4565b6143f69190615a17565b81526020016001600281111561440f5761440e615a4a565b5b8152506001612d8c565b8360016003811061442d5761442c6156a4565b5b602002018190525061462b6040518060c00160405280865f015173ffffffffffffffffffffffffffffffffffffffff168152602001876020015173ffffffffffffffffffffffffffffffffffffffff168152602001876040015173ffffffffffffffffffffffffffffffffffffffff168152602001876060015173ffffffffffffffffffffffffffffffffffffffff168152602001876080015173ffffffffffffffffffffffffffffffffffffffff1681526020018760a0015173ffffffffffffffffffffffffffffffffffffffff1681525060405180608001604052808761014001515f60038110614523576145226156a4565b5b602002015160800151876001600381106145405761453f6156a4565b5b602002015160200151614553919061627b565b60020b8152602001614600614567876122a5565b3073ffffffffffffffffffffffffffffffffffffffff1663c58aad876040518163ffffffff1660e01b815260040161022060405180830381865afa1580156145b1573d5f803e3d5ffd5b505050506040513d601f19601f820116820180604052508101906145d5919061598b565b60c00151878b61014001515f600381106145f2576145f16156a4565b5b602002015160800151612c69565b60020b81526020015f815260200160028081111561462157614620615a4a565b5b8152506001612d8c565b8360026003811061463f5761463e6156a4565b5b6020020181905250505092915050565b5f805f8360020b12614664578260020b614672565b8260020b6146719061694d565b5b90507ffffffffffffffffffffffffffffffffffffffffffffffffffffffffffff2761861469e90616993565b60020b8111156146e3576040517f08c379a00000000000000000000000000000000000000000000000000000000081526004016146da90616a23565b60405180910390fd5b5f80600183160361470557700100000000000000000000000000000000614717565b6ffffcb933bd6fad37aa2d162d1a5940015b70ffffffffffffffffffffffffffffffffff1690505f60028316146147595760806ffff97272373d413259a46990580e213a826147549190615ebc565b901c90505b5f60048316146147865760806ffff2e50f5f656932ef12357cf3c7fdcc826147819190615ebc565b901c90505b5f60088316146147b35760806fffe5caca7e10e4e61c3624eaa0941cd0826147ae9190615ebc565b901c90505b5f60108316146147e05760806fffcb9843d60f6159c9db58835c926644826147db9190615ebc565b901c90505b5f602083161461480d5760806fff973b41fa98c081472e6896dfb254c0826148089190615ebc565b901c90505b5f604083161461483a5760806fff2ea16466c96a3843ec78b326b52861826148359190615ebc565b901c90505b5f60808316146148675760806ffe5dee046a99a2a811c461f1969c3053826148629190615ebc565b901c90505b5f6101008316146148955760806ffcbe86c7900a88aedcffc83b479aa3a4826148909190615ebc565b901c90505b5f6102008316146148c35760806ff987a7253ac413176f2b074cf7815e54826148be9190615ebc565b901c90505b5f6104008316146148f15760806ff3392b0822b70005940c7a398e4b70f3826148ec9190615ebc565b901c90505b5f61080083161461491f5760806fe7159475a2c29b7443b29c7fa6e889d98261491a9190615ebc565b901c90505b5f61100083161461494d5760806fd097f3bdfd2022b8845ad8f792aa5825826149489190615ebc565b901c90505b5f61200083161461497b5760806fa9f746462d870fdf8a65dc1f90e061e5826149769190615ebc565b901c90505b5f6140008316146149a95760806f70d869a156d2a1b890bb3df62baf32f7826149a49190615ebc565b901c90505b5f6180008316146149d75760806f31be135f97d08fd981231505542fcfa6826149d29190615ebc565b901c90505b5f62010000831614614a065760806f09aa508b5b7a84e1c677de54f3e99bc982614a019190615ebc565b901c90505b5f62020000831614614a345760806e5d6af8dedb81196699c329225ee60482614a2f9190615ebc565b901c90505b5f62040000831614614a615760806d2216e584f5fa1ea926041bedfe9882614a5c9190615ebc565b901c90505b5f62080000831614614a8c5760806b048a170391f7dc42444e8fa282614a879190615ebc565b901c90505b5f8460020b1315614ac657807fffffffffffffffffffffffffffffffffffffffffffffffffffffffffffffffff614ac39190615f2a565b90505b5f64010000000082614ad89190616a41565b14614ae4576001614ae6565b5f5b60ff16602082901c614af891906159e4565b92505050919050565b5f805f80198587098587029250828110838203039150505f8103614b36575f8411614b2a575f80fd5b83820492505050614bca565b808411614b41575f80fd5b5f8486880990508281118203915080830392505f60018619018616905080860495508084049350600181825f0304019050808302841793505f600287600302189050808702600203810290508087026002038102905080870260020381029050808702600203810290508087026002038102905080870260020381029050808502955050505050505b9392505050565b5f614bdb8261464f565b9050919050565b5f808212614c1a575f6127108385614bfa9190615ebc565b614c049190615f2a565b90508084614c1291906159e4565b915050614c60565b5f61271083614c289061694d565b85614c339190615ebc565b614c3d9190615f2a565b905083811115614c50575f915050614c60565b8084614c5c9190615a17565b9150505b92915050565b5f60068260ff1610158015614c7f575060128260ff1611155b614cb5576040517fd25598a000000000000000000000000000000000000000000000000000000000815260040160405180910390fd5b5f826012614cc39190616a71565b600a614ccf9190616aa5565b90508085614cdd9190616424565b945083614dae68033dd1780914b9684073__$28bae0af19d0e90d77349cc0e88bc3c39a$__63bc4225aa670de0b6b3a76400008a614d1b9190616424565b670de0b6b3a76400006706f05b59d3b200006040518463ffffffff1660e01b8152600401614d4b93929190616b70565b602060405180830381865af4158015614d66573d5f803e3d5ffd5b505050506040513d601f19601f82011682018060405250810190614d8a9190616bcf565b614d9491906163e4565b8660020b658334ae9d7c0a614da99190616424565b614e5d565b614db89190616bfa565b9150509392505050565b5f8060205f8451602086015f885af180614de1576040513d5f823e3d81fd5b3d92505f519150505f8214614dfa576001811415614e15565b5f8473ffffffffffffffffffffffffffffffffffffffff163b145b15614e5757836040517f5274afe7000000000000000000000000000000000000000000000000000000008152600401614e4e9190616738565b60405180910390fd5b50505050565b5f6113886127108385612710614e739190616424565b614e7d9190616c36565b614e879190616c9e565b13614e9d578183614e989190616c36565b614eb6565b60018284614eab9190616c36565b614eb5919061649a565b5b905092915050565b60405180606001604052806003905b614ed5614eeb565b815260200190600190039081614ecd5790505090565b6040518060a001604052805f60020b81526020015f60020b81526020015f6fffffffffffffffffffffffffffffffff1681526020015f81526020015f60020b81525090565b5f604051905090565b5f80fd5b5f819050919050565b614f4f81614f3d565b8114614f59575f80fd5b50565b5f81359050614f6a81614f46565b92915050565b5f8060408385031215614f8657614f85614f39565b5b5f614f9385828601614f5c565b9250506020614fa485828601614f5c565b9150509250929050565b5f60208284031215614fc357614fc2614f39565b5b5f614fd084828501614f5c565b91505092915050565b5f81519050919050565b5f82825260208201905092915050565b5f819050602082019050919050565b5f7fffffffff0000000000000000000000000000000000000000000000000000000082169050919050565b61503681615002565b82525050565b5f615047838361502d565b60208301905092915050565b5f602082019050919050565b5f61506982614fd9565b6150738185614fe3565b935061507e83614ff3565b805f5b838110156150ae578151615095888261503c565b97506150a083615053565b925050600181019050615081565b5085935050505092915050565b5f6020820190508181035f8301526150d3818461505f565b905092915050565b5f73ffffffffffffffffffffffffffffffffffffffff82169050919050565b5f615104826150db565b9050919050565b615114816150fa565b82525050565b61512381614f3d565b82525050565b5f60608201905061513c5f83018661510b565b615149602083018561511a565b615156604083018461511a565b949350505050565b5f6040820190506151715f83018561511a565b61517e602083018461511a565b9392505050565b5f80fd5b5f601f19601f8301169050919050565b7f4e487b71000000000000000000000000000000000000000000000000000000005f52604160045260245ffd5b6151cf82615189565b810181811067ffffffffffffffff821117156151ee576151ed615199565b5b80604052505050565b5f615200614f30565b905061520c82826151c6565b919050565b5f67ffffffffffffffff82111561522b5761522a615199565b5b602082029050919050565b5f80fd5b5f80fd5b5f8160020b9050919050565b6152538161523e565b811461525d575f80fd5b50565b5f8151905061526e8161524a565b92915050565b5f6fffffffffffffffffffffffffffffffff82169050919050565b61529881615274565b81146152a2575f80fd5b50565b5f815190506152b38161528f565b92915050565b5f815190506152c781614f46565b92915050565b5f60a082840312156152e2576152e161523a565b5b6152ec60a06151f7565b90505f6152fb84828501615260565b5f83015250602061530e84828501615260565b6020830152506040615322848285016152a5565b6040830152506060615336848285016152b9565b606083015250608061534a84828501615260565b60808301525092915050565b5f61536861536384615211565b6151f7565b90508060a0840283018581111561538257615381615236565b5b835b818110156153ab578061539788826152cd565b84526020840193505060a081019050615384565b5050509392505050565b5f82601f8301126153c9576153c8615185565b5b60036153d6848285615356565b91505092915050565b5f6101e082840312156153f5576153f4614f39565b5b5f615402848285016153b5565b91505092915050565b615414816150fa565b811461541e575f80fd5b50565b5f8151905061542f8161540b565b92915050565b5f60c0828403121561544a5761544961523a565b5b61545460c06151f7565b90505f61546384828501615421565b5f83015250602061547684828501615421565b602083015250604061548a84828501615421565b604083015250606061549e84828501615421565b60608301525060806154b284828501615421565b60808301525060a06154c684828501615421565b60a08301525092915050565b5f60c082840312156154e7576154e6614f39565b5b5f6154f484828501615435565b91505092915050565b615506816150fa565b82525050565b60c082015f8201516155205f8501826154fd565b50602082015161553360208501826154fd565b50604082015161554660408501826154fd565b50606082015161555960608501826154fd565b50608082015161556c60808501826154fd565b5060a082015161557f60a08501826154fd565b50505050565b5f60e0820190506155985f83018561510b565b6155a5602083018461550c565b9392505050565b5f6040820190506155bf5f83018561510b565b6155cc602083018461511a565b9392505050565b5f602082840312156155e8576155e7614f39565b5b5f6155f5848285016152b9565b91505092915050565b5f8115159050919050565b615612816155fe565b82525050565b5f60608201905061562b5f83018661510b565b615638602083018561511a565b6156456040830184615609565b949350505050565b5f6020820190506156605f83018461511a565b92915050565b5f806040838503121561567c5761567b614f39565b5b5f615689858286016152b9565b925050602061569a858286016152b9565b9150509250929050565b7f4e487b71000000000000000000000000000000000000000000000000000000005f52603260045260245ffd5b5f6040820190506156e45f83018561510b565b6156f1602083018461510b565b9392505050565b5f60ff82169050919050565b61570d816156f8565b8114615717575f80fd5b50565b5f8151905061572881615704565b92915050565b5f67ffffffffffffffff82111561574857615747615199565b5b602082029050919050565b5f61ffff82169050919050565b61576981615753565b8114615773575f80fd5b50565b5f8151905061578481615760565b92915050565b5f61579c6157978461572e565b6151f7565b905080602084028301858111156157b6576157b5615236565b5b835b818110156157df57806157cb8882615776565b8452602084019350506020810190506157b8565b5050509392505050565b5f82601f8301126157fd576157fc615185565b5b600261580a84828561578a565b91505092915050565b5f61022082840312156158295761582861523a565b5b6158346102006151f7565b90505f6158438482850161571a565b5f8301525060206158568482850161571a565b602083015250604061586a8482850161571a565b604083015250606061587e848285016157e9565b60608301525060a0615892848285016152b9565b60808301525060c06158a6848285016152b9565b60a08301525060e06158ba84828501615260565b60c0830152506101006158cf84828501615260565b60e0830152506101206158e484828501615260565b610100830152506101406158fa848285016152b9565b61012083015250610160615910848285016152b9565b61014083015250610180615926848285016152b9565b610160830152506101a061593c848285016152b9565b610180830152506101c0615952848285016152b9565b6101a0830152506101e0615968848285016152b9565b6101c08301525061020061597e848285016152b9565b6101e08301525092915050565b5f61022082840312156159a1576159a0614f39565b5b5f6159ae84828501615813565b91505092915050565b7f4e487b71000000000000000000000000000000000000000000000000000000005f52601160045260245ffd5b5f6159ee82614f3d565b91506159f983614f3d565b9250828201905080821115615a1157615a106159b7565b5b92915050565b5f615a2182614f3d565b9150615a2c83614f3d565b9250828203905081811115615a4457615a436159b7565b5b92915050565b7f4e487b71000000000000000000000000000000000000000000000000000000005f52602160045260245ffd5b60038110615a8857615a87615a4a565b5b50565b5f819050615a9882615a77565b919050565b5f615aa782615a8b565b9050919050565b615ab781615a9d565b82525050565b5f606082019050615ad05f83018661510b565b615add602083018561510b565b615aea6040830184615aae565b949350505050565b5f805f8060808587031215615b0a57615b09614f39565b5b5f615b1787828801615260565b9450506020615b2887828801615260565b9350506040615b39878288016152b9565b9250506060615b4a878288016152b9565b91505092959194509250565b615b5f8161523e565b82525050565b615b6e81615274565b82525050565b615b7d81614f3d565b82525050565b60a082015f820151615b975f850182615b56565b506020820151615baa6020850182615b56565b506040820151615bbd6040850182615b65565b506060820151615bd06060850182615b74565b506080820151615be36080850182615b56565b50505050565b5f61010082019050615bfd5f83018761510b565b615c0a602083018661510b565b615c176040830185615b83565b615c2460e0830184615aae565b95945050505050565b5f60039050919050565b5f81905092915050565b5f819050919050565b60a082015f820151615c5e5f850182615b56565b506020820151615c716020850182615b56565b506040820151615c846040850182615b65565b506060820151615c976060850182615b74565b506080820151615caa6080850182615b56565b50505050565b5f615cbb8383615c4a565b60a08301905092915050565b5f602082019050919050565b615cdc81615c2d565b615ce68184615c37565b9250615cf182615c41565b805f5b83811015615d21578151615d088782615cb0565b9650615d1383615cc7565b925050600181019050615cf4565b505050505050565b5f6101e082019050615d3d5f830184615cd3565b92915050565b5f8160011c9050919050565b5f808291508390505b6001851115615d9857808604811115615d7457615d736159b7565b5b6001851615615d835780820291505b8081029050615d9185615d43565b9450615d58565b94509492505050565b5f82615db05760019050615e6b565b81615dbd575f9050615e6b565b8160018114615dd35760028114615ddd57615e0c565b6001915050615e6b565b60ff841115615def57615dee6159b7565b5b8360020a915084821115615e0657615e056159b7565b5b50615e6b565b5060208310610133831016604e8410600b8410161715615e415782820a905083811115615e3c57615e3b6159b7565b5b615e6b565b615e4e8484846001615d4f565b92509050818404811115615e6557615e646159b7565b5b81810290505b9392505050565b5f615e7c82614f3d565b9150615e8783614f3d565b9250615eb47fffffffffffffffffffffffffffffffffffffffffffffffffffffffffffffffff8484615da1565b905092915050565b5f615ec682614f3d565b9150615ed183614f3d565b9250828202615edf81614f3d565b91508282048414831517615ef657615ef56159b7565b5b5092915050565b7f4e487b71000000000000000000000000000000000000000000000000000000005f52601260045260245ffd5b5f615f3482614f3d565b9150615f3f83614f3d565b925082615f4f57615f4e615efd565b5b828204905092915050565b5f61024082019050615f6e5f83018761511a565b615f7b602083018661511a565b615f88604083018561511a565b615f956060830184615cd3565b95945050505050565b615fa7816150db565b8114615fb1575f80fd5b50565b5f81519050615fc281615f9e565b92915050565b5f63ffffffff82169050919050565b615fe081615fc8565b8114615fea575f80fd5b50565b5f81519050615ffb81615fd7565b92915050565b61600a816155fe565b8114616014575f80fd5b50565b5f8151905061602581616001565b92915050565b5f805f805f805f60e0888a03121561604657616045614f39565b5b5f6160538a828b01615fb4565b97505060206160648a828b01615260565b96505060406160758a828b01615776565b95505060606160868a828b01615776565b94505060806160978a828b01615776565b93505060a06160a88a828b01615fed565b92505060c06160b98a828b01616017565b91505092959891949750929550565b5f8160601b9050919050565b5f6160de826160c8565b9050919050565b5f6160ef826160d4565b9050919050565b616107616102826150fa565b6160e5565b82525050565b5f8160e81b9050919050565b5f6161238261610d565b9050919050565b61613b6161368261523e565b616119565b82525050565b5f61614c82866160f6565b60148201915061615c828561612a565b60038201915061616c828461612a565b600382019150819050949350505050565b5f819050919050565b61618f8161617d565b82525050565b5f6020820190506161a85f830184616186565b92915050565b5f805f805f60a086880312156161c7576161c6614f39565b5b5f6161d4888289016152a5565b95505060206161e5888289016152b9565b94505060406161f6888289016152b9565b9350506060616207888289016152a5565b9250506080616218888289016152a5565b9150509295509295909350565b5f6020828403121561623a57616239614f39565b5b5f61624784828501615421565b91505092915050565b5f6020828403121561626557616264614f39565b5b5f6162728482850161571a565b91505092915050565b5f6162858261523e565b91506162908361523e565b925082820190507fffffffffffffffffffffffffffffffffffffffffffffffffffffffffff8000008112627fffff821317156162cf576162ce6159b7565b5b92915050565b5f82825260208201905092915050565b7f7368696674506f736974696f6e733a206e6f206c697175696469747920696e205f8201527f466c6f6f72000000000000000000000000000000000000000000000000000000602082015250565b5f61633f6025836162d5565b915061634a826162e5565b604082019050919050565b5f6020820190508181035f83015261636c81616333565b9050919050565b7f52000000000000000000000000000000000000000000000000000000000000005f82015250565b5f6163a76001836162d5565b91506163b282616373565b602082019050919050565b5f6020820190508181035f8301526163d48161639b565b9050919050565b5f819050919050565b5f6163ee826163db565b91506163f9836163db565b925082820390508181125f8412168282135f85121516171561641e5761641d6159b7565b5b92915050565b5f61642e826163db565b9150616439836163db565b9250828202616447816163db565b91507f800000000000000000000000000000000000000000000000000000000000000084145f8412161561647e5761647d6159b7565b5b8282058414831517616493576164926159b7565b5b5092915050565b5f6164a4826163db565b91506164af836163db565b92508282019050828112155f8312168382125f8412151617156164d5576164d46159b7565b5b92915050565b6164e48161523e565b82525050565b5f6020820190506164fd5f8301846164db565b92915050565b5f81600f0b9050919050565b61651881616503565b8114616522575f80fd5b50565b5f815190506165338161650f565b92915050565b5f8160060b9050919050565b61654e81616539565b8114616558575f80fd5b50565b5f8151905061656981616545565b92915050565b5f805f805f805f80610100898b03121561658c5761658b614f39565b5b5f6165998b828c016152a5565b98505060206165aa8b828c01616525565b97505060406165bb8b828c016152b9565b96505060606165cc8b828c016152b9565b95505060806165dd8b828c0161655b565b94505060a06165ee8b828c01615fb4565b93505060c06165ff8b828c01615fed565b92505060e06166108b828c01616017565b9150509295985092959890939650565b61662981615274565b82525050565b5f6060820190506166425f8301866164db565b61664f60208301856164db565b61665c6040830184616620565b949350505050565b5f60a0820190506166775f83018861510b565b61668460208301876164db565b61669160408301866164db565b61669e6060830185616620565b6166ab6080830184616620565b9695505050505050565b5f80604083850312156166cb576166ca614f39565b5b5f6166d8858286016152a5565b92505060206166e9858286016152a5565b9150509250929050565b6166fc816150db565b82525050565b61670b816156f8565b82525050565b5f6040820190506167245f8301856166f3565b6167316020830184616702565b9392505050565b5f60208201905061674b5f83018461510b565b92915050565b5f6020828403121561676657616765614f39565b5b5f61677384828501616017565b91505092915050565b5f819050919050565b5f819050919050565b5f6167a86167a361679e8461677c565b616785565b6156f8565b9050919050565b6167b88161678e565b82525050565b5f6040820190506167d15f8301856166f3565b6167de60208301846167af565b9392505050565b5f6080820190506167f85f83018761511a565b616805602083018661511a565b616812604083018561511a565b61681f606083018461511a565b95945050505050565b604082015f82015161683c5f850182615b74565b50602082015161684f6020850182615b74565b50505050565b5f60e0820190506168685f83018961510b565b616875602083018861510b565b61688260408301876164db565b61688f60608301866164db565b61689c6080830185615aae565b6168a960a0830184616828565b979650505050505050565b5f60a082840312156168c9576168c8614f39565b5b5f6168d6848285016152cd565b91505092915050565b5f610160820190506168f35f83018a61510b565b616900602083018961510b565b61690d604083018861511a565b61691a606083018761511a565b616927608083018661511a565b61693460a083018561511a565b61694160c0830184615b83565b98975050505050505050565b5f616957826163db565b91507f80000000000000000000000000000000000000000000000000000000000000008203616989576169886159b7565b5b815f039050919050565b5f61699d8261523e565b91507fffffffffffffffffffffffffffffffffffffffffffffffffffffffffff80000082036169cf576169ce6159b7565b5b815f039050919050565b7f54000000000000000000000000000000000000000000000000000000000000005f82015250565b5f616a0d6001836162d5565b9150616a18826169d9565b602082019050919050565b5f6020820190508181035f830152616a3a81616a01565b9050919050565b5f616a4b82614f3d565b9150616a5683614f3d565b925082616a6657616a65615efd565b5b828206905092915050565b5f616a7b826156f8565b9150616a86836156f8565b9250828203905060ff811115616a9f57616a9e6159b7565b5b92915050565b5f616aaf82614f3d565b9150616aba836156f8565b9250616ae77fffffffffffffffffffffffffffffffffffffffffffffffffffffffffffffffff8484615da1565b905092915050565b616af8816163db565b82525050565b5f819050919050565b5f616b21616b1c616b1784616afe565b616785565b6163db565b9050919050565b616b3181616b07565b82525050565b5f819050919050565b5f616b5a616b55616b5084616b37565b616785565b6163db565b9050919050565b616b6a81616b40565b82525050565b5f606082019050616b835f830186616aef565b616b906020830185616b28565b616b9d6040830184616b61565b949350505050565b616bae816163db565b8114616bb8575f80fd5b50565b5f81519050616bc981616ba5565b92915050565b5f60208284031215616be457616be3614f39565b5b5f616bf184828501616bbb565b91505092915050565b5f616c048261523e565b9150616c0f8361523e565b9250828202616c1d8161523e565b9150808214616c2f57616c2e6159b7565b5b5092915050565b5f616c40826163db565b9150616c4b836163db565b925082616c5b57616c5a615efd565b5b60015f0383147f800000000000000000000000000000000000000000000000000000000000000083141615616c9357616c926159b7565b5b828205905092915050565b5f616ca8826163db565b9150616cb3836163db565b925082616cc357616cc2615efd565b5b82820790509291505056fe73656c6652657061794c6f616e732875696e743235362c75696e743235362c75696e7432353629a264697066735822122001d8392b47c5346f20a6dfbdfa8114a552b85973a8d3152bd97d70d3c67be65f64736f6c63430008170033","linkReferences":{"src/libraries/Conversions.sol":{"Conversions":[{"start":11403,"length":20},{"start":14038,"length":20},{"start":16627,"length":20}]},"src/libraries/Logarithm.sol":{"Logarithm":[{"start":19725,"length":20}]}}},"methodIdentifiers":{"addCollateral(uint256)":"bcc46e83","borrow(uint256,uint256)":"0ecbcdab","defaultLoans(uint256,uint256)":"bb20a343","getFunctionSelectors()":"fd896f9d","payback(uint256)":"a846c2fd","roll(uint256)":"1f7b4f30","shift()":"12fc41ca","slide()":"982f3bfd"},"id":127}