{"abi":[{"type":"constructor","inputs":[{"name":"_uniswapV3Factory","type":"address","internalType":"address"},{"name":"_pancakeSwapV3Factory","type":"address","internalType":"address"},{"name":"_resolver","type":"address","internalType":"address"},{"name":"_deployerFactory","type":"address","internalType":"address"},{"name":"_extFactory","type":"address","internalType":"address"},{"name":"_presaleFactory","type":"address","internalType":"address"}],"stateMutability":"nonpayable"},{"type":"function","name":"adaptiveSupply","inputs":[],"outputs":[{"name":"","type":"address","internalType":"address"}],"stateMutability":"view"},{"type":"function","name":"burnFor","inputs":[{"name":"from","type":"address","internalType":"address"},{"name":"amount","type":"uint256","internalType":"uint256"}],"outputs":[],"stateMutability":"nonpayable"},{"type":"function","name":"configureVault","inputs":[{"name":"vaultAddress","type":"address","internalType":"address"},{"name":"step","type":"uint8","internalType":"uint8"}],"outputs":[{"name":"data","type":"tuple","internalType":"struct DeploymentData","components":[{"name":"presaleParams","type":"tuple","internalType":"struct PresaleUserParams","components":[{"name":"softCap","type":"uint256","internalType":"uint256"},{"name":"deadline","type":"uint256","internalType":"uint256"}]},{"name":"vaultDeployParams","type":"tuple","internalType":"struct VaultDeployParams","components":[{"name":"name","type":"string","internalType":"string"},{"name":"symbol","type":"string","internalType":"string"},{"name":"decimals","type":"uint8","internalType":"uint8"},{"name":"initialSupply","type":"uint256","internalType":"uint256"},{"name":"maxTotalSupply","type":"uint256","internalType":"uint256"},{"name":"IDOPrice","type":"uint256","internalType":"uint256"},{"name":"floorPrice","type":"uint256","internalType":"uint256"},{"name":"token1","type":"address","internalType":"address"},{"name":"feeTier","type":"uint24","internalType":"uint24"},{"name":"presale","type":"uint8","internalType":"uint8"},{"name":"isFreshDeploy","type":"bool","internalType":"bool"},{"name":"useUniswap","type":"bool","internalType":"bool"}]},{"name":"pool","type":"address","internalType":"contract IUniswapV3Pool"},{"name":"proxy","type":"address","internalType":"contract ERC1967Proxy"},{"name":"tickSpacing","type":"int24","internalType":"int24"},{"name":"vaultAddress","type":"address","internalType":"address"},{"name":"vaultUpgrade","type":"address","internalType":"address"},{"name":"sNOMA","type":"address","internalType":"address"},{"name":"stakingContract","type":"address","internalType":"address"},{"name":"presaleContract","type":"address","internalType":"address"},{"name":"tokenRepo","type":"address","internalType":"address"},{"name":"vToken","type":"address","internalType":"address"}]}],"stateMutability":"nonpayable"},{"type":"function","name":"deferredDeploy","inputs":[{"name":"_deployerContract","type":"address","internalType":"address"}],"outputs":[],"stateMutability":"nonpayable"},{"type":"function","name":"deployVault","inputs":[{"name":"presaleParams","type":"tuple","internalType":"struct PresaleUserParams","components":[{"name":"softCap","type":"uint256","internalType":"uint256"},{"name":"deadline","type":"uint256","internalType":"uint256"}]},{"name":"vaultDeployParams","type":"tuple","internalType":"struct VaultDeployParams","components":[{"name":"name","type":"string","internalType":"string"},{"name":"symbol","type":"string","internalType":"string"},{"name":"decimals","type":"uint8","internalType":"uint8"},{"name":"initialSupply","type":"uint256","internalType":"uint256"},{"name":"maxTotalSupply","type":"uint256","internalType":"uint256"},{"name":"IDOPrice","type":"uint256","internalType":"uint256"},{"name":"floorPrice","type":"uint256","internalType":"uint256"},{"name":"token1","type":"address","internalType":"address"},{"name":"feeTier","type":"uint24","internalType":"uint24"},{"name":"presale","type":"uint8","internalType":"uint8"},{"name":"isFreshDeploy","type":"bool","internalType":"bool"},{"name":"useUniswap","type":"bool","internalType":"bool"}]},{"name":"existingDeployData","type":"tuple","internalType":"struct ExistingDeployData","components":[{"name":"token0","type":"address","internalType":"address"},{"name":"pool","type":"address","internalType":"address"}]}],"outputs":[{"name":"","type":"address","internalType":"address"},{"name":"","type":"address","internalType":"address"},{"name":"","type":"address","internalType":"address"}],"stateMutability":"payable"},{"type":"function","name":"getDeployers","inputs":[],"outputs":[{"name":"","type":"address[]","internalType":"address[]"}],"stateMutability":"view"},{"type":"function","name":"getPresaleProtocolParams","inputs":[],"outputs":[{"name":"","type":"tuple","internalType":"struct PresaleProtocolParams","components":[{"name":"maxSoftCap","type":"uint256","internalType":"uint256"},{"name":"minContributionRatioBps","type":"uint16","internalType":"uint16"},{"name":"maxContributionRatioBps","type":"uint16","internalType":"uint16"},{"name":"presalePercentage","type":"uint256","internalType":"uint256"},{"name":"minDuration","type":"uint256","internalType":"uint256"},{"name":"maxDuration","type":"uint256","internalType":"uint256"},{"name":"referralPercentage","type":"uint256","internalType":"uint256"},{"name":"teamFee","type":"uint256","internalType":"uint256"}]}],"stateMutability":"view"},{"type":"function","name":"getProtocolParameters","inputs":[],"outputs":[{"name":"","type":"tuple","internalType":"struct ProtocolParameters","components":[{"name":"floorPercentage","type":"uint8","internalType":"uint8"},{"name":"anchorPercentage","type":"uint8","internalType":"uint8"},{"name":"idoPriceMultiplier","type":"uint8","internalType":"uint8"},{"name":"floorBips","type":"uint16[2]","internalType":"uint16[2]"},{"name":"shiftRatio","type":"uint256","internalType":"uint256"},{"name":"slideRatio","type":"uint256","internalType":"uint256"},{"name":"discoveryBips","type":"int24","internalType":"int24"},{"name":"shiftAnchorUpperBips","type":"int24","internalType":"int24"},{"name":"slideAnchorUpperBips","type":"int24","internalType":"int24"},{"name":"lowBalanceThresholdFactor","type":"uint256","internalType":"uint256"},{"name":"highBalanceThresholdFactor","type":"uint256","internalType":"uint256"},{"name":"inflationFee","type":"uint256","internalType":"uint256"},{"name":"loanFee","type":"uint256","internalType":"uint256"},{"name":"deployFee","type":"uint256","internalType":"uint256"},{"name":"presalePremium","type":"uint256","internalType":"uint256"},{"name":"selfRepayLtvTreshold","type":"uint256","internalType":"uint256"},{"name":"halfStep","type":"uint256","internalType":"uint256"}]}],"stateMutability":"view"},{"type":"function","name":"getVaultDescription","inputs":[{"name":"_deployer","type":"address","internalType":"address"}],"outputs":[{"name":"","type":"tuple","internalType":"struct VaultDescription","components":[{"name":"tokenName","type":"string","internalType":"string"},{"name":"tokenSymbol","type":"string","internalType":"string"},{"name":"tokenDecimals","type":"uint8","internalType":"uint8"},{"name":"token0","type":"address","internalType":"address"},{"name":"token1","type":"address","internalType":"address"},{"name":"deployer","type":"address","internalType":"address"},{"name":"vault","type":"address","internalType":"address"},{"name":"presaleContract","type":"address","internalType":"address"},{"name":"stakingContract","type":"address","internalType":"address"},{"name":"deployerContract","type":"address","internalType":"address"}]}],"stateMutability":"view"},{"type":"function","name":"getVaultFromPool","inputs":[{"name":"pool","type":"address","internalType":"address"}],"outputs":[{"name":"","type":"address","internalType":"address"}],"stateMutability":"view"},{"type":"function","name":"getVaults","inputs":[{"name":"_deployer","type":"address","internalType":"address"}],"outputs":[{"name":"","type":"address[]","internalType":"address[]"}],"stateMutability":"view"},{"type":"function","name":"getVaultsRepository","inputs":[{"name":"vault","type":"address","internalType":"address"}],"outputs":[{"name":"","type":"tuple","internalType":"struct VaultDescription","components":[{"name":"tokenName","type":"string","internalType":"string"},{"name":"tokenSymbol","type":"string","internalType":"string"},{"name":"tokenDecimals","type":"uint8","internalType":"uint8"},{"name":"token0","type":"address","internalType":"address"},{"name":"token1","type":"address","internalType":"address"},{"name":"deployer","type":"address","internalType":"address"},{"name":"vault","type":"address","internalType":"address"},{"name":"presaleContract","type":"address","internalType":"address"},{"name":"stakingContract","type":"address","internalType":"address"},{"name":"deployerContract","type":"address","internalType":"address"}]}],"stateMutability":"view"},{"type":"function","name":"mintTokens","inputs":[{"name":"to","type":"address","internalType":"address"},{"name":"amount","type":"uint256","internalType":"uint256"}],"outputs":[],"stateMutability":"nonpayable"},{"type":"function","name":"modelHelper","inputs":[],"outputs":[{"name":"","type":"address","internalType":"address"}],"stateMutability":"view"},{"type":"function","name":"numDeployers","inputs":[],"outputs":[{"name":"","type":"uint256","internalType":"uint256"}],"stateMutability":"view"},{"type":"function","name":"numVaults","inputs":[{"name":"_deployer","type":"address","internalType":"address"}],"outputs":[{"name":"","type":"uint256","internalType":"uint256"}],"stateMutability":"view"},{"type":"function","name":"owner","inputs":[],"outputs":[{"name":"","type":"address","internalType":"address"}],"stateMutability":"view"},{"type":"function","name":"setMultiSigAddress","inputs":[{"name":"_address","type":"address","internalType":"address"}],"outputs":[],"stateMutability":"nonpayable"},{"type":"function","name":"setPermissionlessDeploy","inputs":[{"name":"_flag","type":"bool","internalType":"bool"}],"outputs":[],"stateMutability":"nonpayable"},{"type":"function","name":"setPresaleProtocolParams","inputs":[{"name":"_params","type":"tuple","internalType":"struct PresaleProtocolParams","components":[{"name":"maxSoftCap","type":"uint256","internalType":"uint256"},{"name":"minContributionRatioBps","type":"uint16","internalType":"uint16"},{"name":"maxContributionRatioBps","type":"uint16","internalType":"uint16"},{"name":"presalePercentage","type":"uint256","internalType":"uint256"},{"name":"minDuration","type":"uint256","internalType":"uint256"},{"name":"maxDuration","type":"uint256","internalType":"uint256"},{"name":"referralPercentage","type":"uint256","internalType":"uint256"},{"name":"teamFee","type":"uint256","internalType":"uint256"}]}],"outputs":[],"stateMutability":"nonpayable"},{"type":"function","name":"setProtocolParameters","inputs":[{"name":"_params","type":"tuple","internalType":"struct ProtocolParameters","components":[{"name":"floorPercentage","type":"uint8","internalType":"uint8"},{"name":"anchorPercentage","type":"uint8","internalType":"uint8"},{"name":"idoPriceMultiplier","type":"uint8","internalType":"uint8"},{"name":"floorBips","type":"uint16[2]","internalType":"uint16[2]"},{"name":"shiftRatio","type":"uint256","internalType":"uint256"},{"name":"slideRatio","type":"uint256","internalType":"uint256"},{"name":"discoveryBips","type":"int24","internalType":"int24"},{"name":"shiftAnchorUpperBips","type":"int24","internalType":"int24"},{"name":"slideAnchorUpperBips","type":"int24","internalType":"int24"},{"name":"lowBalanceThresholdFactor","type":"uint256","internalType":"uint256"},{"name":"highBalanceThresholdFactor","type":"uint256","internalType":"uint256"},{"name":"inflationFee","type":"uint256","internalType":"uint256"},{"name":"loanFee","type":"uint256","internalType":"uint256"},{"name":"deployFee","type":"uint256","internalType":"uint256"},{"name":"presalePremium","type":"uint256","internalType":"uint256"},{"name":"selfRepayLtvTreshold","type":"uint256","internalType":"uint256"},{"name":"halfStep","type":"uint256","internalType":"uint256"}]}],"outputs":[],"stateMutability":"nonpayable"},{"type":"function","name":"teamMultiSig","inputs":[],"outputs":[{"name":"","type":"address","internalType":"address"}],"stateMutability":"view"},{"type":"function","name":"tokenFactory","inputs":[],"outputs":[{"name":"","type":"address","internalType":"address"}],"stateMutability":"view"},{"type":"function","name":"upgradeToken","inputs":[{"name":"_token","type":"address","internalType":"address"},{"name":"_newImplementation","type":"address","internalType":"address"}],"outputs":[],"stateMutability":"nonpayable"},{"type":"error","name":"InvalidDecimals","inputs":[]},{"type":"error","name":"InvalidFeeTier","inputs":[]},{"type":"error","name":"InvalidParameters","inputs":[]},{"type":"error","name":"InvalidStep","inputs":[]},{"type":"error","name":"InvalidSymbol","inputs":[]},{"type":"error","name":"NotAuthorityError","inputs":[]},{"type":"error","name":"OnlyVaultsError","inputs":[]},{"type":"error","name":"SafeERC20FailedOperation","inputs":[{"name":"token","type":"address","internalType":"address"}]},{"type":"error","name":"SupplyTransferError","inputs":[]},{"type":"error","name":"TokenAlreadyExistsError","inputs":[]},{"type":"error","name":"Unauthorized","inputs":[]},{"type":"error","name":"ZeroAddressError","inputs":[]}],"bytecode":{"object":"0x60806040526000805460ff60a01b191690553480156200001e57600080fd5b5060405162005be238038062005be283398101604081905262000041916200017e565b6001600160a01b03861615806200005f57506001600160a01b038516155b806200007257506001600160a01b038416155b806200008557506001600160a01b038316155b806200009857506001600160a01b038216155b80620000ab57506001600160a01b038116155b15620000ca57604051633efa09af60e01b815260040160405180910390fd5b60048054336001600160a01b031991821681179092556007805482169092179091556005805482166001600160a01b039889161790556006805482169688169690961790955560008054861694871694909417909355600280548516928616929092179091556003805484169185169190911790556001805490921692169190911781556009805460ff19169091179055620001ff565b80516001600160a01b03811681146200017957600080fd5b919050565b60008060008060008060c087890312156200019857600080fd5b620001a38762000161565b9550620001b36020880162000161565b9450620001c36040880162000161565b9350620001d36060880162000161565b9250620001e36080880162000161565b9150620001f360a0880162000161565b90509295509295509295565b6159d3806200020f6000396000f3fe60806040526004361061018b5760003560e01c8063854567f1116100d6578063cb5585b81161007f578063f0dda65c11610059578063f0dda65c14610463578063f9c7bba514610483578063fe7c9c92146104a357600080fd5b8063cb5585b81461040c578063e77772fe14610439578063ef5ddb311461044e57600080fd5b8063abd4e2d1116100b0578063abd4e2d114610391578063c58aad87146103ca578063c8b16a55146103ec57600080fd5b8063854567f11461032c5780638da5cb5b1461035e578063a3e44b331461037c57600080fd5b8063397ae00511610138578063607c12b511610112578063607c12b5146102c8578063615de71f146102ea5780637d19a2cb1461030c57600080fd5b8063397ae0051461026857806340ac1a6c1461028857806355b8ce0a146102a857600080fd5b8063098eddb111610169578063098eddb1146102255780631dd319cb146102485780633597b4b61461019057600080fd5b80630337c57a1461019057806304a76f6a146101c6578063077f2cfc14610203575b600080fd5b34801561019c57600080fd5b506101b06101ab36600461448b565b6104c3565b6040516101bd91906144f8565b60405180910390f35b6101d96101d43660046147ce565b6106cc565b604080516001600160a01b03948516815292841660208401529216918101919091526060016101bd565b34801561020f57600080fd5b5061022361021e36600461448b565b6109ce565b005b34801561023157600080fd5b5061023a610a68565b6040519081526020016101bd565b34801561025457600080fd5b5061022361026336600461493b565b610a79565b34801561027457600080fd5b50610223610283366004614967565b610b4e565b34801561029457600080fd5b506102236102a3366004614994565b610b8c565b3480156102b457600080fd5b506102236102c3366004614a32565b610c13565b3480156102d457600080fd5b506102dd610c92565b6040516101bd9190614ab0565b3480156102f657600080fd5b506102ff610d34565b6040516101bd9190614ac3565b34801561031857600080fd5b5061022361032736600461448b565b610ddd565b34801561033857600080fd5b506007546001600160a01b03165b6040516001600160a01b0390911681526020016101bd565b34801561036a57600080fd5b506004546001600160a01b0316610346565b34801561038857600080fd5b5061034661113b565b34801561039d57600080fd5b506103466103ac36600461448b565b6001600160a01b039081166000908152602460205260409020541690565b3480156103d657600080fd5b506103df611210565b6040516101bd9190614c51565b3480156103f857600080fd5b50610223610407366004614cd1565b611340565b34801561041857600080fd5b5061042c610427366004614de3565b611485565b6040516101bd9190614eda565b34801561044557600080fd5b50610346611f91565b34801561045a57600080fd5b50610346612037565b34801561046f57600080fd5b5061022361047e36600461493b565b6120dd565b34801561048f57600080fd5b5061023a61049e36600461448b565b612180565b3480156104af57600080fd5b506102dd6104be36600461448b565b6121a0565b6040805161014081018252606080825260208201819052600092820183905281018290526080810182905260a0810182905260c0810182905260e0810182905261010081018290526101208101919091526001600160a01b038216600090815260216020526040908190208151610140810190925280548290829061054790614ffc565b80601f016020809104026020016040519081016040528092919081815260200182805461057390614ffc565b80156105c05780601f10610595576101008083540402835291602001916105c0565b820191906000526020600020905b8154815290600101906020018083116105a357829003601f168201915b505050505081526020016001820180546105d990614ffc565b80601f016020809104026020016040519081016040528092919081815260200182805461060590614ffc565b80156106525780601f1061062757610100808354040283529160200191610652565b820191906000526020600020905b81548152906001019060200180831161063557829003601f168201915b5050509183525050600282015460ff811660208301526001600160a01b0361010091829004811660408401526003840154811660608401526004840154811660808401526005840154811660a08401526006840154811660c08401526007840154811660e084015260089093015490921691015292915050565b6009546000908190819060ff16610708576004546001600160a01b03163314610708576040516314b2e6c760e21b815260040160405180910390fd5b6107158560e00151612245565b60006107258661010001516123b7565b90506022600087600001518860200151604051602001610746929190615030565b60408051601f198184030181529181528151602092830120835290820192909252016000205460ff16156107a6576040517fe92b0f0e00000000000000000000000000000000000000000000000000000000815260040160405180910390fd5b60008087610140015115610859576107bc611f91565b6001600160a01b0316638a5efe51896040518263ffffffff1660e01b81526004016107e7919061505f565b6060604051808303816000875af1158015610806573d6000803e3d6000fd5b505050506040513d601f19601f8201168201806040525081019061082a9190615072565b90915050809250506108528860a00151838a60e001518b6101000151878d61016001516123c2565b9050610863565b5050845160208601515b87610120015160ff16600114801561088657506004546001600160a01b03163314155b1561094357610893611210565b6101a001513410156108b857604051630e52390960e41b815260040160405180910390fd5b6007546001600160a01b031615610908576007546040516001600160a01b03909116903480156108fc02916000818181858888f19350505050158015610902573d6000803e3d6000fd5b50610943565b6004546040516001600160a01b03909116903480156108fc02916000818181858888f19350505050158015610941573d6000803e3d6000fd5b505b60408051610180810182528a8152602081018a90526001600160a01b03808416928201929092529083166060820152600284900b6080820152600060a0820181905260c0820181905260e082018190526101008201819052610120820181905261014082018190526101608201526109bc908990612615565b95509550955050505093509350939050565b6007546001600160a01b031633146109f9576040516314b2e6c760e21b815260040160405180910390fd5b6001600160a01b038116610a39576040517f3efa09af00000000000000000000000000000000000000000000000000000000815260040160405180910390fd5b6007805473ffffffffffffffffffffffffffffffffffffffff19166001600160a01b0392909216919091179055565b6000610a74601e612ced565b905090565b336000818152602160205260409020600501546001600160a01b031614610ab3576040516313063b3f60e11b815260040160405180910390fd5b33600090815260216020526040908190206002015490517f9dc29fac0000000000000000000000000000000000000000000000000000000081526001600160a01b0384811660048301526024820184905261010090920490911690639dc29fac906044015b600060405180830381600087803b158015610b3257600080fd5b505af1158015610b46573d6000803e3d6000fd5b505050505050565b6004546001600160a01b03163314610b79576040516314b2e6c760e21b815260040160405180910390fd5b6009805460ff1916911515919091179055565b6004546001600160a01b03163314610bb7576040516314b2e6c760e21b815260040160405180910390fd5b8051601755602081015160188054604084015161ffff908116620100000263ffffffff1990921693169290921791909117905560608101516019556080810151601a5560a0810151601b5560c0810151601c5560e00151601d55565b6004546001600160a01b03163314610c3e576040516314b2e6c760e21b815260040160405180910390fd5b604080516000815260208101918290527f4f1ef286000000000000000000000000000000000000000000000000000000009091526001600160a01b03831690634f1ef28690610b18908490602481016150b5565b60606000610c9e610a68565b905060008167ffffffffffffffff811115610cbb57610cbb6145f6565b604051908082528060200260200182016040528015610ce4578160200160208202803683370190505b50905060005b82811015610d2d57610cfb81612cf7565b828281518110610d0d57610d0d6150d7565b6001600160a01b0390921660209283029190910190910152600101610cea565b5092915050565b610d8460405180610100016040528060008152602001600061ffff168152602001600061ffff16815260200160008152602001600081526020016000815260200160008152602001600081525090565b506040805161010081018252601754815260185461ffff80821660208401526201000090910416918101919091526019546060820152601a546080820152601b5460a0820152601c5460c0820152601d5460e082015290565b336000818152602160205260409020600501546001600160a01b031614610e17576040516313063b3f60e11b815260040160405180910390fd5b3360009081526023602052604080822081516101808101909252805482908290610e4090614ffc565b80601f0160208091040260200160405190810160405280929190818152602001828054610e6c90614ffc565b8015610eb95780601f10610e8e57610100808354040283529160200191610eb9565b820191906000526020600020905b815481529060010190602001808311610e9c57829003601f168201915b50505050508152602001600182018054610ed290614ffc565b80601f0160208091040260200160405190810160405280929190818152602001828054610efe90614ffc565b8015610f4b5780601f10610f2057610100808354040283529160200191610f4b565b820191906000526020600020905b815481529060010190602001808311610f2e57829003601f168201915b5050509183525050600282015460ff9081166020830152600383015460408301526004830154606083015260058301546080830152600683015460a08301526007909201546001600160a01b03811660c083015262ffffff7401000000000000000000000000000000000000000082041660e0830152770100000000000000000000000000000000000000000000008104831661010080840191909152780100000000000000000000000000000000000000000000000082048416151561012084015279010000000000000000000000000000000000000000000000000090910490921615156101409091015281015190915060009061104a906123b7565b9050611068838360a00151846060015184611063611210565b612d04565b826001600160a01b0316634bb278f36040518163ffffffff1660e01b8152600401600060405180830381600087803b1580156110a357600080fd5b505af11580156110b7573d6000803e3d6000fd5b5050336000908152602360205260408120925090506110d682826142cc565b6110e46001830160006142cc565b5060028101805460ff191690556000600382018190556004820181905560058201819055600682015560070180547fffffffffffff0000000000000000000000000000000000000000000000000000169055505050565b6000805460408051808201909152600b81526a26b7b232b62432b63832b960a91b60208201526001600160a01b039091169063dacb2d019061117c90612ec6565b6040518263ffffffff1660e01b81526004016111cf918152604060208201819052600e908201527f6e6f206d6f64656c48656c706572000000000000000000000000000000000000606082015260800190565b602060405180830381865afa1580156111ec573d6000803e3d6000fd5b505050506040513d601f19601f82011682018060405250810190610a7491906150ed565b611218614309565b6040805161022081018252600a805460ff8082168452610100820481166020850152620100009091041682840152825180840193849052919290916060840191600b90600290826000855b82829054906101000a900461ffff1661ffff168152602001906002019060208260010104928301926001038202915080841161126357505050928452505050600282810154602083015260038301546040830152600483015480820b606084015263010000008104820b608084015266010000000000009004900b60a0820152600582015460c0820152600682015460e0820152600782015461010082015260088201546101208201526009820154610140820152600a820154610160820152600b820154610180820152600c909101546101a090910152919050565b6004546001600160a01b0316331461136b576040516314b2e6c760e21b815260040160405180910390fd5b8051600a80546020840151604085015160ff908116620100000262ff0000199282166101000261ffff199094169190951617919091171691909117815560608201518291906113be90600b90600261439d565b506080820151600282015560a0820151600382015560c082015160048201805460e085015161010086015162ffffff90811666010000000000000268ffffff0000000000001992821663010000000265ffffffffffff199094169190951617919091171691909117905561012082015160058201556101408201516006820155610160820151600782015561018082015160088201556101a082015160098201556101c0820151600a8201556101e0820151600b82015561020090910151600c9091015550565b611558604080516101c08101825260006101808083018281526101a084018390528352835190810184526060808252602082810182905294820183905281018290526080810182905260a0810182905260c0810182905260e081018290526101008101829052610120810182905261014081018290526101608101919091529091820190815260006020820181905260408201819052606082018190526080820181905260a0820181905260c0820181905260e08201819052610100820181905261012082018190526101409091015290565b60ff8216158061156b575060068260ff16115b156115a2576040517f28cda61500000000000000000000000000000000000000000000000000000000815260040160405180910390fd5b6001600160a01b038316600090815260216020526040808220815161014081019092528054829082906115d490614ffc565b80601f016020809104026020016040519081016040528092919081815260200182805461160090614ffc565b801561164d5780601f106116225761010080835404028352916020019161164d565b820191906000526020600020905b81548152906001019060200180831161163057829003601f168201915b5050505050815260200160018201805461166690614ffc565b80601f016020809104026020016040519081016040528092919081815260200182805461169290614ffc565b80156116df5780601f106116b4576101008083540402835291602001916116df565b820191906000526020600020905b8154815290600101906020018083116116c257829003601f168201915b5050509183525050600282015460ff811660208301526001600160a01b0361010091829004811660408401526003840154811660608401526004840154811660808401526005840154811660a0808501919091526006850154821660c08501526007850154821660e0850152600890940154811691909201529082015191925033911614611799576040517f82b4290000000000000000000000000000000000000000000000000000000000815260040160405180910390fd5b8260ff16600103611adf576003548151602083015160608401516040517f2d882cc70000000000000000000000000000000000000000000000000000000081526001600160a01b0390941693632d882cc7936117ff939092909130918b9160040161510a565b6080604051808303816000875af115801561181e573d6000803e3d6000fd5b505050506040513d601f19601f82011682018060405250810190611842919061515a565b6001600160a01b0390811661016087015290811661014086015290811661010085015290811660e08401526000805460408051808201909152600c81527f5661756c7455706772616465000000000000000000000000000000000000000060208201529192169063dacb2d01906118b890612ec6565b6040518263ffffffff1660e01b815260040161190b918152604060208201819052600f908201527f6e6f205661756c74557067726164650000000000000000000000000000000000606082015260800190565b602060405180830381865afa158015611928573d6000803e3d6000fd5b505050506040513d601f19601f8201168201806040525081019061194c91906150ed565b60405163f2fde38b60e01b81526001600160a01b0380831660048301529192509086169063f2fde38b90602401600060405180830381600087803b15801561199357600080fd5b505af11580156119a7573d6000803e3d6000fd5b5050604051632689ddd160e11b81526001600160a01b03888116600483015284169250634d13bba29150602401600060405180830381600087803b1580156119ee57600080fd5b505af1158015611a02573d6000803e3d6000fd5b50505050611a4f60008054906101000a90046001600160a01b0316868561010001518660e001518660e00151611a36612037565b611a3e61113b565b8961012001518b6101600151612f2b565b6101008301516101408401516040517fc30a29b40000000000000000000000000000000000000000000000000000000081526001600160a01b03928316600482015290821660248201529086169063c30a29b490604401600060405180830381600087803b158015611ac057600080fd5b505af1158015611ad4573d6000803e3d6000fd5b505050505050611f8b565b60008360ff16600203611bd95760005460408051808201909152601181527f5661756c7455706772616465537465703100000000000000000000000000000060208201526001600160a01b039091169063dacb2d0190611b3e90612ec6565b6040518263ffffffff1660e01b8152600401611b919181526040602082018190526014908201527f6e6f205661756c74557067726164655374657031000000000000000000000000606082015260800190565b602060405180830381865afa158015611bae573d6000803e3d6000fd5b505050506040513d601f19601f82011682018060405250810190611bd291906150ed565b9050611ed2565b8360ff16600303611c895760005460408051808201909152601181527f5661756c7455706772616465537465703200000000000000000000000000000060208201526001600160a01b039091169063dacb2d0190611c3690612ec6565b6040518263ffffffff1660e01b8152600401611b919181526040602082018190526014908201527f6e6f205661756c74557067726164655374657032000000000000000000000000606082015260800190565b8360ff16600403611d395760005460408051808201909152601181527f5661756c7455706772616465537465703300000000000000000000000000000060208201526001600160a01b039091169063dacb2d0190611ce690612ec6565b6040518263ffffffff1660e01b8152600401611b919181526040602082018190526014908201527f6e6f205661756c74557067726164655374657033000000000000000000000000606082015260800190565b8360ff16600503611de95760005460408051808201909152601181527f5661756c7455706772616465537465703400000000000000000000000000000060208201526001600160a01b039091169063dacb2d0190611d9690612ec6565b6040518263ffffffff1660e01b8152600401611b919181526040602082018190526014908201527f6e6f205661756c74557067726164655374657034000000000000000000000000606082015260800190565b60005460408051808201909152601181527f5661756c7455706772616465537465703500000000000000000000000000000060208201526001600160a01b039091169063dacb2d0190611e3b90612ec6565b6040518263ffffffff1660e01b8152600401611e8e9181526040602082018190526014908201527f6e6f205661756c74557067726164655374657035000000000000000000000000606082015260800190565b602060405180830381865afa158015611eab573d6000803e3d6000fd5b505050506040513d601f19601f82011682018060405250810190611ecf91906150ed565b90505b60405163f2fde38b60e01b81526001600160a01b03828116600483015286169063f2fde38b90602401600060405180830381600087803b158015611f1557600080fd5b505af1158015611f29573d6000803e3d6000fd5b5050604051632689ddd160e11b81526001600160a01b03888116600483015284169250634d13bba29150602401600060405180830381600087803b158015611f7057600080fd5b505af1158015611f84573d6000803e3d6000fd5b5050505050505b92915050565b6000805460408051808201909152600c81527f546f6b656e466163746f7279000000000000000000000000000000000000000060208201526001600160a01b039091169063dacb2d0190611fe490612ec6565b6040518263ffffffff1660e01b81526004016111cf918152604060208201819052600f908201527f6e6f20546f6b656e466163746f72790000000000000000000000000000000000606082015260800190565b6000805460408051808201909152600e81527f4164617074697665537570706c7900000000000000000000000000000000000060208201526001600160a01b039091169063dacb2d019061208a90612ec6565b6040518263ffffffff1660e01b81526004016111cf9181526040602082018190526011908201527f6e6f204164617074697665537570706c79000000000000000000000000000000606082015260800190565b336000818152602160205260409020600501546001600160a01b031614612117576040516313063b3f60e11b815260040160405180910390fd5b33600090815260216020526040908190206002015490517f40c10f190000000000000000000000000000000000000000000000000000000081526001600160a01b03848116600483015260248201849052610100909204909116906340c10f1990604401610b18565b6001600160a01b03811660009081526020805260408120611f8b90612ced565b606060006121ad83612180565b905060008167ffffffffffffffff8111156121ca576121ca6145f6565b6040519080825280602002602001820160405280156121f3578160200160208202803683370190505b50905060005b8281101561223d5761220b8582613444565b82828151811061221d5761221d6150d7565b6001600160a01b03909216602092830291909101909101526001016121f9565b509392505050565b600080826001600160a01b03166395d89b416040518163ffffffff1660e01b8152600401600060405180830381865afa158015612286573d6000803e3d6000fd5b505050506040513d6000823e601f3d908101601f191682016040526122ae91908101906151b9565b805190915081906000036122ee576040517f04119bc400000000000000000000000000000000000000000000000000000000815260040160405180910390fd5b6020820151600054604080517fdacb2d01000000000000000000000000000000000000000000000000000000008152600481018490526024810191909152601360448201527f6e6f742061207265736572766520746f6b656e0000000000000000000000000060648201529194506001600160a01b03169063dacb2d0190608401602060405180830381865afa15801561238c573d6000803e3d6000fd5b505050506040513d601f19601f820116820180604052508101906123b091906150ed565b5050505050565b6000611f8b8261346c565b600080826123db576006546001600160a01b03166123e8565b6005546001600160a01b03165b6040517f1698ee820000000000000000000000000000000000000000000000000000000081526001600160a01b038981166004830152888116602483015262ffffff88166044830152919250600091831690631698ee8290606401602060405180830381865afa158015612460573d6000803e3d6000fd5b505050506040513d601f19601f8201168201806040525081019061248491906150ed565b90506000886001600160a01b031663313ce5676040518163ffffffff1660e01b8152600401602060405180830381865afa1580156124c6573d6000803e3d6000fd5b505050506040513d601f19601f820116820180604052508101906124ea9190615227565b90506001600160a01b038216612608576040517fa16712950000000000000000000000000000000000000000000000000000000081526001600160a01b038a81166004830152898116602483015262ffffff8916604483015284169063a1671295906064016020604051808303816000875af115801561256e573d6000803e3d6000fd5b505050506040513d601f19601f8201168201806040525081019061259291906150ed565b9150816001600160a01b031663f637731d6125ae8c898561350d565b6040516001600160e01b031960e084901b1681526001600160a01b039091166004820152602401600060405180830381600087803b1580156125ef57600080fd5b505af1158015612603573d6000803e3d6000fd5b505050505b5098975050505050505050565b6000805460408051808201909152600981527f457463685661756c7400000000000000000000000000000000000000000000006020820152829182916001600160a01b039091169063dacb2d019061266c90612ec6565b6040518263ffffffff1660e01b81526004016126bf918152604060208201819052600c908201527f6e6f20457463685661756c740000000000000000000000000000000000000000606082015260800190565b602060405180830381865afa1580156126dc573d6000803e3d6000fd5b505050506040513d601f19601f8201168201806040525081019061270091906150ed565b6000546040517fcda1ac0b0000000000000000000000000000000000000000000000000000000081526001600160a01b03918216600482015291169063cda1ac0b9060240160408051808303816000875af1158015612763573d6000803e3d6000fd5b505050506040513d601f19601f820116820180604052508101906127879190615244565b6001600160a01b0390811660c087015290811660a0860152600254600080546040517fc071e0cb00000000000000000000000000000000000000000000000000000000815230600482015290841660248201529092919091169063c071e0cb906044016020604051808303816000875af1158015612809573d6000803e3d6000fd5b505050506040513d601f19601f8201168201806040525081019061282d91906150ed565b9050806001600160a01b031663f8c8765e308760a00151886040015161285161113b565b60405160e086901b6001600160e01b03191681526001600160a01b039485166004820152928416602484015290831660448301529091166064820152608401600060405180830381600087803b1580156128aa57600080fd5b505af11580156128be573d6000803e3d6000fd5b50505060c086015160a0870151604051632689ddd160e11b81526001600160a01b03918216600482015291169150634d13bba290602401600060405180830381600087803b15801561290f57600080fd5b505af1158015612923573d6000803e3d6000fd5b505050506129518186602001516060015187606001516001600160a01b031661352a9092919063ffffffff16565b6020850151606090810151908601516040517f70a082310000000000000000000000000000000000000000000000000000000081526001600160a01b038481166004830152909116906370a0823190602401602060405180830381865afa1580156129c0573d6000803e3d6000fd5b505050506040513d601f19601f820116820180604052508101906129e49190615273565b14612a1b576040517fa0ca77d900000000000000000000000000000000000000000000000000000000815260040160405180910390fd5b85610120015160ff16600103612a6e57612a5a8186606001518388610100015189604001518a60a001518b61014001518c602001518d600001516135af565b6001600160a01b0316610120860152612a99565b612a978186604001518760a001518861010001518961014001518a602001518b60000151613669565b505b604080516101408101825260208088018051518352805182015182840152805184015160ff16838501526060808a01516001600160a01b0390811691850191909152905160e090810151821660808501523360a0808601919091528a018051831660c0860152610120808c0151841692860192909252610100808c0151841690860152868316918501919091525116600090815260219091529190912081518190612b4490826152d4565b5060208201516001820190612b5990826152d4565b50604082810151600283018054606086015160ff9093167fffffffffffffffffffffff000000000000000000000000000000000000000000909116176101006001600160a01b03938416810291909117909155608085015160038501805473ffffffffffffffffffffffffffffffffffffffff1990811692851692909217905560a080870151600487018054841691861691909117905560c0870151600587018054841691861691909117905560e08701516006870180548416918616919091179055918601516007860180548316918516919091179055610120909501516008909401805490951693909116929092179092558601513360009081526020805291909120612c6791613ab1565b5060a08501516040808701516001600160a01b039081166000908152602460205291909120805473ffffffffffffffffffffffffffffffffffffffff191691909216179055612cb7601e33613ab1565b50600160086000828254612ccb91906153aa565b9091555050505060a08301516040840151606090940151909593945092915050565b6000611f8b825490565b6000611f8b601e83613ac6565b846001600160a01b0316636a384ed0856064846000015160ff1687612d2991906153bd565b612d3391906153ea565b6040516001600160e01b031960e085901b16815260048101929092526024820152600285900b6044820152606401600060405180830381600087803b158015612d7b57600080fd5b505af1158015612d8f573d6000803e3d6000fd5b5050505060608101518051602091820151918301516001600160a01b03881692634303ca759291606490612dc69060ff16896153bd565b612dd091906153ea565b6040516001600160e01b031960e086901b16815261ffff93841660048201529290911660248301526044820152606401600060405180830381600087803b158015612e1a57600080fd5b505af1158015612e2e573d6000803e3d6000fd5b50505050846001600160a01b031663f4315506826040015160ff1686612e5491906153bd565b6040516001600160e01b031960e084901b16815260048101919091526000602482015260440160c0604051808303816000875af1158015612e99573d6000803e3d6000fd5b505050506040513d601f19601f82011682018060405250810190612ebd919061540d565b50505050505050565b805160009082908203612edc5750600092915050565b602081511115612eeb57600080fd5b602083015181519092505b6020811015612f1e57612f0a81601f6154b4565b612f159060086153bd565b50600101612ef6565b5050919050565b50919050565b60408051600780825261010082019092526000916020820160e080368337019050509050612f8d6040518060400160405280600e81526020017f4164617074697665537570706c79000000000000000000000000000000000000815250612ec6565b81600081518110612fa057612fa06150d7565b602002602001018181525050612fd86040518060400160405280600b81526020016a26b7b232b62432b63832b960a91b815250612ec6565b81600181518110612feb57612feb6150d7565b6020026020010181815250506130356040518060400160405280600781526020017f5374616b696e6700000000000000000000000000000000000000000000000000815250612ec6565b81600281518110613048576130486150d7565b6020026020010181815250506130926040518060400160405280600581526020017f734e4f4d41000000000000000000000000000000000000000000000000000000815250612ec6565b816003815181106130a5576130a56150d7565b6020026020010181815250506130ef6040518060400160405280600881526020017f4465706c6f796572000000000000000000000000000000000000000000000000815250612ec6565b81600481518110613102576131026150d7565b60200260200101818152505061314c6040518060400160405280600781526020017f50726573616c6500000000000000000000000000000000000000000000000000815250612ec6565b8160058151811061315f5761315f6150d7565b6020026020010181815250506131a96040518060400160405280600681526020017f76546f6b656e0000000000000000000000000000000000000000000000000000815250612ec6565b816006815181106131bc576131bc6150d7565b602090810291909101015260408051600780825261010082019092526000918160200160208202803683370190505090508581600081518110613201576132016150d7565b60200260200101906001600160a01b031690816001600160a01b0316815250508481600181518110613235576132356150d7565b60200260200101906001600160a01b031690816001600160a01b0316815250508881600281518110613269576132696150d7565b60200260200101906001600160a01b031690816001600160a01b031681525050878160038151811061329d5761329d6150d7565b60200260200101906001600160a01b031690816001600160a01b03168152505083816004815181106132d1576132d16150d7565b60200260200101906001600160a01b031690816001600160a01b0316815250508681600581518110613305576133056150d7565b60200260200101906001600160a01b031690816001600160a01b0316815250508281600681518110613339576133396150d7565b6001600160a01b0392831660209182029290920101526040517fb2bd66a40000000000000000000000000000000000000000000000000000000081528b82166004820152908c169063b2bd66a490602401600060405180830381600087803b1580156133a457600080fd5b505af11580156133b8573d6000803e3d6000fd5b50506040517f94c3a6f00000000000000000000000000000000000000000000000000000000081526001600160a01b038e1692506394c3a6f09150613405908d90869086906004016154c7565b600060405180830381600087803b15801561341f57600080fd5b505af1158015613433573d6000803e3d6000fd5b505050505050505050505050505050565b6001600160a01b038216600090815260208052604081206134659083613ac6565b9392505050565b60008162ffffff1660640361348357506001919050565b8162ffffff166101f4036134995750600a919050565b8162ffffff16610bb8036134af5750603c919050565b8162ffffff16612710036134c5575060c8919050565b8162ffffff166109c4036134db57506032919050565b6040517f3733548a00000000000000000000000000000000000000000000000000000000815260040160405180910390fd5b600061352261351d858585613ad2565b613c34565b949350505050565b604080516001600160a01b038416602482015260448082018490528251808303909101815260649091019091526020810180517bffffffffffffffffffffffffffffffffffffffffffffffffffffffff167fa9059cbb000000000000000000000000000000000000000000000000000000001790526135aa908490613c3f565b505050565b6000806135c18b88888b898989613669565b9050613659604051806101200160405280886001600160a01b03168152602001336001600160a01b031681526020018b6001600160a01b03168152602001896001600160a01b031681526020018a6001600160a01b03168152602001836001600160a01b031681526020018c6001600160a01b03168152602001876001600160a01b03168152602001613652611210565b9052613cd4565b90505b9998505050505050505050565b60008061367a8461010001516123b7565b9050600061368b8560a00151613d4a565b905084610120015160ff16600103613948576001600160a01b0388166000908152602360205260409020855186919081906136c690826152d4565b50602082015160018201906136db90826152d4565b5060408201518160020160006101000a81548160ff021916908360ff160217905550606082015181600301556080820151816004015560a0820151816005015560c0820151816006015560e08201518160070160006101000a8154816001600160a01b0302191690836001600160a01b031602179055506101008201518160070160146101000a81548162ffffff021916908362ffffff1602179055506101208201518160070160176101000a81548160ff021916908360ff1602179055506101408201518160070160186101000a81548160ff0219169083151502179055506101608201518160070160196101000a81548160ff021916908315150217905550905050600160009054906101000a90046001600160a01b03166001600160a01b03166370bac948604051806101800160405280336001600160a01b031681526020018b6001600160a01b031681526020018c6001600160a01b031681526020018760000151815260200184815260200187602001518152602001886000015160405160200161386b9190615533565b604051602081830303815290604052815260200188602001516040516020016138949190615574565b6040516020818303038152906040528152602001886040015160ff1681526020018560020b81526020016138c6611210565b5160ff16815260608901516020909101526138df610d34565b6040518363ffffffff1660e01b81526004016138fc9291906155b9565b6020604051808303816000875af115801561391b573d6000803e3d6000fd5b505050506040513d601f19601f8201168201806040525081019061393f91906150ed565b92505050613aa6565b613a396040518061012001604052808a6001600160a01b03168152602001336001600160a01b031681526020018c6001600160a01b031681526020018b6001600160a01b03168152602001896001600160a01b0316815260200160006001600160a01b031681526020018b6001600160a01b0316630dfe16816040518163ffffffff1660e01b8152600401602060405180830381865afa1580156139f0573d6000803e3d6000fd5b505050506040513d601f19601f82011682018060405250810190613a1491906150ed565b6001600160a01b03168152602001886001600160a01b03168152602001613652611210565b613a508a8660a00151876060015185611063611210565b896001600160a01b0316634bb278f36040518163ffffffff1660e01b8152600401600060405180830381600087803b158015613a8b57600080fd5b505af1158015613a9f573d6000803e3d6000fd5b5050505050505b979650505050505050565b6000613465836001600160a01b038416613da8565b60006134658383613df7565b600060068260ff1610158015613aec575060128260ff1611155b613b22576040517fd25598a000000000000000000000000000000000000000000000000000000000815260040160405180910390fd5b6000613b2f836012615717565b613b3a90600a615814565b9050613b468186615823565b945083613c2168033dd1780914b9684073__$28bae0af19d0e90d77349cc0e88bc3c39a$__63bc4225aa613b828a670de0b6b3a7640000615823565b6040516001600160e01b031960e084901b1681526004810191909152670de0b6b3a764000060248201526706f05b59d3b200006044820152606401602060405180830381865af4158015613bda573d6000803e3d6000fd5b505050506040513d601f19601f82011682018060405250810190613bfe9190615273565b613c089190615853565b613c1c600288900b658334ae9d7c0a615823565b613e21565b613c2b9190615873565b95945050505050565b6000611f8b82613e71565b600080602060008451602086016000885af180613c62576040513d6000823e3d81fd5b50506000513d91508115613c7a578060011415613c87565b6001600160a01b0384163b155b15613cce576040517f5274afe70000000000000000000000000000000000000000000000000000000081526001600160a01b03851660048201526024015b60405180910390fd5b50505050565b805160208201516040808401516060850151608086015160a087015160e088015161010089015195517f29b973240000000000000000000000000000000000000000000000000000000081526001600160a01b038916976329b9732497610b189730979296909592949093909190600401615893565b6000613d54611210565b6101c00151600003613d7957604051630e52390960e41b815260040160405180910390fd5b60006064613d85611210565b6101c00151613d9490856153bd565b613d9e91906153ea565b61346590846153aa565b6000818152600183016020526040812054613def57508154600181810184556000848152602080822090930184905584548482528286019093526040902091909155611f8b565b506000611f8b565b6000826000018281548110613e0e57613e0e6150d7565b9060005260206000200154905092915050565b600061138861271083613e348683615823565b613e3e91906158e1565b613e48919061590f565b13613e5c57613e5782846158e1565b613465565b613e6682846158e1565b613465906001615923565b60008060008360020b12613e88578260020b613e95565b8260020b613e959061594b565b9050613ea4620d89e719615967565b60020b811115613f10576040517f08c379a000000000000000000000000000000000000000000000000000000000815260206004820152600160248201527f54000000000000000000000000000000000000000000000000000000000000006044820152606401613cc5565b600081600116600003613f3457700100000000000000000000000000000000613f46565b6ffffcb933bd6fad37aa2d162d1a5940015b70ffffffffffffffffffffffffffffffffff1690506002821615613f85576080613f80826ffff97272373d413259a46990580e213a6153bd565b901c90505b6004821615613faf576080613faa826ffff2e50f5f656932ef12357cf3c7fdcc6153bd565b901c90505b6008821615613fd9576080613fd4826fffe5caca7e10e4e61c3624eaa0941cd06153bd565b901c90505b6010821615614003576080613ffe826fffcb9843d60f6159c9db58835c9266446153bd565b901c90505b602082161561402d576080614028826fff973b41fa98c081472e6896dfb254c06153bd565b901c90505b6040821615614057576080614052826fff2ea16466c96a3843ec78b326b528616153bd565b901c90505b608082161561408157608061407c826ffe5dee046a99a2a811c461f1969c30536153bd565b901c90505b6101008216156140ac5760806140a7826ffcbe86c7900a88aedcffc83b479aa3a46153bd565b901c90505b6102008216156140d75760806140d2826ff987a7253ac413176f2b074cf7815e546153bd565b901c90505b6104008216156141025760806140fd826ff3392b0822b70005940c7a398e4b70f36153bd565b901c90505b61080082161561412d576080614128826fe7159475a2c29b7443b29c7fa6e889d96153bd565b901c90505b611000821615614158576080614153826fd097f3bdfd2022b8845ad8f792aa58256153bd565b901c90505b61200082161561418357608061417e826fa9f746462d870fdf8a65dc1f90e061e56153bd565b901c90505b6140008216156141ae5760806141a9826f70d869a156d2a1b890bb3df62baf32f76153bd565b901c90505b6180008216156141d95760806141d4826f31be135f97d08fd981231505542fcfa66153bd565b901c90505b62010000821615614205576080614200826f09aa508b5b7a84e1c677de54f3e99bc96153bd565b901c90505b6202000082161561423057608061422b826e5d6af8dedb81196699c329225ee6046153bd565b901c90505b6204000082161561425a576080614255826d2216e584f5fa1ea926041bedfe986153bd565b901c90505b6208000082161561428257608061427d826b048a170391f7dc42444e8fa26153bd565b901c90505b60008460020b131561429d5761429a816000196153ea565b90505b6142ac64010000000082615989565b156142b85760016142bb565b60005b6135229060ff16602083901c6153aa565b5080546142d890614ffc565b6000825580601f106142e8575050565b601f0160209004906000526020600020908101906143069190614433565b50565b60408051610220810182526000808252602082018190529181019190915260608101614333614448565b81526020016000815260200160008152602001600060020b8152602001600060020b8152602001600060020b815260200160008152602001600081526020016000815260200160008152602001600081526020016000815260200160008152602001600081525090565b6001830191839082156144235791602002820160005b838211156143f357835183826101000a81548161ffff021916908361ffff16021790555092602001926002016020816001010492830192600103026143b3565b80156144215782816101000a81549061ffff02191690556002016020816001010492830192600103026143f3565b505b5061442f929150614433565b5090565b5b8082111561442f5760008155600101614434565b60405180604001604052806002906020820280368337509192915050565b6001600160a01b038116811461430657600080fd5b803561448681614466565b919050565b60006020828403121561449d57600080fd5b813561346581614466565b60005b838110156144c35781810151838201526020016144ab565b50506000910152565b600081518084526144e48160208601602086016144a8565b601f01601f19169290920160200192915050565b60208152600082516101408060208501526145176101608501836144cc565b91506020850151601f1985840301604086015261453483826144cc565b925050604085015161454b606086018260ff169052565b5060608501516001600160a01b03811660808601525060808501516001600160a01b03811660a08601525060a08501516001600160a01b03811660c08601525060c08501516001600160a01b03811660e08601525060e08501516101006145bc818701836001600160a01b03169052565b86015190506101206145d8868201836001600160a01b03169052565b8601516001600160a01b0381168387015290505b5090949350505050565b634e487b7160e01b600052604160045260246000fd5b6040805190810167ffffffffffffffff8111828210171561462f5761462f6145f6565b60405290565b604051610180810167ffffffffffffffff8111828210171561462f5761462f6145f6565b604051610220810167ffffffffffffffff8111828210171561462f5761462f6145f6565b60405160a0810167ffffffffffffffff8111828210171561462f5761462f6145f6565b604051601f8201601f1916810167ffffffffffffffff811182821017156146c9576146c96145f6565b604052919050565b600067ffffffffffffffff8211156146eb576146eb6145f6565b50601f01601f191660200190565b600082601f83011261470a57600080fd5b813561471d614718826146d1565b6146a0565b81815284602083860101111561473257600080fd5b816020850160208301376000918101602001919091529392505050565b60ff8116811461430657600080fd5b80356144868161474f565b803562ffffff8116811461448657600080fd5b8035801515811461448657600080fd5b60006040828403121561479e57600080fd5b6147a661460c565b905081356147b381614466565b815260208201356147c381614466565b602082015292915050565b600080600083850360a08112156147e457600080fd5b60408112156147f257600080fd5b506147fb61460c565b84358152602080860135908201529250604084013567ffffffffffffffff8082111561482657600080fd5b90850190610180828803121561483b57600080fd5b614843614635565b82358281111561485257600080fd5b61485e898286016146f9565b82525060208301358281111561487357600080fd5b61487f898286016146f9565b6020830152506148916040840161475e565b6040820152606083013560608201526080830135608082015260a083013560a082015260c083013560c08201526148ca60e0840161447b565b60e082015261010091506148df828401614769565b8282015261012091506148f382840161475e565b82820152610140915061490782840161477c565b82820152610160915061491b82840161477c565b82820152809450505050614932856060860161478c565b90509250925092565b6000806040838503121561494e57600080fd5b823561495981614466565b946020939093013593505050565b60006020828403121561497957600080fd5b6134658261477c565b803561ffff8116811461448657600080fd5b60006101008083850312156149a857600080fd5b6040519081019067ffffffffffffffff821181831017156149cb576149cb6145f6565b81604052833581526149df60208501614982565b60208201526149f060408501614982565b6040820152606084013560608201526080840135608082015260a084013560a082015260c084013560c082015260e084013560e0820152809250505092915050565b60008060408385031215614a4557600080fd5b8235614a5081614466565b91506020830135614a6081614466565b809150509250929050565b60008151808452602080850194506020840160005b83811015614aa55781516001600160a01b031687529582019590820190600101614a80565b509495945050505050565b6020815260006134656020830184614a6b565b6101008101611f8b828480518252602081015161ffff80821660208501528060408401511660408501525050606081015160608301526080810151608083015260a081015160a083015260c081015160c083015260e081015160e08301525050565b8060005b6002811015613cce57815161ffff16845260209384019390910190600101614b29565b805160ff1682526020810151614b67602084018260ff169052565b506040810151614b7c604084018260ff169052565b506060810151614b8f6060840182614b25565b50608081015160a083015260a081015160c083015260c0810151614bb860e084018260020b9052565b5060e0810151610100614bcf8185018360020b9052565b8201519050610120614be58482018360020b9052565b8201516101408481019190915282015161016080850191909152820151610180808501919091528201516101a0808501919091528201516101c0808501919091528201516101e08085019190915282015161020080850191909152909101516102209092019190915250565b6102408101611f8b8284614b4c565b600082601f830112614c7157600080fd5b614c7961460c565b806040840185811115614c8b57600080fd5b845b81811015614cac57614c9e81614982565b845260209384019301614c8d565b509095945050505050565b8060020b811461430657600080fd5b803561448681614cb7565b60006102408284031215614ce457600080fd5b614cec614659565b614cf58361475e565b8152614d036020840161475e565b6020820152614d146040840161475e565b6040820152614d268460608501614c60565b606082015260a0830135608082015260c083013560a0820152614d4b60e08401614cc6565b60c0820152610100614d5e818501614cc6565b60e0830152610120614d71818601614cc6565b828401526101409150818501358184015250610160808501358284015261018091508185013581840152506101a080850135828401526101c091508185013581840152506101e08085013582840152610200915081850135818401525061022084013581830152508091505092915050565b60008060408385031215614df657600080fd5b8235614e0181614466565b91506020830135614a608161474f565b60006101808251818552614e27828601826144cc565b91505060208301518482036020860152614e4182826144cc565b9150506040830151614e58604086018260ff169052565b50606083015160608501526080830151608085015260a083015160a085015260c083015160c085015260e0830151614e9b60e08601826001600160a01b03169052565b506101008381015162ffffff16908501526101208084015160ff16908501526101408084015115159085015261016080840151801515828701526145ec565b6020808252825180518383015201516040820152600060208301516101a0806060850152614f0c6101c0850183614e11565b91506040850151614f2860808601826001600160a01b03169052565b5060608501516001600160a01b031660a08501526080850151600281900b60c08601525060a08501516001600160a01b03811660e08601525060c0850151610100614f7d818701836001600160a01b03169052565b60e08701519150610120614f9b818801846001600160a01b03169052565b90870151915061014090614fb9878301846001600160a01b03169052565b8701519150610160614fd5878201846001600160a01b03169052565b908701516001600160a01b03908116610180880152908701519081168387015290506145ec565b600181811c9082168061501057607f821691505b602082108103612f2557634e487b7160e01b600052602260045260246000fd5b600083516150428184602088016144a8565b8351908301906150568183602088016144a8565b01949350505050565b6020815260006134656020830184614e11565b60008060006060848603121561508757600080fd5b835161509281614466565b60208501519093506150a381614466565b80925050604084015190509250925092565b6001600160a01b038316815260406020820152600061352260408301846144cc565b634e487b7160e01b600052603260045260246000fd5b6000602082840312156150ff57600080fd5b815161346581614466565b60a08152600061511d60a08301886144cc565b828103602084015261512f81886144cc565b6001600160a01b03968716604085015294861660608401525050921660809092019190915292915050565b6000806000806080858703121561517057600080fd5b845161517b81614466565b602086015190945061518c81614466565b604086015190935061519d81614466565b60608601519092506151ae81614466565b939692955090935050565b6000602082840312156151cb57600080fd5b815167ffffffffffffffff8111156151e257600080fd5b8201601f810184136151f357600080fd5b8051615201614718826146d1565b81815285602083850101111561521657600080fd5b613c2b8260208301602086016144a8565b60006020828403121561523957600080fd5b81516134658161474f565b6000806040838503121561525757600080fd5b825161526281614466565b6020840151909250614a6081614466565b60006020828403121561528557600080fd5b5051919050565b601f8211156135aa576000816000526020600020601f850160051c810160208610156152b55750805b601f850160051c820191505b81811015610b46578281556001016152c1565b815167ffffffffffffffff8111156152ee576152ee6145f6565b615302816152fc8454614ffc565b8461528c565b602080601f831160018114615337576000841561531f5750858301515b600019600386901b1c1916600185901b178555610b46565b600085815260208120601f198616915b8281101561536657888601518255948401946001909101908401615347565b50858210156153845787850151600019600388901b60f8161c191681555b5050505050600190811b01905550565b634e487b7160e01b600052601160045260246000fd5b80820180821115611f8b57611f8b615394565b8082028115828204841417611f8b57611f8b615394565b634e487b7160e01b600052601260045260246000fd5b6000826153f9576153f96153d4565b500490565b80516003811061448657600080fd5b60008082840360c081121561542157600080fd5b60a081121561542f57600080fd5b5061543861467d565b835161544381614cb7565b8152602084015161545381614cb7565b602082015260408401516fffffffffffffffffffffffffffffffff8116811461547b57600080fd5b604082015260608481015190820152608084015161549881614cb7565b608082015291506154ab60a084016153fe565b90509250929050565b81810381811115611f8b57611f8b615394565b6000606082016001600160a01b038616835260206060602085015281865180845260808601915060208801935060005b81811015615513578451835293830193918301916001016154f7565b505084810360408601526155278187614a6b565b98975050505050505050565b600082516155458184602087016144a8565b7f2050726520417373657400000000000000000000000000000000000000000000920191825250600a01919050565b7f702d0000000000000000000000000000000000000000000000000000000000008152600082516155ac8160028501602087016144a8565b9190910160020192915050565b60006101208083526155d681840186516001600160a01b03169052565b60208501516101406155f2818601836001600160a01b03169052565b60408701519150610160615610818701846001600160a01b03169052565b60608801519250610180838188015260808901516101a088015260a08901516101c088015260c08901519350806101e0880152506156526102a08701846144cc565b925060e088015161011f198785030161020088015261567184826144cc565b93505061010088015161568a61022088018260ff169052565b5092870151926156a061024087018560020b9052565b9087015161026086015286015161028085015291506134659050602083018480518252602081015161ffff80821660208501528060408401511660408501525050606081015160608301526080810151608083015260a081015160a083015260c081015160c083015260e081015160e08301525050565b60ff8281168282160390811115611f8b57611f8b615394565b600181815b8085111561576b57816000190482111561575157615751615394565b8085161561575e57918102915b93841c9390800290615735565b509250929050565b60008261578257506001611f8b565b8161578f57506000611f8b565b81600181146157a557600281146157af576157cb565b6001915050611f8b565b60ff8411156157c0576157c0615394565b50506001821b611f8b565b5060208310610133831016604e8410600b84101617156157ee575081810a611f8b565b6157f88383615730565b806000190482111561580c5761580c615394565b029392505050565b600061346560ff841683615773565b80820260008212600160ff1b8414161561583f5761583f615394565b8181058314821517611f8b57611f8b615394565b8181036000831280158383131683831282161715610d2d57610d2d615394565b60008260020b8260020b028060020b9150808214610d2d57610d2d615394565b6001600160a01b038981168252888116602083015287811660408301528681166060830152858116608083015284811660a0830152831660c0820152610320810161365c60e0830184614b4c565b6000826158f0576158f06153d4565b600160ff1b82146000198414161561590a5761590a615394565b500590565b60008261591e5761591e6153d4565b500790565b808201828112600083128015821682158216171561594357615943615394565b505092915050565b6000600160ff1b820361596057615960615394565b5060000390565b60008160020b627fffff19810361598057615980615394565b60000392915050565b600082615998576159986153d4565b50069056fea264697066735822122071577299c0e66f5a5224f3b3cec8dc2fa79469a8dc3f14842d6dc379c33a480964736f6c63430008170033","linkReferences":{"src/libraries/Logarithm.sol":{"Logarithm":[{"start":15719,"length":20}]}}},"methodIdentifiers":{"adaptiveSupply()":"ef5ddb31","burnFor(address,uint256)":"1dd319cb","configureVault(address,uint8)":"cb5585b8","deferredDeploy(address)":"7d19a2cb","deployVault((uint256,uint256),(string,string,uint8,uint256,uint256,uint256,uint256,address,uint24,uint8,bool,bool),(address,address))":"04a76f6a","getDeployers()":"607c12b5","getPresaleProtocolParams()":"615de71f","getProtocolParameters()":"c58aad87","getVaultDescription(address)":"0337c57a","getVaultFromPool(address)":"abd4e2d1","getVaults(address)":"fe7c9c92","getVaultsRepository(address)":"3597b4b6","mintTokens(address,uint256)":"f0dda65c","modelHelper()":"a3e44b33","numDeployers()":"098eddb1","numVaults(address)":"f9c7bba5","owner()":"8da5cb5b","setMultiSigAddress(address)":"077f2cfc","setPermissionlessDeploy(bool)":"397ae005","setPresaleProtocolParams((uint256,uint16,uint16,uint256,uint256,uint256,uint256,uint256))":"40ac1a6c","setProtocolParameters((uint8,uint8,uint8,uint16[2],uint256,uint256,int24,int24,int24,uint256,uint256,uint256,uint256,uint256,uint256,uint256,uint256))":"c8b16a55","teamMultiSig()":"854567f1","tokenFactory()":"e77772fe","upgradeToken(address,address)":"55b8ce0a"},"id":83}